:020000040800F2
:10000000782F002059020008153B000899290008A4
:1000100089370008F9090008C947000800000000F6
:10002000000000000000000000000000893C000803
:10003000570B000800000000713B00088D3C0008D1
:1000400073020008730200087302000873020008BC
:1000500073020008730200087302000873020008AC
:10006000730200087302000873020008730200089C
:100070007302000873020008FD0900080D0A000859
:100080001D0A000873020008730200080000000047
:1000900000000000000000000000000073020008E3
:1000A000730200087302000873020008730200085C
:1000B000730200087302000873020008730200084C
:1000C000730200087302000873020008730200083C
:1000D00073020008B947000873020008000000001E
:1000E0007302000873020008730200080000000099
:1000F0000000000000000000000000007302000883
:100100000000000073020008730200087302000878
:1001100000000000000000000000000000000000DF
:1001200073020008730200087302000873020008DB
:100130007302000800000000000000000000000042
:100140000000000000000000000000007302000832
:1001500073020008730200082D0A000873020008E9
:100160007302000873020008000000000000000095
:10017000000000000000000000000000000000007F
:1001800000000000730200080000000000000000F2
:10019000730200087302000800F002F800F04DF846
:1001A0000AA090E8000C82448344AAF10107DA45D2
:1001B00001D100F042F8AFF2090EBAE80F0013F0D7
:1001C000010F18BFFB1A43F001031847C84A00008B
:1001D000E84A0000103A24BF78C878C1FAD852071C
:1001E00024BF30C830C144BF04680C6070470000B1
:1001F0000023002400250026103A28BF78C1FBD830
:10020000520728BF30C148BF0B607047752900F006
:10021000E180782900F01A81002070471FB504F0B2
:10022000EBFC00F06BFB04000020002104F0CEFC8E
:10023000401C60601FBD10B510BD00F071FB114681
:10024000FFF7ECFF04F03CFB00F08FFB03B4FFF77B
:10025000F2FF03BC00F090FB0948804709480047C3
:10026000FEE7FEE7FEE7FEE7FEE7FEE7FEE7FEE766
:10027000FEE7FEE704480549054A064B70470000C3
:10028000C53D00089901000878290020782F00203A
:10029000782B0020782B002053EA020C00F06980B4
:1002A0002DE9F04B4FF00006002B1FBFB3FA83F58A
:1002B00003FA05F424FA05F65E4012BF1643B2FABB
:1002C00082F502FA05F4C5F120051EBF22FA05FCED
:1002D00044EA0C04203556EA044C4FEA144418BF93
:1002E000641C4FF000084FF00009904271EB030CC2
:1002F00039D3002919BFB1FA81F701FA07F6B0FA2C
:1003000080F700FA07F6C7F120071EBF20FA07FCA6
:1003100046EA0C062037B6FBF4FCA7EB0507103FB6
:1003200007F01F0BCBF120060CFA0BFB2CFA06F69C
:1003300044BFB3460026202FA4BF5E464FF0000BFB
:100340005BEA060C08BF4FF0010B19EB0B09ABFB86
:10035000027C48EB0608C01B06FB02CC0BFB03CC5F
:1003600071EB0C01C1E70B46024641464846BDE829
:10037000F08B13B54FF000004FF00001AFF3008099
:10038000BDE81C407047B2F120030AD5C2F120033A
:1003900020FA02F001FA03F321FA02F140EA030025
:1003A000704721FA03F04FF0000170470FB41CB5FD
:1003B000074B06AA7B4469460090059800F033FA83
:1003C0000020694600F042FA1CBC5DF814FB0000F6
:1003D000950400002DE9F0410646002410687529B7
:1003E000314616A510D0AFF30080002802DA404253
:1003F00013A507E031688A0701D512A502E0490775
:1004000004D511A5012401E0AFF3008000210A22E8
:1004100006F1240709E0B0FBF2FCB0FBF2F302FBAB
:100420001C00303078541846491C0028F3D123466C
:100430002A463046BDE8F04100F096B900000000C1
:100440002D0000002B0000002000000070B50446C5
:100450000D4621461068AFF300802188090502D5BA
:100460000F4A7A4402E00E4A7A440E32002104F127
:10047000240305E000F00F060009965D5E54491C58
:100480000028F7D120780023000704D5702D02D072
:1004900009B1022311322046BDE8704000F064B972
:1004A000BC4700002DE9F0474FF0000A894604469A
:1004B000C0F820A02046E1688847002876D025288B
:1004C00006D0D4E901219047206A401C2062F1E760
:1004D000E168204600258847C4F81CA0064600278E
:1004E000C4F818A02A2E09D0304604F08BF938B38E
:1004F00004EB8708303EC8F8186019E059F8041B6F
:10050000204604EB87029161E1688847012F064687
:1005100018D1E069002820DA25F020051DE0D8F880
:10052000180000EB800006EB40003038C8F81800D7
:100530002046E1688847064604F064F90028EED1B9
:10054000012F0AD02E2E08D12046E16888477F1C53
:100550000646022F45F02005C4DBA069002803DA17
:10056000404245F00105A061E80701D025F01005E3
:10057000B6B1A6F14100192802D8203645F400652D
:100580004A463146204625604D46FFF73FFE58B1AA
:10059000012806D0ED1D25F0070000F1080989E7C4
:1005A00004E005F1040985E730468AE7206ABDE8E2
:1005B000F08770B5064600F0D3F80468054630466B
:1005C0000A22002100F002F82C6070BD2DE9F047EE
:1005D00091460F4680460446002614F8015B2DB173
:1005E00000F0B6F80068405DC007F6D12B2D02D0B0
:1005F0002D2D18D0641E4A463946204600F02BF9AE
:1006000027B13968A14201D1C7F800804FF0020438
:1006100071050BD54042002803DD00F0A1F804600D
:10062000A007BDE8F08746F48066E4E70028F8DA22
:1006300000F096F804606FF00040F2E710B5431C3C
:1006400002E010F8011B71B18107FAD14FF00132BD
:1006500002C88C1A8C4314EAC211F9D0C01A0A06D7
:1006600003D0C01E10BDC01A10BD0A0401D0801EE8
:1006700010BD0902FCD0401E10BD4FF0000200B5B5
:10068000134694469646203922BFA0E80C50A0E8B5
:100690000C50B1F12001BFF4F7AF090728BFA0E863
:1006A0000C5048BF0CC05DF804EB890028BF40F82F
:1006B000042B08BF704748BF20F8022B11F0804F71
:1006C00018BF00F8012B70474FF0013C50F8042B85
:1006D00051F8043B9A4221D1A2EB0C03934313EA55
:1006E000CC1317D150F8042B51F8043B9A4215D182
:1006F000A2EB0C03934313EACC130BD150F8042B59
:1007000051F8043B9A4209D1A2EB0C03934313EA3C
:10071000CC13DBD04FF00000704700BFD01A01BAF5
:10072000B1FA81F101F0180122FA01F0CB40C1F1D8
:100730002001DBB2C0B2C01A2CFA01F3D11A9143E6
:1007400011EAC311E6D17047704770477047000047
:1007500010B500F0D3F8001D10BD00BF71440000BB
:1007600000487047142900202DE9F0470D469946AE
:100770009246044600F124080168880604D5E06921
:1007800021F01001216000E00120A84201DD471B9B
:1007900000E00027A1697A1902EB0900081AA0619C
:1007A0002078C00602D42046AFF30080002608E07F
:1007B000D4E901211AF806009047206A401C761CF3
:1007C00020624E45F4DB2078C0060AD52046AFF300
:1007D000008006E0D4E9012130209047206A401CC7
:1007E0002062381EA7F10107F4DC07E0D4E90121FB
:1007F00018F805009047206A401C2062281EA5F1C9
:100800000105F3DC2046AFF300802078000602D516
:100810000220BDE8F0870120FBE7000001694A1CC7
:1008200002610878704700B58FB0CDE90131002131
:10083000059105497944CDE9031011466846FFF753
:1008400031FE0FB000BD0000E5FFFFFF0A6802F8AF
:10085000010B0A6070472DE9F05F824615468B4612
:1008600000270AF10104B9460078302801D09DB173
:1008700013E014F8010B0127782803D0582801D081
:1008800045B10AE00DB1102D07D1002714F8010B76
:10089000102502E0082500E00A250026B0460EE0FB
:1008A00005FB080005FB06F101271FFA80F801EBA4
:1008B0001046B6F5803F00D3B94614F8010B29461F
:1008C00000F020F80028EBDABBF1000F05D00FB1E3
:1008D000641E00E05446CBF80040B9F1000F06D08A
:1008E000FFF73EFF02210160C81EBDE8F09F48EA05
:1008F0000640FAE700487047142900200048704776
:10090000342900203A2800D2303820F02002412A31
:1009100001D3A2F13700884201D34FF0FF30704776
:100920007546FFF7E7FFAE4605006946534620F0DF
:100930000700854618B020B5FFF79CFCBDE82040B5
:100940004FF000064FF000074FF000084FF0000B8B
:1009500021F00701AC46ACE8C009ACE8C009ACE83E
:10096000C009ACE8C0098D4670470446AFF300806B
:100970002046FFF76BFC000001491820ABBEFEE7E4
:10098000260002007047000010B503F0C5F858B10A
:1009900000224FF48041054800F0BCFC00200449CF
:1009A000086004A003F078FB10BD000000080240BE
:1009B0001000002042544E5F31202121210D0A00F9
:1009C00010B503F0BFF858B100224FF400410548BC
:1009D00000F0A0FC00200449086004A003F05CFBC8
:1009E00010BD0000000802401400002042544E5F79
:1009F00032202121210D0A0000BFFEE710B5024878
:100A000000F0B6F910BD0000B401002010B5024896
:100A100000F0AEF910BD00005401002010B50248EE
:100A200000F0A6F910BD00001402002010B500204F
:100A30000349087003490860034800F099F910BDA4
:100A40002400002020000020B40200200146087885
:100A500010381823B0FBF3F20848805CC865032AFD
:100A600005D908686FF30900001D886503E0086870
:100A70006FF309008865886D70470000024C00081C
:100A8000014600208A6A8B69CBB932B1012A0DD0A8
:100A9000022A03D0032A10D10EE000BFCB6A03F074
:100AA0008073B3F1807F00D1012007E0CB6AB3F1FE
:100AB000C07F00D1012001E000E000BF34E08B697D
:100AC000B3F5005F1AD132B1012A07D0022A03D050
:100AD000032A11D10AE000BF01200EE0CB6A03F027
:100AE0008073B3F1807F00D1012006E0CB6AB3F1BF
:100AF000C07F00D1012000E000BF15E032B1012A23
:100B000005D0022A04D0032A0CD103E000BF00BFA5
:100B1000012008E0CB6A03F08073B3F1807F00D13D
:100B2000012000E000BF00BF704730B504682468B2
:100B300024F4802405682C60046863608468402C79
:100B400004D10468A2600468E16003E00468A16065
:100B50000468E26030BD70472DE9F04FA9B004464B
:100B60008A46002028900026002781468346279049
:100B70000025269080462590249022902390802165
:100B800002A8FFF77AFD0020019020783A2805D0CE
:100B9000BAF1020F02D101202690C2E063A003F057
:100BA0007BFA60788DF89000A0788DF89100102283
:100BB000694624A8FFF70AFD87B2E819C5B2E078B4
:100BC0008DF8880020798DF8890060798DF88A0089
:100BD000A0798DF88B001022694622A8FFF7F6FC59
:100BE0001FFA80F905EB29204844C5B2E0798DF859
:100BF0009000207A8DF891001022694624A8FFF712
:100C0000E5FC1FFA80FB05EB0B00C5B2BBF1040F3E
:100C10002FD1607A8DF88800A07A8DF88900E07A6B
:100C20008DF88A00207B8DF88B001022694622A85F
:100C3000FFF7CCFC804605EB18204044C5B2607B32
:100C40008DF89000A07B8DF891001022694624A8B1
:100C5000FFF7BCFCC0B201906842C5B20198854262
:100C600002D0022026905CE04FEA0840304908603C
:100C700057E0B7F5007F33DA780000F1090809265C
:100C80001BE0A05D8DF89000701C80B20646205CD1
:100C90008DF891001022694624A8FFF797FCC0B296
:100CA000279027982844C5B2DDE92710421C92B24C
:100CB000289202AA1154701C86B24645E1D3A05D69
:100CC0008DF89000701C80B20646205C8DF8910073
:100CD0001022694624A8FFF779FCC0B2019001E018
:100CE000032026906842C5B20198854202D00420B4
:100CF000269016E00E480068484425900DA02599DE
:100D000003F04CFF00BF03F05BFE0128FBD003F0B3
:100D1000C5FE3B4602AA0220259903F0D1FE03F04E
:100D2000ABFE269829B0BDE8F08F00003A00000025
:100D3000840000204144445245535F464C4153488F
:100D40003A0000007047014691F83500022803D0B0
:100D50008020486501207047052081F8350008682B
:100D6000006820F001000A6810600020F3E700002E
:100D7000F8B50446002000908C4800684FF41651E6
:100D8000B0FBF1F7A56D2E6894F85C100820884040
:100D9000304098B12068006800F0040070B120680D
:100DA000006820F004002168086094F85C100820B6
:100DB0008840A860606D40F00100606594F85C10A8
:100DC00001208840304068B12068406900F0800010
:100DD00040B194F85C1001208840A860606D40F03C
:100DE0000200606594F85C1004208840304068B1CF
:100DF0002068006800F0020040B194F85C10042004
:100E00008840A860606D40F00400606594F85C1054
:100E100010208840304078B32068006800F0080057
:100E200050B394F85C1010208840A86020680068D7
:100E300000F4802080B12068006800F4002028B908
:100E4000206CC8B12046216C884715E0A06C98B191
:100E50002046A16C88470FE02068006800F480708D
:100E600028B92068006820F0080021680860206C1C
:100E700010B12046216C884794F85C1020208840EF
:100E80003040002865D02068006800F0100000287D
:100E90005FD094F85C1020208840A86094F835005A
:100EA000052828D12068006820F016002168086015
:100EB0002068406920F0800021684861206C08B9F2
:100EC000A06C28B12068006820F008002168086044
:100ED00094F85C103F208840A86000BF002084F890
:100EE000340000BF012084F83500206D10B1204689
:100EF000216D8847F8BD2068006800F4802080B12B
:100F00002068006800F4002028B9606C10B1204609
:100F1000616C88471DE0E06BD8B12046E16B8847E3
:100F200017E02068006800F4807068B920680068E5
:100F300020F010002168086000BF002084F8340011
:100F400000BF012084F83500E06B10B12046E16B52
:100F50008847606D38B3606D00F00100F0B1052086
:100F600084F835002068006820F0010021680860DE
:100F700000BF0098401C0090B84200D905E02068EE
:100F8000006800F001000028F3D100BF00BF00207E
:100F900084F8340000BF012084F83500E06C10B103
:100FA0002046E16C884700BFA4E70000A0000020B5
:100FB0002DE9F0410446002500F0B2F9074614B9C6
:100FC0000120BDE8F081606A00B100BF00BF0020D1
:100FD00084F8340000BF022084F8350020680068DF
:100FE00020F00100216808600AE000F099F9C01BB8
:100FF000052805D920206065032084F83500E0E746
:101000002068006800F001000028EED12068056823
:1010100021480540D4E901010843E16808432169FA
:10102000084361690843A1690843E1690843216AEB
:1010300008430543606A042803D1D4E90B0108433F
:101040000543206805602068456925F00705606A4A
:101050000543606A04280DD1A06A0543E06A48B1DF
:101060002046FFF70DFD28B140206065012084F87F
:101070003500A6E7206845612046FFF7E7FC0646F5
:1010800094F85C103F208840B0600020606501202B
:1010900084F83500002094E73F8010F02DE9F047F8
:1010A00004460D4616461F464FF00008D4F85890E7
:1010B00000BF94F83400012802D10220BDE8F08777
:1010C000012084F8340000BF94F83500012825D1B0
:1010D000022084F83500002060653B4632462946F0
:1010E0002046FFF722FD94F85C103F208840C9F8A5
:1010F00008002068006840F0160021680860206C35
:1011000028B12068006840F0080021680860206865
:10111000006840F001002168086006E000BF002080
:1011200084F8340000BF4FF002084046C6E70000D4
:10113000F8B503460A460025002400200021CDE032
:10114000012606FA01F5166806EA0504AC4273D1D9
:101150005668012E08D05668022E05D05668112E0A
:1011600002D05668122E13D198684F000326BE4055
:10117000B0434F00D668BE4030439860586801269F
:101180008E40B0431679C6F300168E403043586047
:10119000D8684F000326BE40B0434F009668BE405B
:1011A0003043D8605668022E02D05668122E13D1F2
:1011B000CF0803F1200656F827004E07F70E0F263A
:1011C000BE40B0434F07FF0E1669BE403043CF0804
:1011D00003F1200646F8270018684F000326BE409A
:1011E000B043167906F003064F00BE403043186046
:1011F000566806F08056B6F1805F6ED100BF0026BB
:101200000096384E366846F48046364F3E603E467D
:10121000366806F48046009600BF00BF324E8F0845
:1012200056F827008E07370F0F26BE40B0432F4ECB
:10123000B34202D1002615E04FE02D4EB34201D15A
:1012400001260FE02B4EB34201D102260AE02A4EBE
:10125000B34201D1032605E0284EB34201D1042652
:1012600000E007268F073F0FBE4030431E4E8F0819
:1012700046F82700224E3068A043566806F48036B0
:10128000B6F5803F00D120431D4E3060361D3068DA
:10129000A043566806F40036B6F5003F00D120435F
:1012A000174E361D3060361D3068A043566806F470
:1012B0008016B6F5801F00D12043114E08363060ED
:1012C000361D3068A043566806F40016B6F5001FB8
:1012D00000D120430A4E0C363060491C1029FFF41F
:1012E0002FAFF8BD443802400838014000000240EA
:1012F0000004024000080240000C024000100240BE
:10130000003C0140024613690B400BB1012000E094
:10131000002070470AB1816101E00B0483617047CE
:1013200001480068704700009400002003480068EE
:101330000349097808440149086070479400002077
:101340009C00002010B50D48006840F400700B4967
:1013500008600846006840F480600860084600683D
:1013600040F480700860032000F0A2F8002000F034
:1013700007F800F02BF8002010BD0000003C0240F0
:1013800070B504460E4800784FF47A71B1FBF0F066
:101390000C490968B1FBF0F5284600F05AFE08B187
:1013A000012070BD102C07D200222146501E00F0F3
:1013B00041F80548046001E00120F2E70020F0E771
:1013C0009C000020A00000209800002008B500BF6D
:1013D000002000900E48006840F480400C490860EE
:1013E0000846006800F48040009000BF00BF00BFC6
:1013F00000200090081F006840F08050091F08601E
:101400000846006800F08050009000BF00BF08BD93
:101410004438024001460846002809DB00F01F035B
:1014200001229A4043099B0003F1E023C3F8002105
:1014300000BF70472DE9F05F80460D461646002735
:1014400003F0C4F9074639462A46334601F007003F
:10145000C0F1070ABAF1040F02D94FF0040A01E003
:10146000C0F1070AD14600F1040ABAF1070F02D20F
:101470004FF0000A01E0A0F1030AD4464FF0010A40
:101480000AFA09FAAAF1010A0AEA020A0AFA0CFAA5
:101490004FF0010B0BFA0CFBABF1010B0BEA030B4A
:1014A0004AEA0B042146404603F098F9BDE8F09F54
:1014B00000BF00F00702064B19684FF6FF03194002
:1014C000044B0B4343EA0221014B196000BF7047F4
:1014D0000CED00E00000FA0570B504460D460CB9AD
:1014E000012070BD5848006800F00F00A84209D2E2
:1014F00055490D700846006800F00F00A84201D061
:101500000120EEE7207800F0020002281DD12078AB
:1015100000F00400042805D14C48006840F4E05075
:101520004A490860207800F00800082805D147489B
:10153000006840F46040454908604448006820F075
:10154000F000A168084341490860207800F00100DC
:10155000A8B36068012807D13C4808380068C0F388
:101560004040B8B90120BCE76068022802D060683A
:10157000032807D1354808380068C0F3406048B9EF
:101580000120AEE7314808380068C0F3400008B9D0
:101590000120A6E72D48006820F003006168084399
:1015A0002A490860FFF7BCFE064609E0FFF7B8FECF
:1015B000801B41F28831884202D9032091E707E07D
:1015C0002248006800F00C006168B0EB810FEDD19B
:1015D0001D48006800F00F00A84209D91A490D7093
:1015E0000846006800F00F00A84201D0012078E70B
:1015F000207800F00400042807D11448006820F483
:10160000E050E168084311490860207800F00800C4
:10161000082808D10D48006820F46040216940EA9C
:10162000C1000A49086000F03FF808490968C1F3A1
:101630000311074A515CC840064908600648006823
:10164000FFF79EFE00204CE7003C024008380240B5
:101650000A4C0008A0000020980000200148006803
:1016600070470000A000002000B5FFF7F7FF044915
:101670000968C1F38221034A515CC84000BD0000E3
:10168000083802401A4C000800B5FFF7E7FF04498C
:101690000968C1F34231034A515CC84000BD0000F3
:1016A000083802401A4C00082DE9F04700240025B4
:1016B0000026A1462548006800F00C0020B104284F
:1016C00005D008283AD105E0DFF8849039E0DFF84A
:1016D000849036E01D48001F006800F03F041B485E
:1016E000001F006800F4800078B11A481749091FEC
:1016F0000968C1F38811A0FB01700146224600234E
:101700003846FEF7C9FD05460EE011480F49091F8E
:101710000968C1F38811A0FB01700146224600232D
:101720003846FEF7B9FD05460848001F0068C0F3BB
:101730000140401C4600B5FBF6F902E0DFF81090CE
:1017400000BF00BF4846BDE8F087000008380240EF
:101750000024F40040787D01F8B504460CB901205E
:10176000F8BD207800F00100002874D0F948006826
:1017700000F00C0004280DD0F648006800F00C00C2
:10178000082813D1F348001F006800F48000B0F56A
:10179000800F0BD1EF4808380068C0F340400028A4
:1017A00059D06068002856D10120D9E700BF606891
:1017B000B0F5803F08D1E7480838006840F4803031
:1017C000E449083908601EE06068B0F5A02F0DD12B
:1017D000E0480838006840F48020DE490839086095
:1017E0000846006840F4803008600CE0D9480838AA
:1017F000006820F48030D74908390860084600683E
:1018000020F48020086000BF606890B1FFF788FD79
:10181000054606E0FFF784FD401B642801D903203C
:101820009EE7CC4808380068C0F340400028F1D05B
:1018300011E0FFF775FD054606E0FFF771FD401B5F
:10184000642801D903208BE7C24808380068C0F338
:1018500040400028F1D1207800F0020002285FD13A
:10186000BC48006800F00C0058B1BA48006800F0AD
:101870000C0008281CD1B748001F006800F4800045
:10188000B0B9B44808380068C0F3400020B1E0683F
:10189000012801D0012063E7AE480838006820F035
:1018A000F800216940EAC100AA490839086037E018
:1018B000E06800B30120A8490860FFF731FD054644
:1018C00006E0FFF72DFD401B022801D9032047E762
:1018D000A04808380068C0F340000028F1D09D48B7
:1018E0000838006820F0F800216940EAC1009949F1
:1018F0000839086014E0002097490860FFF710FDE0
:10190000054606E0FFF70CFD401B022801D9032025
:1019100026E7904808380068C0F340000028F1D15D
:10192000207800F0080008282CD16069A8B10120B7
:101930008A490860FFF7F4FC054606E0FFF7F0FC73
:10194000401B022801D903200AE782486C30006856
:10195000C0F340000028F1D014E000207F49086067
:10196000FFF7DEFC054606E0FFF7DAFC401B022825
:1019700001D90320F4E677486C300068C0F34000DA
:101980000028F1D1207800F00400042870D100274D
:1019900070483830006800F0805090B900BF0020D7
:1019A00000906C483830006840F080506949383108
:1019B00008600846006800F08050009000BF00BF3B
:1019C00001276748006800F48070B0B96448006877
:1019D00040F4807062490860FFF7A2FC054606E00B
:1019E000FFF79EFC401B022801D90320B8E65C48A3
:1019F000006800F480700028F2D000BFA0680128C1
:101A000008D154486830006840F0010051496831FD
:101A100008601DE0A06805280DD14E4868300068B8
:101A200040F004004B49683108600846006840F007
:101A3000010008600CE047486830006820F00100B1
:101A40004449683108600846006820F004000860D6
:101A500000BFA068A8B1FFF763FC054609E0FFF7E7
:101A60005FFC401B41F28831884202D9032077E6AF
:101A700026E0384868300068C0F340000028EED007
:101A800013E0FFF74DFC054608E0FFF749FC401B5B
:101A900041F28831884201D9032061E62D4868303F
:101AA0000068C0F340000028EFD1012F07D129487A
:101AB0003830006820F0805026493831086000BF77
:101AC000A069002845D02348006800F00C000828D1
:101AD0005DD0A069022845D100201F490866FFF7A4
:101AE0001FFC054606E0FFF71BFC401B022801D93E
:101AF000032035E6174808380068C0F34060002826
:101B0000F1D1D4E907010843616A40EA8111012259
:101B1000A06AC2EB500041EA00412C20005D41EA7E
:101B200000600C49091F086001200B490866FFF797
:101B3000F7FB054606E0FFF7F3FB401B022801D93F
:101B400003200DE6034808380068C0F34060002811
:101B5000F1D03FE00838024000004742800E474283
:101B60000070004000201C490866FFF7D9FB0546BD
:101B700006E0FFF7D5FB401B022801D90320EFE563
:101B800016480068C0F340600028F2D122E0A06946
:101B9000012800D1E4E511480830066806F4800108
:101BA000E069814214D106F03F01206A81420FD1E1
:101BB00047F6C0703040616A884209D106F440316E
:101BC000A06A814204D106F07061E06A814201D0CE
:101BD0000120C5E50020C3E500004742003802406F
:101BE00010B504460CB9012010BD606A00B900BFF1
:101BF0000021A16294F8510028B9002084F8500017
:101C0000204600F033F8022084F851002068006874
:101C100020F0400021680860D4E901010843E16830
:101C200008432169084361690843218B01F400716D
:101C30000843E1690843216A0843A16A084321680F
:101C400008600421A06901EA1040616A0843216824
:101C500048602068C06920F400602168C8610020E5
:101C60006065012084F851000020BDE710B586B002
:101C70000446142101A8FEF700FD6249206888424D
:101C80006AD100BF002000905F48006840F48040A7
:101C90005D4908600846006800F48040009000BF7D
:101CA00000BF00BF0020009057481038006840F087
:101CB00002005549103908600846006800F002002B
:101CC000009000BF00BF4FF47040019002200290CE
:101CD00000200390032004900520059001A94B48A3
:101CE000FFF726FA4A484B49086000204860402127
:101CF000484881600021C1604FF48061016100218A
:101D000041618161C16101624162FFF751F908B12E
:101D1000FFF718F800BF3F48A064846300BF3C4849
:101D200018383D4908600020486000213A48816029
:101D3000C1604FF480610161002141618161C16135
:101D400001624162FFF734F908B1FEF7FBFF00BF03
:101D50003148E064846352E03049206888424ED1C3
:101D600000BF002000902848006840F40040264949
:101D700008600846006800F40040009000BF00BF03
:101D800000BF0020009020481038006840F0040098
:101D90001D49103908600846006800F004000090F2
:101DA00000BF00BF4FF4E0500190022002900020DD
:101DB0000390032004900620059001A91848FFF71E
:101DC000B7F91348183017490860002048604021CF
:101DD000144881600021C1604FF4806101610021DD
:101DE00041618161C16101624162FFF7E1F808B1BF
:101DF000FEF7A8FF00BF0B48A064846300BF06B0D5
:101E000010BD00000038004040380240000402408D
:101E10007060024054010020B4010020003C0040EA
:101E200000080240140200202DE9FF5F04468846A6
:101E300091461D460E9E012002900020019000BF99
:101E400094F85000012803D1022004B0BDE8F09FAF
:101E5000012084F8500000BFFFF762FA074694F8AB
:101E600051B060680390AA46BBF1010F0BD00398F4
:101E7000B0F5827F04D1A06810B9BBF1040F02D085
:101E800002200190DBE0B8F1000F03D0B9F1000FA0
:101E900000D015B901200190D1E094F85100042838
:101EA00002D0052084F8510000206065C4F8389005
:101EB000E587A587C4F83080E586A5862064606440
:101EC0002068006800F04000402805D020680068C5
:101ED00040F0400021680860E068B0F5006F4AD12A
:101EE000606810B1BAF1010F09D1206B0088216838
:101EF000C860206B801C2063E08E401EE08633E0CB
:101F00002068806800F00200022810D1E08E70B1D5
:101F1000029801280BD1206B00882168C860206BD3
:101F2000801C2063E08E401EE08600200290206826
:101F3000806800F0010068B1E08F58B12068C06887
:101F4000A16B0880A06B801CA063E08F401EE0871F
:101F500001200290FFF7E4F9C01BB04204D3701CCB
:101F600010B1032001906AE0E08E0028C8D1E08F14
:101F70000028C5D14AE0606810B1BAF1010F09D15B
:101F8000206B007821680873206B401C2063E08E72
:101F9000401EE08634E02068806800F002000228DD
:101FA00010D1E08E70B1029801280BD1206B00781F
:101FB00021680873206B401C2063E08E401EE08681
:101FC000002002902068806800F0010068B1E08F76
:101FD00058B12068C068A16B0870A06B401CA0635A
:101FE000E08F401EE08701200290FFF799F9C01BA7
:101FF000B04201D3701C00B916B9032001901EE055
:10200000E08E0028C7D1E08F0028C4D13A4631467F
:10201000204601F0AFFD20B1012001902020606535
:102020000DE0A06850B900BF002000902068C06893
:10203000009020688068009000BF00BF00BF0120B2
:1020400084F8510000BF002084F8500000BF0198C0
:10205000FBE670B504462546681EB0F1807F01D3CB
:1020600001200FE0681E4FF0E02148610F214FF082
:10207000FF3002F0B3FB00204FF0E0218861072021
:102080000861002070BD10B50346002200BF93F820
:102090003C00012801D1022010BD012083F83C0042
:1020A00000BF22F0FF00CC6840EA040222F4407036
:1020B0008C6840EA040222F480604C6840EA040222
:1020C00022F400600C6840EA040222F480500C699B
:1020D00040EA040222F400504C6940EA040222F46F
:1020E0008040CC6940EA04021868426400BF0020C6
:1020F00083F83C0000BF00BFCEE7000030B50246C9
:102100000B4600BF92F83C00012801D1022030BDEF
:10211000012082F83C0000BF022082F83D001068D8
:1021200044681068816824F07004186804431068DB
:102130004460144D1068A84213D01068B0F1804F6D
:102140000FD0114D1068A8420BD0104D1068A84256
:1021500007D00F4D1068A84203D00E4D1068A8425A
:1021600005D121F080015868014310688160012089
:1021700082F83D0000BF002082F83C0000BF00BF95
:10218000C5E70000000001400004004000080040D6
:10219000000C00400040014010B504460CB901207D
:1021A00010BD94F83D0028B9002084F83C0020467A
:1021B00000F00CF8022084F83D00211D206801F099
:1021C0000FFE012084F83D000020E9E708B5154A1C
:1021D000016891420FD100BF0021009112490968A6
:1021E00041F00101104A11601146096801F0010136
:1021F000009100BF15E00168B1F1804F11D100BF1F
:10220000002100910849091F096841F00101064AAF
:10221000121F11601146096801F00101009100BF11
:1022200000BF08BD00000140443802402DE9F041E4
:1022300004460D4600BF94F83C00012802D102205C
:10224000BDE8F081012084F83C0000BF022084F842
:102250003D002068866826F0770626F47F462068D1
:1022600086602868502833D00CDC202850D004DC4D
:1022700000284BD0102851D149E0302849D04028BF
:102280004CD139E060282DD0702807D0B0F5805FA0
:1022900003D0B0F5005F41D10DE040E0D5E9021375
:1022A0006A68206801F0FFFD2068866846F07706BE
:1022B0002068866033E0D5E902136A68206801F07F
:1022C000F2FD2068806840F480402168886026E044
:1022D000EA686968206801F0B7FE5021206801F0C3
:1022E000EDFD1CE0EA686968206801F0C0FE60212D
:1022F000206801F0E3FD12E0EA686968206801F0F7
:10230000A3FE4021206801F0D9FD08E000BF00BF16
:1023100000BF2968206801F0D1FD00E000BF00BFC8
:10232000012084F83D0000BF002084F83C0000BF7D
:1023300000BF85E710B586B00446142101A8FEF75A
:102340009CF92349206888421ED100BF00200090DC
:102350002048006840F010001E49086008460068E8
:1023600000F01000009000BF00BF4FF4206001900B
:10237000022002900020039004900120059001A902
:102380001548FEF7D5FE20E02068B0F1804F1CD143
:1023900000BF002000900F48006840F001000D4988
:1023A00008600846006800F00100009000BF00BF10
:1023B000012001900220029000200390049001204F
:1023C000059001A90548FEF7B3FE06B010BD000058
:1023D000000001403038024000100240000002407E
:1023E00070B504460D46164600BF94F83C0001281F
:1023F00001D1022070BD012084F83C0000BF022002
:1024000084F83D0036B1042E1BD0082E31D00C2E9E
:102410005ED145E02946206801F05AFD20688069B8
:1024200040F00800216888612068806920F004007D
:10243000216888612068806929690843216888616A
:1024400047E02946206801F073FD2068806940F468
:102450000060216888612068806920F480602168BC
:10246000886120688069296940EA012021688861C3
:102470002FE02946206801F08FFD2068C06940F0F8
:1024800008002168C8612068C06920F00400216844
:10249000C8612068C069296908432168C86118E0DB
:1024A0002946206801F0ACFD2068C06940F4006056
:1024B0002168C8612068C06920F480602168C86113
:1024C0002068C069296940EA01202168C86100E0EC
:1024D00000BF00BF012084F83D0000BF002084F849
:1024E0003C0000BF00BF85E710B504460CB90120D1
:1024F00010BD94F83D0028B9002084F83C00204627
:1025000000F00CF8022084F83D00211D206801F045
:1025100067FC012084F83D000020E9E770470000D7
:1025200070B504460E4601223146206801F0AAFC2F
:102530000D492068884201D1012000E0002028B127
:102540002068406C40F4004021684864206880683E
:1025500000F00705062D05D02068006840F0010056
:1025600021680860002070BD0000014070470146EE
:102570000022002391F8392091F83A3042EA030012
:10258000704700002DE9F047044620680568206880
:10259000C668206847694FF00008C14605F00F087B
:1025A000B8F1000F0AD105F0200038B106F0200084
:1025B00020B1204601F052FEBDE8F087B8F1000FCF
:1025C00072D007F0010018B906F4907000286BD0A3
:1025D00005F0010030B106F4807018B1E06B40F0F6
:1025E0000100E06305F0040030B107F0010018B10C
:1025F000E06B40F00200E06305F0020030B107F04C
:10260000010018B1E06B40F00400E06305F0080041
:1026100048B106F0200010B907F0010018B1E06BD6
:1026200040F00800E063E06B70B305F0200028B1D3
:1026300006F0200010B1204601F010FE206840692D
:10264000C0F38019E06B00F0080010B9B9F1000F79
:1026500023D0204601F0D8FD2068406900F04000FA
:10266000402816D12068406920F040002168486168
:10267000606B50B11748616B0865606BFEF763FBD8
:1026800010B1606B016D88470CE02046FFF76EFFCC
:1026900008E02046FFF76AFF04E02046FFF766FFE8
:1026A0000020E06388E7FFE705F0800030B106F026
:1026B000800018B1204602F019F87DE705F04000CF
:1026C00030B106F0400018B1204601F0ADFD73E7CF
:1026D00000BF71E7FD40000810B504460CB90120A9
:1026E00010BDA06900B100E000BF94F8390028B91E
:1026F000002084F83800204600F028F8242084F8D0
:1027000039002068C06820F400502168C860204665
:1027100001F0F8FD2068006920F49040216808610C
:102720002068406920F02A00216848612068C0685C
:1027300040F400502168C8600020E063202084F845
:10274000390084F83A000020CAE7000010B586B0CE
:102750000446142101A8FDF790FF2E492068884205
:1027600056D100BF002000902B48006840F01000B8
:10277000294908600846006800F01000009000BF7A
:1027800000BF00BF0020009023481438006840F0CC
:1027900001002149143908600846006800F0010072
:1027A000009000BF00BF4FF4C06001900220029073
:1027B00001200390032004900720059001A91748E9
:1027C000FEF7B6FC1648174908604FF000604860F5
:1027D0004021144881600021C1604FF48061016193
:1027E000002141618161C16101624162FEF7E0FB4C
:1027F00008B1FEF7A7FA00BF0A482063846300BF50
:10280000002211462520FEF715FE2520FEF702FEC8
:1028100006B010BD001001404438024000000240E4
:10282000B8640240B402002010B5034693F83A00A1
:1028300020282FD101B10AB9012010BD00BF93F8A3
:102840003800012801D10220F7E7012083F8380081
:1028500000BF99629A85DA850020D863222083F828
:102860003A0000BF002083F8380000BF1868C06835
:1028700040F480701C68E0601868406940F0010016
:102880001C6860611868C06840F020001C68E06047
:102890000020D2E70220D0E710B50446104909789D
:1028A000104A1068421C0F4B1A600F4A1154184608
:1028B0000068402802D10020194608600B480068D3
:1028C000401C0A490860402804D10020086001200B
:1028D00007490870012202490648FFF7A5FF10BD0D
:1028E0001C0000202800002094230020300000203D
:1028F0003400002074020020F7B50446154694F811
:10290000390020283DD1019800B10DB90120FEBD4C
:1029100000BF94F83800012801D10220F7E7012018
:1029200084F8380000BF01982062A584E584002067
:10293000E063212084F839001348216BC8631348F1
:10294000216B08641248216BC8640020216B086564
:1029500001AE23681A1D31682B46206BFEF79EFBE3
:102960006FF040002168086000BF002084F8380044
:1029700000BF2068406940F0800021684861002065
:10298000C5E70220C3E70000614100089741000845
:10299000114100087047704700BFFEE770B505465B
:1029A0000024FE480488008818B9284601F07EFFFC
:1029B00004460020F9490880F9490860F948008870
:1029C000322803D8F84800889D2828D90020F749E4
:1029D0000870F4490880F6490860F6490870F6491D
:1029E0000870F64908600120F5490860F54908605B
:1029F0000020F5490870F5490870F5490870F54957
:102A00000860F54908602020F4490870F44908700E
:102A10000020F4490870F4490870E34908802CE16B
:102A2000DF480068285C7E282DD1E0480078002827
:102A300029D10120DD4908700020DA490880DC49ED
:102A40000860DC490870DC490870DC490860012036
:102A5000DB490860DB4908600020DB490870DB497E
:102A60000870DB490870DB490860DB4908602020FA
:102A7000DA490870DA4908700020DA490870DA4942
:102A80000870C9490880C6480068295CD748C84A08
:102A900012688154C4480088401CC3490880D34848
:102AA000C3490968405C3B280ED1CF48007858B92B
:102AB000BE480078012807D10020BC4908700120D9
:102AC000BD490870C7490870C848B9490968405CE1
:102AD0003D2805D0C548B6490968405C3A2807D169
:102AE000B948007820B90120B7490870BD4908707D
:102AF000BE48AF490968405C2E280AD1B348007827
:102B000038B9B948007820B90120B0490870B549F2
:102B10000870B648A6490968405C242808D1AC482A
:102B2000007828B90220AA4908700120AD49087030
:102B30009F48006802286AD9AC488078202866D16E
:102B4000A8480078002862D1A148007802285ED207
:102B50009D480078012807D0A44895490968405C41
:102B6000A349964A126888549748007801280AD1E8
:102B70009648007838B99D488D490968405C974966
:102B80008F4A126888549048007801280BD18F48EA
:102B90000078012807D1954885490968405C90492B
:102BA000884A1268885488480078012809D08348E8
:102BB000006820282BD281480068401C7F490860AB
:102BC00025E081480078012810D18048007868B954
:102BD0007B480068FF2809D879480068401C78497C
:102BE00008607D480068401C7B4908607648007892
:102BF00001280CD175480078012808D17148006877
:102C0000FF2804D86F480068401C6E49086070486F
:102C1000007802280BD17348007840B973486449A2
:102C20000968405C6B4908600120694908706A487E
:102C3000006868490968884206D26548007801281A
:102C400002D16949087002E00020674908705848BD
:102C50000068C82804D256480068401C54490860DF
:102C60004F480068C82804D24D480068401C4C49B1
:102C70000860641E00205B490870002C7FF4D0AE11
:102C80004D48007801287DD1584800787E2805D12C
:102C90004848007840F001004649087053484078A1
:102CA00054490978884205D14248007840F0020032
:102CB000404908703F48007803280DD14EA14C4888
:102CC000FDF702FD48B94EA001F0E6F950A001F071
:102CD000E3F9002000F05AFDF0E14EA14448FDF771
:102CE000F3FC48B901213D48FDF736FF0646314661
:102CF0004AA001F053FFE1E14AA13D48FDF7E4FCA1
:102D000080B94AA001F0C8F904224D49AB2001F076
:102D100061FE4CA001F0C0F94948C1784AA001F019
:102D20003DFFCBE14AA13248FDF7CEFCB8B94BA03C
:102D300001F0B2F9032242499F2001F04BFE41A06D
:102D400001F0AAF93E488078182802D149A001F084
:102D5000A3F93B4881784CA001F020FFAEE14CA1E3
:102D60002348FDF7B1FCB8B91C48FDF722FC4B49DC
:102D700008601B48FDF71DFC4949086049A001F0A7
:102D80008BF900E0E4E104222D49052001F022FE48
:102D90002CA001F081F991E0A7E00000480000209C
:102DA00054000020720000204A0000205200002041
:102DB0004C0000205000002051000020580000204E
:102DC0005C000020600000206800002069000020F6
:102DD0006A000020640000206C000020A62500206E
:102DE000A62600207100002070000020BD240020D5
:102DF000862500204100002068656C7000000000FE
:102E0000EFF0E8EDDFEB2068656C700D000000006E
:102E10000D000000455043535F5752006572723AEF
:102E200000000000455043535F4944000D0AEFF095
:102E3000E8EDDFEB20455043535F49443A0D0A006B
:102E4000E62700200D0A00006D61735B335D3A00D8
:102E5000455043535F4445565F4944000D0AEFF027
:102E6000E8EDDFEB20455043535F4445565F49444E
:102E70003A0D0A007265636976653A2045504353FE
:102E80003132380D0A0000006D61735B325D3A002B
:102E9000455043535F535441545553008C00002018
:102EA000880000200D0AEFF0E8EDDFEB20455043ED
:102EB000535F5354415455533A0D0A00AA480178C0
:102EC000AAA001F06BFEA8484178AAA001F066FE16
:102ED000A5488178AFF2500001F060FEA248C178A9
:102EE000AFF29C0001F05AFEE8E0A4A1A648FDF76D
:102EF000EBFBE0BBA548FDF75CFBA5490860A548D6
:102F0000FDF757FBA4490860A1480168A3A001F0A0
:102F100045FE4FF48073944A9D480168032001F0F8
:102F200079FDA3A001F0B8F8002426E08E48035DE7
:102F300000221846114601F08DFC8B49601C0B5C89
:102F400000221846114601F085FC8749A01C0B5C45
:102F500000221846114601F07DFC8349E01C0B5C01
:102F600000221846114601F075FCE41C00E007E061
:102F7000AFF2301001F090F8641CFF2CD6D99DE020
:102F800093A18148FDF7A0FB28BB8048FDF711FB0A
:102F90007F4908607F48FDF70CFB7F4908607C484B
:102FA00001688FA001F0FAFD81A001F075F80024FE
:102FB00002E06D490C55641CFF2CFAD901F06EFD3E
:102FC0004FF48073684A72480168022001F078FD6E
:102FD00001F052FD72E089A16B48FDF775FBA8B9BD
:102FE0006A48FDF7E6FA6A4908600846016888A061
:102FF00001F0D4FD01F052FD00235B4A64480168F2
:10300000D82001F05DFD01F037FD57E087A15E4853
:10301000FDF75AFB80B95D48FDF7CBFA5C490860C3
:103020000846016885A001F0B9FD01F037FD01F007
:10303000B5FC01F021FD41E087A15348FDF744FBB9
:10304000C8B95248FDF7B5FA514908605148FDF733
:10305000B0FA514908604E48016881A001F08AFD2C
:103060004D48016882A001F06DFD49480068814922
:103070000968486322E080A14348FDF725FBE8B9D1
:103080004248FDF796FA424908604248FDF791FA36
:10309000414908603E48016879A001F06BFD3E4857
:1030A000016873A001F04EFD39480068784909684D
:1030B00048633948006876490968C862002403E01B
:1030C000002031490855641C202CF9D3002403E06A
:1030D00000202E490855641CFF2CF9D9002403E078
:1030E00000202C490855641CFF2CF9D9002403E06A
:1030F000002068490855641CC82CF9D30020664993
:1031000008806649087066490860664908700024AE
:103110006549087065490860654908606549087037
:103120006549086065490870654908606549087027
:103130006549086065490860654908706549087017
:103140002020124908701349087000206249088045
:1031500055480078012804D152480078012800D150
:1031600000BF0D48006870BDE62700206D61735BED
:10317000305D3A006D61735B315D3A0045504353F9
:103180005F5245414400000086250020A62500200E
:103190008C000020A6260020880000200D0AEFF0F9
:1031A000E8EDDFEB20455043535F524541443A0080
:1031B0000D0A2D2D2D2D2D2D2D2D2D2D2D2D2D2D82
:1031C0002D2D2D2D2D2D2D2D2D2D2D2D2D0D0A009F
:1031D000455043535F57524954455F54455354003B
:1031E0000D0AEFF0E8EDDFEB20455043535F5752F7
:1031F0004954455F544553543A00000045504353E9
:103200005F45524153455F534543544F52000000C0
:103210000D0AEFF0E8EDDFEB20455043535F4552D8
:103220004153455F534543544F523A004550435331
:103230005F45524153455F414C4C00000D0AEFF091
:10324000E8EDDFEB20455043535F45524153455F66
:10325000414C4C3A0000000054494D310000000040
:103260000D0AEFF0E8EDDFEB2054494D313A000054
:103270002E0000001403002054494D3200000000CD
:103280000D0AEFF0E8EDDFEB2054494D323A000033
:1032900054030020BD2400207200002052000020B2
:1032A0004C00002050000020510000205800002059
:1032B0005C00002068000020600000206900002001
:1032C000540000206A000020640000206C000020F0
:1032D00071000020700000204A00002010B50E4848
:1032E0000068B0F57A7F16D90C480078C0430B49C6
:1032F00008700846007828B1012251030848FEF7FB
:1033000009F805E000224FF400510548FEF702F8E5
:1033100000200149086010BD04000020900000203A
:103320000008024010B50A480068B0F57A7F04D959
:10333000012291030748FDF7EDFF07480068B0F54B
:103340007A7F04D90122D1030248FDF7E3FF10BDC3
:1033500010000020000802401400002008B500BF43
:10336000002000901E48006840F400101C490860CE
:103370000846006800F40010009000BF00BF00BFC6
:10338000002000900846006840F48000086008466D
:10339000006800F48000009000BF00BF00221146CA
:1033A0000E20FEF747F80E20FEF734F800221146F3
:1033B0000F20FEF73FF80F20FEF72CF800221146F1
:1033C0001020FEF737F81020FEF724F800221146EF
:1033D0004620FEF72FF84620FEF71CF808BD000037
:1033E0003038024000B587B0142102A8FDF745F936
:1033F00000BF002001904A48006840F0040048499E
:1034000008600846006800F00400019000BF00BF9B
:1034100000BF002001900846006840F010000860DE
:103420000846006800F01000019000BF00BF00BF18
:10343000002001900846006840F00200086008463D
:10344000006800F00200019000BF00BF00BF002034
:1034500001900846006840F00800086008460068CF
:1034600000F00800019000BF00BF00BF00200190E5
:103470000846006840F0010008600846006800F057
:103480000100019000BF00BF00224FF460412548B9
:10349000FDF740FF002201212348FDF73BFF0022FA
:1034A00020212248FDF736FF4FF4604002900120B2
:1034B000039000200490059002A91A48FDF738FEF9
:1034C0004FF42040029000200390049002A9164877
:1034D000FDF72EFE4FF4C060029002200390002002
:1034E0000490032005900720069002A91048FDF7DC
:1034F0001FFE01200290039000200490059002A975
:103500000948FDF715FE20200290012003900020BD
:103510000490059002A90548FDF70AFE07B000BD1A
:103520003038024000080240000C02400004024013
:103530000000024010B50E480E4908604FF482703A
:10354000486000210B488160C160016141614FF416
:10355000802181612021C16100210162416281627B
:103560000A21C162FEF73CFB08B1FDF7EBFB10BD81
:1035700000380040A400002010B50E480E49086035
:103580004FF48270486000210B488160C160016186
:1035900041614FF4007181612021C161002101620C
:1035A000416281620A21C162FEF71AFB08B1FDF790
:1035B000C9FB10BD003C0040FC00002000B595B0E8
:1035C000002011901290139014900F9010901C21D5
:1035D00008A8FDF752F820216846FDF74EF830485C
:1035E0003049086040F2CF70486000212D4881606A
:1035F0004CF24F31C1600021016141618161FEF7F0
:10360000CBFD08B1FDF79EFB4FF48050119011A93E
:103610002448FEF70BFE08B1FDF794FB2148FEF7A6
:1036200063FF08B1FDF78EFB00200F9010900FA9EB
:103630001C48FEF763FD08B1FDF784FB602008908D
:1036400042F21070099000200A900B900C900D909F
:103650000E90002208A91348FEF7C2FE08B1FDF73C
:1036600071FB042208A90F48FEF7BAFE08B1FDF766
:1036700069FB0020009001900290039004904FF4A9
:10368000005005900020079069460648FEF7FBFCB5
:1036900008B1FDF757FB0348FEF74CFE15B000BD1F
:1036A000000001401403002000B58DB000200990F7
:1036B0000A900B900C90079008901C216846FCF72C
:1036C000DCFF4FF080402049086000204860002166
:1036D0001D4881601D49C160002101618021816117
:1036E000FEF75AFD08B1FDF72DFB4FF4805009900D
:1036F00009A91548FEF79AFD08B1FDF723FB12480A
:10370000FEF7F2FE08B1FDF71DFB002007900890C0
:1037100007A90D48FEF7F2FC08B1FDF713FB602086
:1037200000904FF47A7001900020029004900022E3
:1037300069460548FEF754FE08B1FDF703FB024851
:10374000FEF7F8FD0DB000BD54030020A086010077
:1037500010B50B480B4908604FF4E1304860002178
:1037600008488160C16001610C21416100218161D3
:10377000C161FEF7B1FF08B1FDF7E4FA10BD00002A
:10378000001001407402002000BFFEE770B505463E
:10379000002403E037A000F07FFC641C142CF9DB4C
:1037A000002403E034A000F077FC641C142CF9DB47
:1037B00030A000F071FC31A000F06EFC2DA000F0F4
:1037C0006BFC3AA000F068FC3AA000F065FC3CA05D
:1037D00000F062FC42A000F05FFC46A000F05CFC40
:1037E00049A000F059FC4DA000F056FC50A000F09C
:1037F00053FC5BA000F050FC63A000F04DFC6CA0FB
:1038000000F04AFC71A000F047FC76A000F044FCF8
:1038100079A000F041FC81A000F03EFC884800F057
:103820003BFC88A000F038FC8BA000F035FC8FA09A
:1038300000F032FC92A000F02FFC96A000F02CFCCF
:103840009BA000F029FCA1A000F026FC09A000F03C
:1038500023FC08A000F020FCA8A000F01DFC05A09F
:1038600000F01AFC03A000F017FC02A000F014FC0A
:1038700070BD00000D0000002D0000002E2E2E2E29
:103880002E2E2E2E2E2E5465726D696E616C20D2F6
:10389000E5F1F2EEE2EEE920EFEBE0F2FB2E2E2E68
:1038A0002E2E2E2E2E2E0D0A000000004D454E55B8
:1038B000203A0D002D2D2D2D2D2D2D0D0000000059
:1038C000D0E0F1F8E8F4F0EEE2EAE020F1F2F0F313
:1038D000EAF2F3F0FB20EAEEECE0EDE4FB3A0D0057
:1038E0007E202D20F1F2E0F0F2EEE2FBE920E1E0B3
:1038F000E9F20D0031202D20E0E4F0E5F120E0E1D7
:10390000EEEDE5EDF2E00D003B2D20EAEEEDE5F603
:1039100020EFE0F7EAE8200D000000002E2E2E2E0A
:103920002E2E2E2E2E2E2E2E2E2E200D000000009E
:103930002D2D2D2D2D2D2D2D2D2D2D2D2D2D2D2DB7
:103940002D2D2D2D2D2D2D2D2D2D2D2D2D2D2D2DA7
:103950002D2D2D2D2D2D2D2D2D2D2D2D2D0D0A0007
:10396000495020203A3139322E3136382E312E311D
:103970003633202D20495020E0E4F0E5F1202020CE
:1039800020E1EBEEEAE00D00504F52543A32303570
:1039900034202020202020202020202D20EDEEEC9F
:1039A000E5F020EFEEF0F2E020E1EBEEEAE00D00D2
:1039B0007E302068656C703B202D20F2E5EAF3F93B
:1039C000E5E520ECE5EDFE0D000000007E3020690D
:1039D0006E666F3B202D20E8EDF4EEF0ECE0F6E8AB
:1039E000FF200D007E3020646163315F696E697471
:1039F0003B202D200D0000007E3020646163315F8C
:103A0000723A303B2020202D20F7F2E5EDE8E5204A
:103A1000F0E5E3E8F1F2F0E00D0000007E30206414
:103A20006163315F773A302E303B202D20E7E0EFA5
:103A3000E8F1FC20F0E5E3E8F1F2F0E00D00000031
:103A40004C4C00087E3020646163315F696E666FA4
:103A50003A303B200D0000007E3020646163315F0E
:103A6000696E69743A303B200D0000007E3020649E
:103A70006163315F7068795F77723A303B200D0087
:103A80007E3020646163315F7068795F696E666F54
:103A90003B200D007E30206C6D6B5F73796E633B55
:103AA000202D2073796E6320EDE0204C4D4B0D00EE
:103AB0007E3020696E69745F6C6D6B3B202D2069D0
:103AC0006E697420EDE0204C4D4B0D002D2D2D2DF9
:103AD0002D2D2D2D2D2D2D2D2D2D2D2D2D2D2D2D16
:103AE0002D2D2D2D2D2D2D2D2D2D2D2D2D2D2D2D06
:103AF0002D2D2D2D2D2D2D0D000000002B2B2B2BD2
:103B00002B2B2B2B2B2B2B2B2B2B2B2B2B2B2B2B05
:103B10000D0000007047000070B54FF400510748D9
:103B2000FDF7F0FB054606480078A84203D004489C
:103B30000570012400E00024204670BD000C024006
:103B40009100002070B54FF400410748FDF7DAFB03
:103B5000054606480078A84203D0044805700124B1
:103B600000E00024204670BD000C024092000020BE
:103B7000704700007CB504460D461646164800689E
:103B80001821B0FBF1F01549B0FBF1F04FF47A7158
:103B9000484301906068B0F5827F0DD12B4600222A
:103BA00080212046009600F01BF898B1606D40F02F
:103BB0002000606503207CBD00BF019800B908E0CB
:103BC0000198401E019020688068C0F3C010002852
:103BD000F3D100BF0020EEE7A000002040420F001C
:103BE0002DE9F04104460E4617461D46DDF81880C3
:103BF0003EE0681CD8B3FDF793FBA0EB0800A84299
:103C000000D2A5BB2068406820F0E0002168486031
:103C10006068B0F5827F0DD1A068B0F5004F03D089
:103C2000A068B0F5806F05D12068006820F04000E2
:103C300021680860A06AB0F5005F0DD100BF206860
:103C4000006820F40050216808602068006840F493
:103C500000502168086000BF012084F8510000BFB7
:103C6000002084F8500000BF0320BDE8F081FFE78A
:103C7000206880683040B04201D1012000E000207F
:103C8000B842B6D10020F0E77047000010B5FDF74C
:103C90004DFB1848006820B116480068401E1549C1
:103CA00008601548006810F1100F04D2124800682F
:103CB000401C114908601148006810F1100F04D22F
:103CC0000E480068401C0D4908600D480068401C03
:103CD0000B4908600B480068401C0A4908600A4804
:103CE0000068401C0849086008480088401C0749D3
:103CF000088010BD180000201000002014000020D3
:103D0000200000200000002004000020720000209D
:103D100000B593B0302107A8FCF7AFFC142102A82E
:103D2000FCF7ABFC00BF002001902448006840F085
:103D30008050224908600846006800F080500190D9
:103D400000BF00BF00BF002001901D48006840F484
:103D500040401B4908600846006800F4404001905C
:103D600000BF00BF0220079001200A9010200B9096
:103D700002200D9000210E9108210F9164211091D5
:103D8000022111910421129107A8FDF7E5FC08B169
:103D9000FCF7D8FF0F20029002200390002004902F
:103DA0004FF48050059000200690032102A8FDF7F3
:103DB00093FB08B1FCF7C6FF13B000BD40380240CA
:103DC000007000400548006840F470000349086036
:103DD0004FF00060014980390860704788ED00E0CD
:103DE00010B50268204B98420BD0B0F1804F08D03C
:103DF0001E4B984205D01E4B984202D01D4B984254
:103E000003D122F070024B681A43174B984214D02A
:103E1000B0F1804F11D0154B98420ED0144B984200
:103E20000BD0144B984208D0134B984205D0134B3B
:103E3000984202D0124B984203D122F44072CB68D0
:103E40001A4322F080034C6943EA040202608B6843
:103E5000C3620B688362044B984201D10B69036310
:103E60000123436110BD0000000001400004004038
:103E700000080040000C00400040014000440140A8
:103E80000048014030B501F01F05012404FA05F394
:103E9000046A9C430462046A01F01F0502FA05F5F6
:103EA0002C43046230BD30B50C46816821F47F415B
:103EB00042EA032525432943816030BD0A468168D3
:103EC00021F0700142F00703194381607047000040
:103ED00030B5056A25F001050562026A4368846908
:103EE00024F0700424F003040D682C4322F0020235
:103EF0008D682A430D4DA84206D100BF22F008026A
:103F0000CD682A4322F00402084DA84207D123F4C9
:103F1000807323F400734D692B438D692B434360F9
:103F200084614D684563026230BD000000000140BD
:103F300030B5056A25F010050562026A4368846998
:103F400024F4E04424F440740D6844EA052422F08B
:103F500020028D6842EA05120E4DA84207D100BF2B
:103F600022F08002CD6842EA051222F04002094D9B
:103F7000A84209D123F4806323F400634D6943EA26
:103F800085038D6943EA8503436084614D688563D9
:103F9000026230BD0000014030B5056A25F480752D
:103FA0000562026A4368C46924F0700424F00304C3
:103FB0000D682C4322F400728D6842EA05220F4DF1
:103FC000A84207D100BF22F40062CD6842EA052270
:103FD00022F48062094DA84209D123F4805323F4CE
:103FE00000534D6943EA05138D6943EA05134360A5
:103FF000C4614D68C563026230BD0000000001402D
:1040000030B5056A25F480550562036A4468C269C3
:1040100022F4E04222F440720D6842EA052223F4C1
:1040200000538D6843EA0533064DA84204D124F4B9
:1040300080444D6944EA85144460C2614D6805645A
:10404000036230BD0000014030B50B461446026AE1
:10405000056A25F001050562816921F0F00141EA58
:10406000041122F00A021A438161026230BD30B5A8
:104070000B461446056A25F0100505628169026A3F
:1040800021F4704141EA043122F0A00242EA031215
:104090008161026230BD000070B506460025002433
:1040A0001348007810BB3046FCF7C8FA85B21148B7
:1040B0000088284441F6FB71884202D900200D494E
:1040C00008800C48048807E00A480088201A305C01
:1040D00009490855601C84B2064800882844A0425B
:1040E000F2DC0448008828440249088070BD0000C2
:1040F00024000020260000209403002070B505460F
:10410000AC6B0020E085E0842046FEF72FFA70BDFE
:1041100070B506460025B46B20684069C0F3C01531
:1041200094F83900212805D125B10020E0842046EB
:1041300000F08AF820684069C0F3801594F83A00CE
:10414000222805D125B10020E085204600F05CF84A
:10415000E06B40F01000E0632046FEF707FA70BD08
:1041600070B50546AC6B2868006800F4807070B9C3
:104170000020E0842068406920F0800021684861C8
:104180002068C06840F040002168C86002E0204616
:10419000FEF700FC70BD70B50446A56B2846FEF71F
:1041A000FAFB70BD10B51348FEF7E1F921281FD0C6
:1041B00011480078E0B911480088012801D9012090
:1041C00000E000200E490968FA2901D9012100E028
:1041D0000021084060B10948048822460949054881
:1041E000FEF78AFB0020054908800120024908707B
:1041F00010BD0000740200202400002026000020D2
:1042000020000020940300200168C96821F4907107
:104210000268D1600168496921F0010102685161B9
:10422000202180F83A10704710B504462068C06815
:1042300020F040002168C860202084F83900204622
:10424000FEF7A8FB002010BD0168C96821F0C0017D
:104250000268D160202180F83910704770B504469B
:1042600094F83A0022284AD1A068B0F5805F13D1B3
:10427000A56A206940B920684068C0F3080028801A
:10428000A06A801CA06219E020684068C0B2288043
:10429000A06A401CA06211E0206938B9206840681B
:1042A000C1B2A26A501CA062117007E02068406889
:1042B00000F07F01A26A501CA0621170E08D401EC8
:1042C00080B2E085C8B92068C06820F0200021686D
:1042D000C8602068C06820F480702168C8602068C9
:1042E000406920F0010021684861202084F83A00EC
:1042F0002046FEF7D1FA002070BD0020FCE7022026
:10430000FAE700002DE9F84F04462068006920F420
:104310004050E1680843216808612169A0680843AA
:1043200061690843E169084300902068C06849F268
:104330000C618843009908432168C860206840697F
:1043400020F44070A169084321684861E069B0F534
:10435000004F75D1E3492068884203D0E2492068C4
:1043600088426FD1FDF790F9814602206168A0FB79
:1043700001510B461920A9FB00712A463846FBF76C
:104380008BFF6421B0FBF1F04FEA001A0220616854
:10439000A0FB01510B461920A9FB00712A463846A3
:1043A000FBF77AFF074602206168A0FB01510B462C
:1043B0001920A9FB00B12A465846FBF76DFF64217E
:1043C000B0FBF1F000EBC00101EB0010A7EB8000A7
:1043D000322101EBC0006421B0FBF1F000F0F800E5
:1043E0000AEB400A02206168A0FB01510B4619202C
:1043F000A9FB00712A463846FBF74EFF074602200C
:104400006168A0FB01510B461920A9FB00B12A46A7
:104410005846FBF741FF6421B0FBF1F000EBC0010F
:1044200001EB0010A7EB8000322101EBC0006421FA
:10443000B0FBF1F000F007005044216888604FE1C4
:104440006EE0FFE7FDF710F9814602206168A0FBEE
:1044500001510B461920A9FB00712A463846FBF78B
:104460001BFF6421B0FBF1F04FEA001A02206168E3
:10447000A0FB01510B461920A9FB00712A463846C2
:10448000FBF70AFF074602206168A0FB01510B46BB
:104490001920A9FB00B12A465846FBF7FDFE64210E
:1044A000B0FBF1F000EBC00101EB0010A7EB8000C6
:1044B000322101EBC0006421B0FBF1F000F0F80004
:1044C0000AEB400A02206168A0FB01510B4619204B
:1044D000A9FB00712A463846FBF7DEFE074602209C
:1044E0006168A0FB015003461920A9FB00B12A46D0
:1044F0005846FBF7D1FE6421B0FBF1F000EBC001A0
:1045000001EB0010A7EB8000322101EBC000642119
:10451000B0FBF1F000F00700504421688860DFE054
:1045200070492068884203D06F49206888426BD167
:10453000FDF7AAF8814604206168A0FB01510B46F3
:104540001920A9FB00712A463846FBF7A5FE8246D2
:1045500004206168A0FB01510B461920A9FB0071E2
:104560002A463846FBF798FE6421B0FBF1F000EBD9
:10457000C00101EB0010AAEB8000322101EB00101A
:104580006421B0FBF1F000F0F00A04206168A0FBA8
:10459000015003461920A9FB00712A463846FBF753
:1045A0007BFE6421B0FBF1F00AEB001A0420616885
:1045B000A0FB01510B461920A9FB00712A46384681
:1045C000FBF76AFE074604206168A0FB0150034622
:1045D0001920A9FB00B12A465846FBF75DFE64216D
:1045E000B0FBF1F000EBC00101EB0010A7EB800085
:1045F000322101EB00106421B0FBF1F000F00F005C
:104600005044216888606BE0FDF72EF88146042055
:104610006168A0FB015003461920A9FB00712A46DE
:104620003846FBF739FE824604206168A0FB015042
:1046300003461920A9FB00712A463846FBF72CFED9
:104640006421B0FBF1F000EBC00101EB0010AAEB1C
:104650008000322101EB00106421B0FBF1F000F08A
:10466000F00A04206168A0FB015003461920A9FB51
:1046700000712A463846FBF70FFE6421B0FBF1F0CB
:104680000AEB001A04206168A0FB017003461920A0
:10469000A9FB005001463A462846FBF7FDFD0746B8
:1046A00004206168A0FB015003461920A9FB00B15A
:1046B0002A465846FBF7F0FD6421B0FBF1F000EB11
:1046C000C00101EB0010A7EB8000322101EB0010CC
:1046D0006421B0FBF1F000F00F00504421688860C5
:1046E000BDE8F88F0010014000140140014691F828
:1046F000390021282CD18868B0F5805F0FD10A6A73
:104700001088C0F308000B685860086918B9086A77
:10471000801C086209E0086A401C086205E00B6A18
:10472000581C086218780B685860C88C401E80B20C
:10473000C88458B90868C06820F080000B68D86049
:104740000868C06840F040000B68D86000207047DF
:104750000220FCE770B5002400251448006818B357
:1047600012480068C82803D21048006885B200E0EB
:10477000C82500240DE000F04DF80D490855601CD7
:104780000C4908800A48005D3B2800D103E0601C0A
:1047900084B2AC42EFDB00BF00200549054A128815
:1047A00088540846FEF7FAF870BD0000300000207B
:1047B000D42300204800002010B50248FDF7E2FE97
:1047C00010BD00007402002000BFFEE70248006830
:1047D000C0F30220704700000CED00E010B5002887
:1047E00004DB0A07130E054A135406E00A07140EE9
:1047F000034A00F00F031B1FD45410BD00E400E077
:1048000018ED00E030380A2801D20120704700205E
:104810007047000000BF0C4909680029FBD00B4A13
:1048200011684A1C094B1A60094A505C194609680C
:10483000402902D100211A46116003490968491E26
:10484000014A116070470000300000202C00002059
:10485000942300202DE9F04706460F4690464FF07E
:104860000009424634463D4620462946FBF78BFD6B
:1048700000F0FF094A4609A10948FBF797FD09A086
:10488000FFF70AFCB9F1100F02DA07A0FFF704FCEA
:104890000348FFF701FCBDE8F08700002558000041
:1048A0009D24002020000000300000000146002070
:1048B00001E0421CD0B20A5C0AB17828F9DB7047EB
:1048C0000024FCF73FFDFFF723FAFEF78BFDFEF710
:1048D00045FDFEF72FFEFEF74FFEFEF76FFEFEF7DB
:1048E000E3FEFEF735FF01221D491E48FDF79CFF40
:1048F00000211D48FDF714FE00211C48FDF710FEA5
:104900001BA0FFF7C9FB1BA0FFF7C6FB1DA0FFF70D
:10491000C3FB18A0FFF7C0FB30201E49087001221E
:1049200020211D48FCF7F6FC19E0E043C4B22CB18D
:10493000012220211848FCF7EDFC04E00022202190
:104940001548FCF7E7FCFEF7C9FCFCF71DF8FCF77F
:1049500037F8FEF7E7FCFFF7FDFEFFF723FCE4E77F
:104960001C000020740200201403002054030020C7
:104970000D0A00002D2D2D2D2D2D2D2D2D2D2D2D04
:104980002D0D0A0020202020707267203333302044
:10499000200D0A00410000200004024010B5002252
:1049A00001210648FCF7B6FCC72000F0B9F8012247
:1049B00011460248FCF7AEFC10BD0000000C02409E
:1049C00008B501226946052000F004F89DF80000B2
:1049D00008BD00002DE9F04107460D4616460024AB
:1049E000002201210A48FCF795FC384600F098F8AF
:1049F00000BF04E0002000F093F82855641CB44286
:104A0000F8D3012211460248FCF784FCBDE8F0818E
:104A1000000C02402DE9F04180460C4616461F4628
:104A20000025002201211248FCF774FC404600F0EA
:104A300077F8C4F3074000F073F8C4F3072000F0E0
:104A40006FF8E0B200F06CF800BF07E009A0FFF7D4
:104A500023FB002000F064F870556D1CBD42F5D3B7
:104A6000012211460248FCF755FCBDE8F081000028
:104A7000000C02402E00000010B500220121064863
:104A8000FCF748FC042000F04BF8012211460248D4
:104A9000FCF740FC10BD0000000C024010B50022E5
:104AA00001210648FCF736FC062000F039F8012207
:104AB00011460248FCF72EFC10BD0000000C02401D
:104AC0002DE9F04180460C4616461F46002500227F
:104AD00001211148FCF71EFC404600F021F8C4F308
:104AE000074000F01DF8C4F3072000F019F8E0B209
:104AF00000F016F800BF06E008A0FFF7CDFA705DE1
:104B000000F00EF86D1CBD42F6D30122114602489A
:104B1000FCF700FCBDE8F081000C02402E00000014
:104B20003EB50446E0B2029041F28830012301AA6A
:104B300002A900900248FDF777F99DF804003EBDF8
:104B4000FC00002070B505460C462846FFF7A4FA85
:104B5000224605A10548FBF729FC0448FFF79CFA0B
:104B600003A0FFF799FA70BD257500009D24002071
:104B70000D00000070B505460C462846FFF78CFA7C
:104B8000224604A10448FBF711FC0348FFF784FA0E
:104B900070BD0000257500009D24002070B50546FD
:104BA0000C462846FFF778FA224605A10548FBF790
:104BB000FDFB0448FFF770FA03A0FFF76DFA70BD24
:104BC000255800009D2400200D0A000010B5002982
:104BD0000AD00878002807D005487844FBF774FD10
:104BE000002801D0002010BD0248784410BD00000C
:104BF000DA000000D20000004FF04070E1EE100A31
:104C00007047000610160006101600000000000095
:104C10000000010203040607080900000000010269
:104C20000304303132333435363738394142434466
:104C30004546403058003031323334353637383914
:104C40006162636465664030780000007E302064F5
:104C50006163315F7365726465735F706C6C3A3168
:104C60003B202D20EEF7E8F1F2EAE020F0E5E3E862
:104C7000F1F2F0E020F1E8E3EDE0EBE020E7E0F531
:104C8000E2E0F2E020504C4C205365726465730DF5
:104C900000000000C44D000800000020A400000037
:104CA000D4010008684E0008A4000020D42E0000A3
:104CB000F00100081001000043000000F8FFFFFFB2
:104CC000004040404040404040404141414141401F
:104CD00040404040404040404040404040404040D4
:104CE0004005020202020202020202020202020263
:104CF0000220202020202020202020020202020268
:104D000002029090909090901010101010101010BF
:104D100010101010101010101010101002020202CB
:104D2000020288888888888808080808080808080F
:104D3000080808080808080808080808020202020B
:104D40004000000000000000000000000000000023
:104D50000000000000000000000000000000000053
:104D60000000000000000000000000000000000043
:104D70000000000000000000000000000000000033
:104D80000000000000000000000000000000000023
:104D90000000000000000000000000000000000013
:104DA0000000000000000000000000000000000003
:104DB00000000000000000000000000000000000F3
:104DC00000000000000000000000000000000000E3
:104DD00000000000000000000000000000000000D3
:104DE00000000000000000000000000000000000C3
:104DF00000000000000000000000000000000000B3
:104E000000000000000000000000000000000000A2
:104E10000000000000000000000000000000000092
:104E20000000000000000000000000000000000082
:104E30000000000000000000000000000000000072
:104E40000000000000000000000000000000000062
:104E50000000000000000000000000001000000042
:084E6000010000000024F40031
:040000050800019955
:00000001FF
