:020000040800F2
:10000000902D002055020008D53000080D2400086E
:10001000492D000807090008F93B0008000000000E
:10002000000000000000000000000000D9300008BF
:10003000670A000800000000D7300008DD30000823
:100040006F0200086F0200086F0200086F020008CC
:100050006F0200086F0200086F0200086F020008BC
:100060006F0200086F0200086F0200086F020008AC
:100070006F0200086F0200080D0900081D09000842
:100080002D0900086F0200086F0200080000000040
:100090000000000000000000000000006F020008E7
:1000A0006F0200086F0200086F0200086F0200086C
:1000B0006F0200086F0200086F0200086F0200085C
:1000C0006F0200086F0200086F0200086F0200084C
:1000D0006F020008E93B00086F0200080000000002
:1000E0006F0200086F0200086F02000800000000A5
:1000F0000000000000000000000000006F02000887
:10010000000000006F0200086F0200086F02000884
:1001100000000000000000000000000000000000DF
:100120006F0200086F0200086F0200086F020008EB
:100130006F02000800000000000000000000000046
:100140000000000000000000000000006F02000836
:100150006F0200086F0200083D0900086F020008E6
:100160006F0200086F02000800000000000000009D
:10017000000000000000000000000000000000007F
:10018000000000006F0200080000000000000000F6
:100190006F0200086F02000800F002F800F04AF851
:1001A0000AA090E8000C82448344AAF10107DA45D2
:1001B00001D100F03FF8AFF2090EBAE80F0013F0DA
:1001C000010F18BFFB1A43F001031847643C0000FD
:1001D000843C0000103A24BF78C878C1FAD852078E
:1001E00024BF30C830C144BF04680C6070470000B1
:1001F0000023002400250026103A28BF78C1FBD830
:10020000520728BF30C148BF0B607047752900F006
:10021000CD80002070471FB503F0D0FD00F0E0FA5C
:1002200004000020002103F0B3FD401C60601FBDEE
:1002300010B510BD00F027FB1146FFF7ECFF03F0EF
:100240002BFD00F053FB03B4FFF7F2FF03BC00F0FB
:1002500053FB00000948804709480047FEE7FEE7D6
:10026000FEE7FEE7FEE7FEE7FEE7FEE7FEE7FEE766
:1002700004480549054A064B70470000F53100085F
:100280009901000890270020902D0020902900203F
:100290009029002053EA020C00F069802DE9F04B10
:1002A0004FF00006002B1FBFB3FA83F503FA05F4E5
:1002B00024FA05F65E4012BF1643B2FA82F502FA3E
:1002C00005F4C5F120051EBF22FA05FC44EA0C0422
:1002D000203556EA044C4FEA144418BF641C4FF012
:1002E00000084FF00009904271EB030C39D300294C
:1002F00019BFB1FA81F701FA07F6B0FA80F700FAF0
:1003000007F6C7F120071EBF20FA07FC46EA0C06D5
:100310002037B6FBF4FCA7EB0507103F07F01F0BD7
:10032000CBF120060CFA0BFB2CFA06F644BFB346C1
:100330000026202FA4BF5E464FF0000B5BEA060CA0
:1003400008BF4FF0010B19EB0B09ABFB027C48EB2C
:100350000608C01B06FB02CC0BFB03CC71EB0C01A7
:10036000C1E70B46024641464846BDE8F08B13B54F
:100370004FF000004FF00001AFF30080BDE81C40DB
:10038000704700000FB41CB5074B06AA7B446946B2
:100390000090059800F0C7F90020694600F0D6F9F2
:1003A0001CBC5DF814FB0000BD0300002DE9F0410A
:1003B0000646002410687529314616A510D0AFF303
:1003C0000080002802DA404213A507E031688A075E
:1003D00001D512A502E0490704D511A5012401E0C9
:1003E000AFF3008000210A2206F1240709E0B0FBE8
:1003F000F2FCB0FBF2F302FB1C00303078541846DC
:10040000491C0028F3D123462A463046BDE8F04176
:1004100000F02AB9000000002D0000002B000000B1
:10042000200000002DE9F0474FF0000A89460446FD
:10043000C0F820A02046E1688847002876D025280B
:1004400006D0D4E901219047206A401C2062F1E7E0
:10045000E168204600258847C4F81CA0064600270E
:10046000C4F818A02A2E09D0304603F0E3FB38B3B5
:1004700004EB8708303EC8F8186019E059F8041BEF
:10048000204604EB87029161E1688847012F064608
:1004900018D1E069002820DA25F020051DE0D8F801
:1004A000180000EB800006EB40003038C8F8180058
:1004B0002046E1688847064603F0BCFB0028EED1E1
:1004C000012F0AD02E2E08D12046E16888477F1CD4
:1004D0000646022F45F02005C4DBA069002803DA98
:1004E000404245F00105A061E80701D025F0100564
:1004F000B6B1A6F14100192802D8203645F40065AE
:100500004A463146204625604D46FFF77FFE58B1EA
:10051000012806D0ED1D25F0070000F1080989E744
:1005200004E005F1040985E730468AE7206ABDE862
:10053000F08770B5064600F093F80468054630462B
:100540000A22002100F007F92C6070BD10B5431C91
:1005500002E010F8011B71B18107FAD14FF00132AE
:1005600002C88C1A8C4314EAC211F9D0C01A0A06C8
:1005700003D0C01E10BDC01A10BD0A0401D0801ED9
:1005800010BD0902FCD0401E10BD4FF0000200B5A6
:10059000134694469646203922BFA0E80C50A0E8A6
:1005A0000C50B1F12001BFF4F7AF090728BFA0E854
:1005B0000C5048BF0CC05DF804EB890028BF40F820
:1005C000042B08BF704748BF20F8022B11F0804F62
:1005D00018BF00F8012B70474FF0013C50F8042B76
:1005E00051F8043B9A4221D1A2EB0C03934313EA46
:1005F000CC1317D150F8042B51F8043B9A4215D173
:10060000A2EB0C03934313EACC130BD150F8042B49
:1006100051F8043B9A4209D1A2EB0C03934313EA2D
:10062000CC13DBD04FF00000704700BFD01A01BAE6
:10063000B1FA81F101F0180122FA01F0CB40C1F1C9
:100640002001DBB2C0B2C01A2CFA01F3D11A9143D7
:1006500011EAC311E6D17047704770477047000038
:1006600000487047302700202DE9F0470D46994695
:100670009246044600F124080168880604D5E06922
:1006800021F01001216000E00120A84201DD471B9C
:1006900000E00027A1697A1902EB0900081AA0619D
:1006A0002078C00602D42046AFF30080002608E080
:1006B000D4E901211AF806009047206A401C761CF4
:1006C00020624E45F4DB2078C0060AD52046AFF301
:1006D000008006E0D4E9012130209047206A401CC8
:1006E0002062381EA7F10107F4DC07E0D4E90121FC
:1006F00018F805009047206A401C2062281EA5F1CA
:100700000105F3DC2046AFF300802078000602D517
:100710000220BDE8F0870120FBE7000001694A1CC8
:1007200002610878704700B58FB0CDE90131002132
:10073000059105497944CDE9031011466846FFF754
:1007400071FE0FB000BD0000E5FFFFFF0A6802F870
:10075000010B0A6070472DE9F04791460F4680462D
:100760000446002614F8015B2DB100F031F8006852
:10077000405DC007F6D12B2D02D02D2D18D0641E60
:100780004A463946204600F02FF827B13968A14281
:1007900001D1C7F800804FF0020471050BD540422B
:1007A000002803DDFFF75CFF0460A007BDE8F087C9
:1007B00046F48066E4E70028F8DAFFF751FF0460AA
:1007C0006FF00040F2E7000000487047302700203B
:1007D00010B500F005F8001D10BD00BFB5350000D4
:1007E00000487047502700202DE9F05F82461546EB
:1007F0008B4600270AF10104B9460078302801D061
:100800009DB113E014F8010B0127782803D0582874
:1008100001D045B10AE00DB1102D07D1002714F821
:10082000010B102502E0082500E00A250026B0464D
:100830000EE005FB080005FB06F101271FFA80F812
:1008400001EB1046B6F5803F00D3B94614F8010B12
:10085000294600F03DF80028EBDABBF1000F05D087
:100860000FB1641E00E05446CBF80040B9F1000F10
:1008700006D0FFF7F5FE02210160C81EBDE8F09F1B
:1008800048EA0640FAE77546FFF79EFFAE460500C8
:100890006946534620F00700854618B020B5FFF79B
:1008A000E7FCBDE820404FF000064FF000074FF096
:1008B00000084FF0000B21F00701AC46ACE8C0097E
:1008C000ACE8C009ACE8C009ACE8C0098D46704787
:1008D0003A2800D2303820F02002412A01D3A2F178
:1008E0003700884201D34FF0FF3070470446AFF322
:1008F00000802046FFF7A7FC01491820ABBEFEE7A9
:1009000026000200704700BFFEE7000010B5024855
:1009100000F0C0F810BD0000AC01002010B5024886
:1009200000F0B8F810BD00004C01002010B50248DE
:1009300000F0B0F810BD00000C02002010B500203F
:100940000349087003490860034800F0A3F810BD8C
:10095000200000201C000020AC0200200146087886
:1009600010381823B0FBF3F20848805CC865032AEE
:1009700005D908686FF30900001D886503E0086861
:100980006FF309008865886D70470000C63D000858
:10099000014600208A6A8B69CBB932B1012A0DD099
:1009A000022A03D0032A10D10EE000BFCB6A03F065
:1009B0008073B3F1807F00D1012007E0CB6AB3F1EF
:1009C000C07F00D1012001E000E000BF34E08B696E
:1009D000B3F5005F1AD132B1012A07D0022A03D041
:1009E000032A11D10AE000BF01200EE0CB6A03F018
:1009F0008073B3F1807F00D1012006E0CB6AB3F1B0
:100A0000C07F00D1012000E000BF15E032B1012A13
:100A100005D0022A04D0032A0CD103E000BF00BF96
:100A2000012008E0CB6A03F08073B3F1807F00D12E
:100A3000012000E000BF00BF704730B504682468A3
:100A400024F4802405682C60046863608468402C6A
:100A500004D10468A2600468E16003E00468A16056
:100A60000468E26030BD70477047014691F8350078
:100A7000022803D08020486501207047052081F8B6
:100A800035000868006820F001000A681060002046
:100A9000F3E70000F8B50446002000908C48006899
:100AA0004FF41651B0FBF1F7A56D2E6894F85C1069
:100AB00008208840304098B12068006800F00400A9
:100AC00070B12068006820F004002168086094F884
:100AD0005C1008208840A860606D40F001006065EF
:100AE00094F85C1001208840304068B1206840696B
:100AF00000F0800040B194F85C1001208840A860AC
:100B0000606D40F00200606594F85C10042088403D
:100B1000304068B12068006800F0020040B194F8ED
:100B20005C1004208840A860606D40F0040060659F
:100B300094F85C1010208840304078B3206800683A
:100B400000F0080050B394F85C1010208840A860B2
:100B50002068006800F4802080B12068006800F4FC
:100B6000002028B9206CC8B12046216C884715E0C8
:100B7000A06C98B12046A16C88470FE020680068FF
:100B800000F4807028B92068006820F0080021680F
:100B90000860206C10B12046216C884794F85C10E6
:100BA000202088403040002865D02068006800F090
:100BB000100000285FD094F85C1020208840A860C6
:100BC00094F83500052828D12068006820F0160028
:100BD000216808602068406920F080002168486131
:100BE000206C08B9A06C28B12068006820F00800CB
:100BF0002168086094F85C103F208840A86000BF1E
:100C0000002084F8340000BF012084F83500206DF6
:100C100010B12046216D8847F8BD2068006800F4B7
:100C2000802080B12068006800F4002028B9606C42
:100C300010B12046616C88471DE0E06BD8B12046BA
:100C4000E16B884717E02068006800F4807068B99D
:100C50002068006820F010002168086000BF0020B4
:100C600084F8340000BF012084F83500E06B10B137
:100C70002046E16B8847606D38B3606D00F001007D
:100C8000F0B1052084F835002068006820F00100EC
:100C90002168086000BF0098401C0090B84200D94D
:100CA00005E02068006800F001000028F3D100BFD3
:100CB00000BF002084F8340000BF012084F8350014
:100CC000E06C10B12046E16C884700BFA4E700004B
:100CD000980000202DE9F0410446002500F0AAF913
:100CE000074614B90120BDE8F081606A00B100BF79
:100CF00000BF002084F8340000BF022084F83500D3
:100D00002068006820F00100216808600AE000F017
:100D100091F9C01B052805D920206065032084F8BF
:100D20003500E0E72068006800F001000028EED1FF
:100D30002068056821480540D4E901010843E168BD
:100D400008432169084361690843A1690843E169CF
:100D50000843216A08430543606A042803D1D4E9A3
:100D60000B0108430543206805602068456925F0AC
:100D70000705606A0543606A04280DD1A06A05432F
:100D8000E06A48B12046FFF703FE28B140206065C5
:100D9000012084F83500A6E7206845612046FFF76A
:100DA000DDFD064694F85C103F208840B0600020CE
:100DB0006065012084F83500002094E73F8010F042
:100DC0002DE9F04704460D4616461F464FF0000831
:100DD000D4F8589000BF94F83400012802D10220C2
:100DE000BDE8F087012084F8340000BF94F8350096
:100DF000012825D1022084F83500002060653B469B
:100E0000324629462046FFF718FE94F85C103F2032
:100E10008840C9F808002068006840F01600216882
:100E20000860206C28B12068006840F00800216844
:100E300008602068006840F001002168086006E052
:100E400000BF002084F8340000BF4FF00208404685
:100E5000C6E70000F8B503460A4600250024002036
:100E60000021CDE0012606FA01F5166806EA050420
:100E7000AC4273D15668012E08D05668022E05D0B8
:100E80005668112E02D05668122E13D198684F0062
:100E90000326BE40B0434F00D668BE403043986042
:100EA000586801268E40B0431679C6F300168E406E
:100EB00030435860D8684F000326BE40B0434F000F
:100EC0009668BE403043D8605668022E02D05668FD
:100ED000122E13D1CF0803F1200656F827004E0733
:100EE000F70E0F26BE40B0434F07FF0E1669BE40F7
:100EF0003043CF0803F1200646F8270018684F005A
:100F00000326BE40B043167906F003064F00BE40EC
:100F100030431860566806F08056B6F1805F6ED197
:100F200000BF00260096384E366846F48046364F9D
:100F30003E603E46366806F48046009600BF00BF1D
:100F4000324E8F0856F827008E07370F0F26BE4007
:100F5000B0432F4EB34202D1002615E04FE02D4E94
:100F6000B34201D101260FE02B4EB34201D102263C
:100F70000AE02A4EB34201D1032605E0284EB342CF
:100F800001D1042600E007268F073F0FBE40304303
:100F90001E4E8F0846F82700224E3068A043566840
:100FA00006F48036B6F5803F00D120431D4E3060F8
:100FB000361D3068A043566806F40036B6F5003F8B
:100FC00000D12043174E361D3060361D3068A043D7
:100FD000566806F48016B6F5801F00D12043114EE6
:100FE00008363060361D3068A043566806F4001697
:100FF000B6F5001F00D120430A4E0C363060491C64
:101000001029FFF42FAFF8BD4438024008380140E2
:10101000000002400004024000080240000C0240B0
:1010200000100240003C01400AB1816101E00B0464
:101030008361704701480068704700008C00002001
:10104000034800680349097808440149086070476B
:101050008C0000209400002010B50D48006840F47A
:1010600000700B4908600846006840F48060086022
:101070000846006840F480700860032000F0A2F881
:10108000002000F007F800F02BF8002010BD000051
:10109000003C024070B504460E4800784FF47A7167
:1010A000B1FBF0F00C490968B1FBF0F5284600F0FF
:1010B00045FD08B1012070BD102C07D20022214649
:1010C000501E00F041F80548046001E00120F2E7FD
:1010D0000020F0E7940000209800002090000020FD
:1010E00008B500BF002000900E48006840F4804022
:1010F0000C4908600846006800F48040009000BF7A
:1011000000BF00BF00200090081F006840F0805022
:10111000091F08600846006800F08050009000BF7A
:1011200000BF08BD4438024001460846002809DBDC
:1011300000F01F0301229A4043099B0003F1E023C2
:10114000C3F8002100BF70472DE9F05F80460D46CF
:101150001646002702F052FD074639462A46334616
:1011600001F00700C0F1070ABAF1040F02D94FF0ED
:10117000040A01E0C0F1070AD14600F1040ABAF1FD
:10118000070F02D24FF0000A01E0A0F1030AD44693
:101190004FF0010A0AFA09FAAAF1010A0AEA020A58
:1011A0000AFA0CFA4FF0010B0BFA0CFBABF1010B36
:1011B0000BEA030B4AEA0B042146404602F026FDE7
:1011C000BDE8F09F00BF00F00702064B19684FF61C
:1011D000FF031940044B0B4343EA0221014B196002
:1011E00000BF70470CED00E00000FA0570B5044642
:1011F0000D460CB9012070BD5848006800F00F0082
:10120000A84209D255490D700846006800F00F0049
:10121000A84201D00120EEE7207800F00200022869
:101220001DD1207800F00400042805D14C48006846
:1012300040F4E0504A490860207800F0080008288F
:1012400005D14748006840F460404549086044487B
:10125000006820F0F000A168084341490860207848
:1012600000F00100A8B36068012807D13C480838A5
:101270000068C0F34040B8B90120BCE760680228AC
:1012800002D06068032807D1354808380068C0F3E9
:10129000406048B90120AEE7314808380068C0F323
:1012A000400008B90120A6E72D48006820F003009F
:1012B000616808432A490860FFF7BCFE064609E05A
:1012C000FFF7B8FE801B41F28831884202D9032023
:1012D00091E707E02248006800F00C006168B0EB7D
:1012E000810FEDD11D48006800F00F00A84209D918
:1012F0001A490D700846006800F00F00A84201D09E
:10130000012078E7207800F00400042807D1144871
:10131000006820F4E050E168084311490860207833
:1013200000F00800082808D10D48006820F460404B
:10133000216940EAC1000A49086000F03FF8084905
:101340000968C1F30311074A515CC84006490860A7
:1013500006480068FFF79EFE00204CE7003C024074
:1013600008380240CE3D0008980000209000002080
:1013700001480068704700009800002000B5FFF7A2
:10138000F7FF04490968C1F38221034A515CC84050
:1013900000BD000008380240DE3D000800B5FFF740
:1013A000E7FF04490968C1F34231034A515CC84070
:1013B00000BD000008380240DE3D00082DE9F0477E
:1013C000002400250026A1462548006800F00C00F6
:1013D00020B1042805D008283AD105E0DFF8849030
:1013E00039E0DFF8849036E01D48001F006800F007
:1013F0003F041B48001F006800F4800078B11A48C1
:101400001749091F0968C1F38811A0FB0170014643
:10141000224600233846FEF73DFF05460EE0114800
:101420000F49091F0968C1F38811A0FB017001462B
:10143000224600233846FEF72DFF05460848001FC8
:101440000068C0F30140401C4600B5FBF6F902E01D
:10145000DFF8109000BF00BF4846BDE8F0870000ED
:10146000083802400024F40040787D01F8B50446B5
:101470000CB90120F8BD207800F00100002874D0DC
:10148000F948006800F00C0004280DD0F648006808
:1014900000F00C00082813D1F348001F006800F486
:1014A0008000B0F5800F0BD1EF4808380068C0F31A
:1014B0004040002859D06068002856D10120D9E763
:1014C00000BF6068B0F5803F08D1E7480838006881
:1014D00040F48030E449083908601EE06068B0F5E7
:1014E000A02F0DD1E0480838006840F48020DE4984
:1014F000083908600846006840F4803008600CE055
:10150000D9480838006820F48030D7490839086085
:101510000846006820F48020086000BF606890B131
:10152000FFF788FD054606E0FFF784FD401B6428B1
:1015300001D903209EE7CC4808380068C0F340403A
:101540000028F1D011E0FFF775FD054606E0FFF732
:1015500071FD401B642801D903208BE7C24808387D
:101560000068C0F340400028F1D1207800F002006C
:1015700002285FD1BC48006800F00C0058B1BA489E
:10158000006800F00C0008281CD1B748001F006854
:1015900000F48000B0B9B44808380068C0F34000D7
:1015A00020B1E068012801D0012063E7AE48083887
:1015B000006820F0F800216940EAC100AA49083912
:1015C000086037E0E06800B30120A8490860FFF731
:1015D00031FD054606E0FFF72DFD401B022801D92D
:1015E000032047E7A04808380068C0F340000028FF
:1015F000F1D09D480838006820F0F800216940EAE1
:10160000C10099490839086014E000209749086032
:10161000FFF710FD054606E0FFF70CFD401B022812
:1016200001D9032026E7904808380068C0F340003D
:101630000028F1D1207800F0080008282CD160693A
:10164000A8B101208A490860FFF7F4FC054606E0CE
:10165000FFF7F0FC401B022801D903200AE782486B
:101660006C300068C0F340000028F1D014E0002086
:101670007F490860FFF7DEFC054606E0FFF7DAFC6D
:10168000401B022801D90320F4E677486C3000683B
:10169000C0F340000028F1D1207800F004000428B5
:1016A00070D1002770483830006800F0805090B941
:1016B00000BF002000906C483830006840F0805037
:1016C0006949383108600846006800F08050009091
:1016D00000BF00BF01276748006800F48070B0B900
:1016E0006448006840F4807062490860FFF7A2FC1B
:1016F000054606E0FFF79EFC401B022801D90320A7
:10170000B8E65C48006800F480700028F2D000BFA2
:10171000A068012808D154486830006840F00100F2
:101720005149683108601DE0A06805280DD14E4878
:101730006830006840F004004B4968310860084692
:10174000006840F0010008600CE04748683000681D
:1017500020F001004449683108600846006820F024
:101760000400086000BFA068A8B1FFF763FC05464D
:1017700009E0FFF75FFC401B41F28831884202D943
:10178000032077E626E0384868300068C0F3400060
:101790000028EED013E0FFF74DFC054608E0FFF708
:1017A00049FC401B41F28831884201D9032061E69F
:1017B0002D4868300068C0F340000028EFD1012FA9
:1017C00007D129483830006820F080502649383148
:1017D000086000BFA069002845D02348006800F0D9
:1017E0000C0008285DD0A069022845D100201F49BF
:1017F0000866FFF71FFC054606E0FFF71BFC401BD1
:10180000022801D9032035E6174808380068C0F3DC
:1018100040600028F1D1D4E907010843616A40EA39
:1018200081110122A06AC2EB500041EA00412C2044
:10183000005D41EA00600C49091F086001200B4966
:101840000866FFF7F7FB054606E0FFF7F3FB401BD2
:10185000022801D903200DE6034808380068C0F3C8
:1018600040600028F1D03FE00838024000004742C5
:10187000800E47420070004000201C490866FFF7B8
:10188000D9FB054606E0FFF7D5FB401B022801D92E
:101890000320EFE516480068C0F340600028F2D14D
:1018A00022E0A069012800D1E4E51148083006686B
:1018B00006F48001E069814214D106F03F01206AFC
:1018C00081420FD147F6C0703040616A884209D129
:1018D00006F44031A06A814204D106F07061E06AEA
:1018E000814201D00120C5E50020C3E50000474248
:1018F0000038024010B504460CB9012010BD606AE2
:1019000000B900BF0021A16294F8510028B900205D
:1019100084F85000204600F033F8022084F851008B
:101920002068006820F0400021680860D4E90101C7
:101930000843E16808432169084361690843218B32
:1019400001F400710843E1690843216A0843A16A70
:101950000843216808600421A06901EA1040616A17
:101960000843216848602068C06920F4006021684D
:10197000C86100206065012084F851000020BDE7A7
:1019800010B586B00446142101A8FEF7FEFD624999
:10199000206888426AD100BF002000905F4800683C
:1019A00040F480405D4908600846006800F48040CB
:1019B000009000BF00BF00BF0020009057481038C3
:1019C000006840F002005549103908600846006878
:1019D00000F00200009000BF00BF4FF47040019083
:1019E000022002900020039003200490052005901F
:1019F00001A94B48FFF72EFA4A484B4908600020DE
:101A000048604021484881600021C1604FF48061F6
:101A10000161002141618161C16101624162FFF7A1
:101A200059F908B1FFF720F800BF3F48A06484636C
:101A300000BF3C4818383D4908600020486000213C
:101A40003A488160C1604FF48061016100214161C9
:101A50008161C16101624162FFF73CF908B1FFF7A2
:101A600003F800BF3148E064846352E030492068E5
:101A700088424ED100BF002000902848006840F402
:101A80000040264908600846006800F400400090C5
:101A900000BF00BF00BF0020009020481038006841
:101AA00040F004001D49103908600846006800F045
:101AB0000400009000BF00BF4FF4E05001900220EE
:101AC000029000200390032004900620059001A9B5
:101AD0001848FFF7BFF9134818301749086000206D
:101AE00048604021144881600021C1604FF480614A
:101AF0000161002141618161C16101624162FFF7C1
:101B0000E9F808B1FEF7B0FF00BF0B48A06484639A
:101B100000BF06B010BD0000003800404038024051
:101B200000040240706002404C010020AC01002023
:101B3000003C0040000802400C02002070B5044642
:101B40002546681EB0F1807F01D301200FE0681E9A
:101B50004FF0E02148610F214FF0FF3002F056F8BE
:101B600000204FF0E021886107200861002070BD4F
:101B700010B50346002200BF93F83C00012801D1B4
:101B8000022010BD012083F83C0000BF22F0FF00BE
:101B9000CC6840EA040222F440708C6840EA0402F7
:101BA00022F480604C6840EA040222F400600C6871
:101BB00040EA040222F480500C6940EA040222F454
:101BC00000504C6940EA040222F48040CC6940EAAB
:101BD00004021868426400BF002083F83C0000BF84
:101BE00000BFCEE730B502460B4600BF92F83C007E
:101BF000012801D1022030BD012082F83C0000BF45
:101C0000022082F83D00106844681068816824F062
:101C100070041868044310684460144D1068A842AA
:101C200013D01068B0F1804F0FD0114D1068A8424A
:101C30000BD0104D1068A84207D00F4D1068A84275
:101C400003D00E4D1068A84205D121F080015868DC
:101C5000014310688160012082F83D0000BF002030
:101C600082F83C0000BF00BFC5E700000000014053
:101C70000004004000080040000C0040004001400B
:101C800010B504460CB9012010BD94F83D0028B9E8
:101C9000002084F83C00204600F00CF8022084F874
:101CA0003D00211D206801F0B3FA012084F83D00B9
:101CB0000020E9E708B50A4A016891420FD100BF48
:101CC000002100910749096841F00101054A1160AE
:101CD0001146096801F00101009100BF00BF08BD75
:101CE00000000140443802402DE9F04104460D4611
:101CF00000BF94F83C00012802D10220BDE8F08129
:101D0000012084F83C0000BF022084F83D002068D8
:101D1000866826F0770626F47F4620688660286865
:101D2000502833D00CDC202850D004DC00284BD0C5
:101D3000102851D149E0302849D040284CD139E011
:101D400060282DD0702807D0B0F5805F03D0B0F5A3
:101D5000005F41D10DE040E0D5E902136A682068D8
:101D600001F0B9FA2068866846F077062068866038
:101D700033E0D5E902136A68206801F0ACFA206804
:101D8000806840F480402168886026E0EA686968DD
:101D9000206801F071FB5021206801F0A7FA1CE0D7
:101DA000EA686968206801F07AFB6021206801F028
:101DB0009DFA12E0EA686968206801F05DFB402145
:101DC000206801F093FA08E000BF00BF00BF296857
:101DD000206801F08BFA00E000BF00BF012084F80A
:101DE0003D0000BF002084F83C0000BF00BF85E735
:101DF00010B586B00446142101A8FEF7C6FB1249AF
:101E0000206888421DD100BF002000900F48006864
:101E100040F010000D4908600846006800F010000E
:101E2000009000BF00BF4FF420600190022002909C
:101E30000020039004900120059001A90448FFF7B9
:101E400009F806B010BD0000000001403038024023
:101E50000010024070B504460D46164600BF94F8C7
:101E60003C00012801D1022070BD012084F83C0013
:101E700000BF022084F83D0036B1042E1BD0082E8E
:101E800031D00C2E5ED145E02946206801F038FAA9
:101E90002068806940F008002168886120688069B6
:101EA00020F004002168886120688069296908435E
:101EB0002168886147E02946206801F051FA2068CE
:101EC000806940F40060216888612068806920F49E
:101ED00080602168886120688069296940EA012062
:101EE000216888612FE02946206801F06DFA20689A
:101EF000C06940F008002168C8612068C06920F00E
:101F000004002168C8612068C06929690843216804
:101F1000C86118E02946206801F08AFA2068C06983
:101F200040F400602168C8612068C06920F48060C6
:101F30002168C8612068C069296940EA01202168D8
:101F4000C86100E000BF00BF012084F83D0000BF71
:101F5000002084F83C0000BF00BF85E710B50446B0
:101F60000CB9012010BD94F83D0028B9002084F878
:101F70003C00204600F00CF8022084F83D00211DB2
:101F8000206801F045F9012084F83D000020E9E7D0
:101F90007047000070B504460E46012231462068A5
:101FA00001F088F90D492068884201D1012000E044
:101FB000002028B12068406C40F40040216848644B
:101FC0002068806800F00705062D05D020680068AD
:101FD00040F0010021680860002070BD0000014051
:101FE000704701460022002391F8392091F83A30D9
:101FF00042EA0300704700002DE9F04704462068DC
:1020000005682068C668206847694FF00008C14627
:1020100005F00F08B8F1000F0AD105F0200038B123
:1020200006F0200020B1204601F030FBBDE8F0872B
:10203000B8F1000F72D007F0010018B906F49070E3
:1020400000286BD005F0010030B106F4807018B1A3
:10205000E06B40F00100E06305F0040030B107F0F0
:10206000010018B1E06B40F00200E06305F00200EF
:1020700030B107F0010018B1E06B40F00400E063FC
:1020800005F0080048B106F0200010B907F0010083
:1020900018B1E06B40F00800E063E06B70B305F04E
:1020A000200028B106F0200010B1204601F0EEFA21
:1020B00020684069C0F38019E06B00F0080010B997
:1020C000B9F1000F23D0204601F0B6FA206840692C
:1020D00000F04000402816D12068406920F0400000
:1020E00021684861606B50B11748616B0865606B8F
:1020F000FEF7BBFC10B1606B016D88470CE0204619
:10210000FFF76EFF08E02046FFF76AFF04E0204675
:10211000FFF766FF0020E06388E7FFE705F0800037
:1021200030B106F0800018B1204601F0F7FC7DE7E1
:1021300005F0400030B106F0400018B1204601F033
:102140008BFA73E700BF71E72D35000810B5044620
:102150000CB9012010BDA06900B100E000BF94F8E7
:10216000390028B9002084F83800204600F028F80B
:10217000242084F839002068C06820F400502168C9
:10218000C860204601F0D6FA2068006920F490402B
:10219000216808612068406920F02A0021684861B0
:1021A0002068C06840F400502168C8600020E063E7
:1021B000202084F8390084F83A000020CAE70000A3
:1021C00010B586B00446142101A8FEF7DEF92E49A9
:1021D0002068884256D100BF002000902B4800683C
:1021E00040F01000294908600846006800F010001F
:1021F000009000BF00BF00BF0020009023481438AB
:10220000006840F001002149143908600846006860
:1022100000F00100009000BF00BF4FF4C0600190CB
:1022200002200290012003900320049007200590D3
:1022300001A91748FEF70EFE1648174908604FF02F
:10224000006048604021144881600021C1604FF463
:1022500080610161002141618161C161016241626E
:10226000FEF738FD08B1FEF7FFFB00BF0A48206308
:10227000846300BF002211462520FEF765FF25205C
:10228000FEF752FF06B010BD001001404438024076
:1022900000000240B8640240AC02002010B50346C2
:1022A00093F83A0020282FD101B10AB9012010BDBE
:1022B00000BF93F83800012801D10220F7E7012080
:1022C00083F8380000BF99629A85DA850020D863C8
:1022D000222083F83A0000BF002083F8380000BFB6
:1022E0001868C06840F480701C68E0601868406935
:1022F00040F001001C6860611868C06840F0200070
:102300001C68E0600020D2E70220D0E710B5044648
:1023100010490978104A1068421C0F4B1A600F4A86
:10232000115418460068402802D100201946086060
:102330000B480068401C0A490860402804D100206E
:102340000860012007490870012202490648FFF78A
:10235000A5FF10BD18000020240000204C23002001
:102360002C000020300000206C020020F7B504464D
:10237000154694F8390020283DD1019800B10DB9D7
:102380000120FEBD00BF94F83800012801D10220D1
:10239000F7E7012084F8380000BF01982062A58487
:1023A000E5840020E063212084F839001348216B84
:1023B000C8631348216B08641248216BC86400206D
:1023C000216B086501AE23681A1D31682B46206B0E
:1023D000FEF7F6FC6FF040002168086000BF0020A7
:1023E00084F8380000BF2068406940F08000216810
:1023F00048610020C5E70220C3E7000091350008CE
:10240000C7350008413500087047704700BFFEE738
:1024100070B505460024FE480488008818B928468F
:1024200001F030FC04460020F9490880F9490860B1
:10243000F9480088322803D8F84800889D2828D910
:102440000020F7490870F4490880F6490860F64909
:102450000870F6490870F64908600120F5490860DF
:10246000F54908600020F5490870F5490870F549FC
:102470000870F5490860F54908602020F4490870A3
:10248000F44908700020F4490870F4490870E349E1
:1024900008802CE1DF480068285C7E282DD1E048C8
:1024A0000078002829D10120DD4908700020DA4990
:1024B0000880DC490860DC490870DC490870DC49A8
:1024C00008600120DB490860DB4908600020DB4927
:1024D0000870DB490870DB490870DB490860DB499C
:1024E00008602020DA490870DA4908700020DA49CB
:1024F0000870DA490870C9490880C6480068285C35
:10250000D749C84A12688854C4480088401CC34947
:102510000880D348C3490968405C3B280ED1CF48A6
:10252000007858B9BE480078012807D10020BC497E
:1025300008700120BD490870C7490870C848B949EA
:102540000968405C3D2805D0C548B6490968405C2B
:102550003A2807D1B948007820B90120B749087056
:10256000BD490870BE48AF490968405C2E280AD1B1
:10257000B348007838B9B948007820B90120B0498B
:102580000870B5490870B648A6490968405C242817
:1025900008D1AC48007828B90220AA490870012067
:1025A000AD4908709F48006802286AD9AC48807815
:1025B000202866D1A8480078002862D1A148007878
:1025C00002285ED29D480078012807D0A44895498A
:1025D0000968405CA349964A126888549748007875
:1025E00001280AD19648007838B99D488D49096874
:1025F000415C97488F4A12688154904800780128BE
:102600000BD18F480078012807D195488549096882
:10261000405C9049884A12688854884800780128AC
:1026200009D08348006820282BD281480068401CCC
:102630007F49086025E081480078012810D1804852
:10264000007868B97B480068C82809D279480068D2
:10265000401C784908607D480068401C7B49086040
:102660007648007801280CD175480078012808D1F7
:1026700071480068C82804D26F480068401C6E4941
:1026800008607048007802280BD17348007840B980
:10269000734864490968405C6B49086001206949D6
:1026A00008706A48006868490968884206D2654827
:1026B0000078012802D16949087002E000206749CA
:1026C000087058480068C82804D256480068401C62
:1026D000544908604F480068C82804D24D48006833
:1026E000401C4C490860641E00205B490870002CA7
:1026F0007FF4D0AE4D48007801287DD1584800784D
:102700007E2805D14848007840F00100464908700D
:102710005348407854490978884205D142480078A6
:1027200040F00200404908703F480078032822D159
:102730004EA14C48FDF750FF48B94EA000F0C4FE32
:1027400050A000F0C1FE002000F000FB13E04EA1FD
:102750004448FDF741FF70B93D48FDF7EAFE4E4998
:1027600008603C48FDF7E5FE4C4908604A480168AE
:102770004BA001F0F5FA002403E000203949085588
:10278000641C202CF9D3002403E0002030490855B4
:10279000641CC82CF9D3002403E000202D490855FF
:1027A000641CC82CF9D3002403E000202C490855F0
:1027B000641CC82CF9D300201749088018490870F8
:1027C0001849086018490870002418490870184909
:1027D00008601849086019490870174908601849C5
:1027E00008700C49086017490870174908601749B4
:1027F00008601949087000E009E0184908702020B5
:10280000134908701349087000200449088053E0F8
:1028100044000020500000206E00002046000020F0
:102820004E000020480000204C0000204D000020F9
:1028300054000020580000205C00002064000020AC
:102840006500002066000020600000206800002075
:102850005E250020262600206D0000206C00002050
:10286000752400203E2500203D00002068656C7026
:1028700000000000EFF0E8EDFFEB2068656C700DE4
:10288000000000000D000000637573746F6D5F70D1
:1028900068795F77720000008400002080000020CB
:1028A000EFF0E8EDFFEB20637573746F6D5F706898
:1028B000795F77723A00000005480078012804D15A
:1028C00004480078012800D100BF0348006870BDAB
:1028D0004D0000204C0000208000002010B534483E
:1028E0000068C82826D233480068F8B900224FF49F
:1028F00000513148FEF798FB012291032E48FEF764
:1029000093FB00224FF400412B48FEF78DFB012082
:10291000284908600020294908602948007830B11A
:10292000274800784006000E2549087002E0012083
:10293000234908701E480068B0F5C87F19D91F48A0
:102940000068B0B900224FF400511B48FEF76CFB41
:1029500000224FF480411848FEF766FB0122D103A4
:102960001548FEF761FB0120144908600020114959
:1029700008600F480068B0F5487F10D90122510364
:102980000D48FEF751FB00224FF480410A48FEF744
:102990004BFB00224FF400410748FEF745FB04487B
:1029A0000068B0F57A7F02D900200149086010BDA7
:1029B0001000002008000020000802400C00002049
:1029C0008800002008B500BF002000901E48006865
:1029D00040F400101C4908600846006800F400102C
:1029E000009000BF00BF00BF0020009008460068B4
:1029F00040F4800008600846006800F48000009001
:102A000000BF00BF002211460E20FEF79DFB0E20E6
:102A1000FEF78AFB002211460F20FEF795FB0F20E0
:102A2000FEF782FB002211461020FEF78DFB1020DE
:102A3000FEF77AFB002211464620FEF785FB462072
:102A4000FEF772FB08BD00003038024000B587B0C9
:102A5000142102A8FDF799FD00BF002001904A480B
:102A6000006840F00400484908600846006800F02B
:102A70000400019000BF00BF00BF00200190084685
:102A8000006840F0100008600846006800F0100080
:102A9000019000BF00BF00BF002001900846006801
:102AA00040F0020008600846006800F00200019053
:102AB00000BF00BF00BF002001900846006840F042
:102AC000080008600846006800F00800019000BF98
:102AD00000BF00BF002001900846006840F00100E0
:102AE00008600846006800F00100019000BF00BFC8
:102AF00000224FF460412548FEF796FA002201219A
:102B00002348FEF791FA002220212248FEF78CFA92
:102B10004FF4604002900120039000200490059043
:102B200002A91A48FEF796F94FF4204002900020BF
:102B30000390049002A91648FEF78CF94FF4C06088
:102B400002900220039000200490032005900720AB
:102B5000069002A91048FEF77DF90120029003902B
:102B600000200490059002A90948FEF773F920207F
:102B700002900120039000200490059002A90548CE
:102B8000FEF768F907B000BD303802400008024087
:102B9000000C0240000402400000024010B50E4844
:102BA0000E4908604FF48270486000210B48816034
:102BB000C160016141614FF4802181612021C161C7
:102BC00000210162416281620A21C162FEF792FE28
:102BD00008B1FDF749FF10BD003800409C000020FF
:102BE00010B50E480E4908604FF48270486000210D
:102BF0000B488160C160016141614FF400718161E6
:102C00002021C16100210162416281620A21C16209
:102C1000FEF770FE08B1FDF727FF10BD003C004035
:102C2000F400002000B595B0002011901290139090
:102C300014900F9010901C2108A8FDF7A6FC2021ED
:102C40006846FDF7A2FC30483049086040F2CF707A
:102C5000486000212D4881604CF24F31C160002155
:102C6000016141618161FFF70BF808B1FDF7FCFEDE
:102C70004FF48050119011A92448FFF735F808B19E
:102C8000FDF7F2FE2148FFF769F908B1FDF7ECFE08
:102C900000200F9010900FA91C48FEF7A3FF08B169
:102CA000FDF7E2FE6020089042F2107009900020CB
:102CB0000A900B900C900D900E90002208A91348DA
:102CC000FFF7C8F808B1FDF7CFFE042208A90F48A6
:102CD000FFF7C0F808B1FDF7C7FE00200090019093
:102CE0000290039004904FF400500590002007904C
:102CF00069460648FEF73CFF08B1FDF7B5FE0348FC
:102D0000FFF776F815B000BD000001400C0300206D
:102D100010B50B480B4908604FF4E13048600021C2
:102D200008488160C16001610C214161002181611D
:102D3000C161FFF70BFA08B1FDF796FE10BD000068
:102D4000001001406C02002000BFFEE770B5054690
:102D5000002403E037A000F0B7FB641C142CF9DB5F
:102D6000002403E034A000F0AFFB641C142CF9DB5A
:102D700030A000F0A9FB31A000F0A6FB2DA000F0D0
:102D8000A3FB3AA000F0A0FB3AA000F09DFB3CA002
:102D900000F09AFB42A000F097FB46A000F094FBE5
:102DA00049A000F091FB4DA000F08EFB50A000F078
:102DB0008BFB5BA000F088FB63A000F085FB6CA0A0
:102DC00000F082FB71A000F07FFB76A000F07CFB9E
:102DD00079A000F079FB81A000F076FB884800F034
:102DE00073FB88A000F070FB8BA000F06DFB8FA040
:102DF00000F06AFB92A000F067FB96A000F064FB75
:102E00009BA000F061FBA1A000F05EFB09A000F018
:102E10005BFB08A000F058FBA8A000F055FB05A044
:102E200000F052FB03A000F04FFB02A000F04CFBAF
:102E300070BD00000D0000002D0000002E2E2E2E73
:102E40002E2E2E2E2E2E5465726D696E616C20D240
:102E5000E5F1F2EEE2EEE920EFEBE0F2FB2E2E2EB2
:102E60002E2E2E2E2E2E0D0A000000004D454E5502
:102E7000203A0D002D2D2D2D2D2D2D0D00000000A3
:102E8000D0E0F1F8E8F4F0EEE2EAE020F1F2F0F35D
:102E9000EAF2F3F0FB20EAEEECE0EDE4FB3A0D00A1
:102EA0007E202D20F1F2E0F0F2EEE2FBE920E1E0FD
:102EB000E9F20D0031202D20E0E4F0E5F120E0E121
:102EC000EEEDE5EDF2E00D003B2D20EAEEEDE5F64E
:102ED00020EFE0F7EAE8200D000000002E2E2E2E55
:102EE0002E2E2E2E2E2E2E2E2E2E200D00000000E9
:102EF0002D2D2D2D2D2D2D2D2D2D2D2D2D2D2D2D02
:102F00002D2D2D2D2D2D2D2D2D2D2D2D2D2D2D2DF1
:102F10002D2D2D2D2D2D2D2D2D2D2D2D2D0D0A0051
:102F2000495020203A3139322E3136382E312E3167
:102F30003633202D20495020E0E4F0E5F120202018
:102F400020E1EBEEEAE00D00504F52543A323035BA
:102F500034202020202020202020202D20EDEEECE9
:102F6000E5F020EFEEF0F2E020E1EBEEEAE00D001C
:102F70007E302068656C703B202D20F2E5EAF3F985
:102F8000E5E520ECE5EDFE0D000000007E30206957
:102F90006E666F3B202D20E8EDF4EEF0ECE0F6E8F5
:102FA000FF200D007E3020646163315F696E6974BB
:102FB0003B202D200D0000007E3020646163315FD6
:102FC000723A303B2020202D20F7F2E5EDE8E52095
:102FD000F0E5E3E8F1F2F0E00D0000007E3020645F
:102FE0006163315F773A302E303B202D20E7E0EFF0
:102FF000E8F1FC20F0E5E3E8F1F2F0E00D0000007C
:10300000E83D00087E3020646163315F696E666F61
:103010003A303B200D0000007E3020646163315F58
:10302000696E69743A303B200D0000007E302064E8
:103030006163315F7068795F77723A303B200D00D1
:103040007E3020646163315F7068795F696E666F9E
:103050003B200D007E30206C6D6B5F73796E633B9F
:10306000202D2073796E6320EDE0204C4D4B0D0038
:103070007E3020696E69745F6C6D6B3B202D20691A
:103080006E697420EDE0204C4D4B0D002D2D2D2D43
:103090002D2D2D2D2D2D2D2D2D2D2D2D2D2D2D2D60
:1030A0002D2D2D2D2D2D2D2D2D2D2D2D2D2D2D2D50
:1030B0002D2D2D2D2D2D2D0D000000002B2B2B2B1C
:1030C0002B2B2B2B2B2B2B2B2B2B2B2B2B2B2B2B50
:1030D0000D000000704770477047000010B5FDF705
:1030E000AFFF1148006820B10F480068401E0E492C
:1030F00008600E480068401C0C4908600C480068D5
:10310000401C0B4908600B480068401C09490860D6
:1031100009480068401C0849086008480088401CAD
:103120000649088010BD0000140000201C0000208B
:103130001000002000000020040000206E0000208D
:1031400000B593B0302107A8FDF71FFA142102A89B
:10315000FDF71BFA00BF002001902448006840F0F2
:103160008050224908600846006800F080500190B5
:1031700000BF00BF00BF002001901D48006840F460
:1031800040401B4908600846006800F44040019038
:1031900000BF00BF0220079001200A9010200B9072
:1031A00002200D9000210E9108210F9164211091B1
:1031B000022111910421129107A8FEF757F908B1D5
:1031C000FDF752FC0F200290022003900020049093
:1031D0004FF48050059000200690032102A8FEF7CE
:1031E00005F808B1FDF740FC13B000BD40380240BF
:1031F000007000400548006840F470000349086012
:103200004FF00060014980390860704788ED00E0A8
:1032100010B50268204B98420BD0B0F1804F08D017
:103220001E4B984205D01E4B984202D01D4B98422F
:1032300003D122F070024B681A43174B984214D006
:10324000B0F1804F11D0154B98420ED0144B9842DC
:103250000BD0144B984208D0134B984205D0134B17
:10326000984202D0124B984203D122F44072CB68AC
:103270001A4322F080034C6943EA040202608B681F
:10328000C3620B688362044B984201D10B690363EC
:103290000123436110BD0000000001400004004014
:1032A00000080040000C0040004001400044014084
:1032B0000048014030B501F01F05012404FA05F370
:1032C000046A9C430462046A01F01F0502FA05F5D2
:1032D0002C43046230BD30B50C46816821F47F4137
:1032E00042EA032525432943816030BD0A468168AF
:1032F00021F0700142F0070319438160704700001C
:1033000030B5056A25F001050562026A43688469E3
:1033100024F0700424F003040D682C4322F0020210
:103320008D682A430D4DA84206D100BF22F0080245
:10333000CD682A4322F00402084DA84207D123F4A5
:10334000807323F400734D692B438D692B434360D5
:1033500084614D684563026230BD00000000014099
:1033600030B5056A25F010050562026A4368846974
:1033700024F4E04424F440740D6844EA052422F067
:1033800020028D6842EA05120E4DA84207D100BF07
:1033900022F08002CD6842EA051222F04002094D77
:1033A000A84209D123F4806323F400634D6943EA02
:1033B00085038D6943EA8503436084614D688563B5
:1033C000026230BD0000014030B5056A25F4807509
:1033D0000562026A4368C46924F0700424F003049F
:1033E0000D682C4322F400728D6842EA05220F4DCD
:1033F000A84207D100BF22F40062CD6842EA05224C
:1034000022F48062094DA84209D123F4805323F4A9
:1034100000534D6943EA05138D6943EA0513436080
:10342000C4614D68C563026230BD00000000014008
:1034300030B5056A25F480550562036A4468C2699F
:1034400022F4E04222F440720D6842EA052223F49D
:1034500000538D6843EA0533064DA84204D124F495
:1034600080444D6944EA85144460C2614D68056436
:10347000036230BD0000014030B50B461446026ABD
:10348000056A25F001050562816921F0F00141EA34
:10349000041122F00A021A438161026230BD30B584
:1034A0000B461446056A25F0100505628169026A1B
:1034B00021F4704141EA043122F0A00242EA0312F1
:1034C0008161026230BD000070B50646002500240F
:1034D0001348007810BB3046FDF738F885B2114824
:1034E0000088284441F6FB71884202D900200D492A
:1034F00008800C48048807E00A480088201A305CDD
:1035000009490855601C84B2064800882844A04236
:10351000F2DC0448008828440249088070BD00009D
:1035200020000020220000204C03002070B505463A
:10353000AC6B0020E085E0842046FEF751FD70BDB5
:1035400070B506460025B46B20684069C0F3C0150D
:1035500094F83900212805D125B10020E0842046C7
:1035600000F08AF820684069C0F3801594F83A00AA
:10357000222805D125B10020E085204600F05CF826
:10358000E06B40F01000E0632046FEF729FD70BDBF
:1035900070B50546AC6B2868006800F4807070B99F
:1035A0000020E0842068406920F0800021684861A4
:1035B0002068C06840F040002168C86002E02046F2
:1035C000FEF722FF70BD70B50446A56B2846FEF7D6
:1035D0001CFF70BD10B51348FEF703FD21281FD056
:1035E00011480078E0B911480088012801D901206C
:1035F00000E000200E490968FA2901D9012100E004
:103600000021084060B1094804882246094905485C
:10361000FEF7ACFE00200549088001200249087031
:1036200010BD00006C0200202000002022000020BD
:103630001C0000204C0300200168C96821F490712F
:103640000268D1600168496921F001010268516195
:10365000202180F83A10704710B504462068C068F1
:1036600020F040002168C860202084F839002046FE
:10367000FEF7CAFE002010BD0168C96821F0C00134
:103680000268D160202180F83910704770B5044677
:1036900094F83A0022284AD1A068B0F5805F13D18F
:1036A000A56A206940B920684068C0F308002880F6
:1036B000A06A801CA06219E020684068C0B228801F
:1036C000A06A401CA06211E0206938B920684068F7
:1036D000C1B2A26A501CA062117007E02068406865
:1036E00000F07F01A26A501CA0621170E08D401EA4
:1036F00080B2E085C8B92068C06820F02000216849
:10370000C8602068C06820F480702168C8602068A4
:10371000406920F0010021684861202084F83A00C7
:103720002046FEF7F3FD002070BD0020FCE70220DC
:10373000FAE700002DE9F84F04462068006920F4FC
:103740004050E1680843216808612169A068084386
:1037500061690843E169084300902068C06849F244
:103760000C618843009908432168C860206840695B
:1037700020F44070A169084321684861E069B0F510
:10378000004F75D1E3492068884203D0E2492068A0
:1037900088426FD1FDF702FE814602206168A0FBDE
:1037A00001510B461920A9FB00712A463846FCF747
:1037B00071FD6421B0FBF1F04FEA001A022061684C
:1037C000A0FB01510B461920A9FB00712A4638467F
:1037D000FCF760FD074602206168A0FB01510B4623
:1037E0001920A9FB00B12A465846FCF753FD642175
:1037F000B0FBF1F000EBC00101EB0010A7EB800083
:10380000322101EBC0006421B0FBF1F000F0F800C0
:103810000AEB400A02206168A0FB01510B46192007
:10382000A9FB00712A463846FCF734FD0746022002
:103830006168A0FB01510B461920A9FB00B12A4683
:103840005846FCF727FD6421B0FBF1F000EBC00106
:1038500001EB0010A7EB8000322101EBC0006421D6
:10386000B0FBF1F000F007005044216888604FE1A0
:103870006EE0FFE7FDF782FD814602206168A0FB54
:1038800001510B461920A9FB00712A463846FCF766
:1038900001FD6421B0FBF1F04FEA001A02206168DB
:1038A000A0FB01510B461920A9FB00712A4638469E
:1038B000FCF7F0FC074602206168A0FB01510B46B3
:1038C0001920A9FB00B12A465846FCF7E3FC642105
:1038D000B0FBF1F000EBC00101EB0010A7EB8000A2
:1038E000322101EBC0006421B0FBF1F000F0F800E0
:1038F0000AEB400A02206168A0FB01510B46192027
:10390000A9FB00712A463846FCF7C4FC0746022092
:103910006168A0FB015003461920A9FB00B12A46AB
:103920005846FCF7B7FC6421B0FBF1F000EBC00196
:1039300001EB0010A7EB8000322101EBC0006421F5
:10394000B0FBF1F000F00700504421688860DFE030
:1039500070492068884203D06F49206888426BD143
:10396000FDF71CFD814604206168A0FB01510B4658
:103970001920A9FB00712A463846FCF78BFC8246C9
:1039800004206168A0FB01510B461920A9FB0071BE
:103990002A463846FCF77EFC6421B0FBF1F000EBD0
:1039A000C00101EB0010AAEB8000322101EB0010F6
:1039B0006421B0FBF1F000F0F00A04206168A0FB84
:1039C000015003461920A9FB00712A463846FCF72E
:1039D00061FC6421B0FBF1F00AEB001A042061687D
:1039E000A0FB01510B461920A9FB00712A4638465D
:1039F000FCF750FC074604206168A0FB0150034619
:103A00001920A9FB00B12A465846FCF743FC642163
:103A1000B0FBF1F000EBC00101EB0010A7EB800060
:103A2000322101EB00106421B0FBF1F000F00F0037
:103A30005044216888606BE0FDF7A0FC81460420BB
:103A40006168A0FB015003461920A9FB00712A46BA
:103A50003846FCF71FFC824604206168A0FB015039
:103A600003461920A9FB00712A463846FCF712FCD0
:103A70006421B0FBF1F000EBC00101EB0010AAEBF8
:103A80008000322101EB00106421B0FBF1F000F066
:103A9000F00A04206168A0FB015003461920A9FB2D
:103AA00000712A463846FCF7F5FB6421B0FBF1F0C3
:103AB0000AEB001A04206168A0FB0170034619207C
:103AC000A9FB005001463A462846FCF7E3FB0746AF
:103AD00004206168A0FB015003461920A9FB00B136
:103AE0002A465846FCF7D6FB6421B0FBF1F000EB08
:103AF000C00101EB0010A7EB8000322101EB0010A8
:103B00006421B0FBF1F000F00F00504421688860A0
:103B1000BDE8F88F0010014000140140014691F803
:103B2000390021282CD18868B0F5805F0FD10A6A4E
:103B30001088C0F308000B685860086918B9086A53
:103B4000801C086209E0086A401C086205E00B6AF4
:103B5000581C086218780B685860C88C401E80B2E8
:103B6000C88458B90868C06820F080000B68D86025
:103B70000868C06840F040000B68D86000207047BB
:103B80000220FCE770B5002400251448006818B333
:103B900012480068C82803D21048006885B200E0C7
:103BA000C82500240DE000F04DF80D490855601CB3
:103BB0000C4908800A48005D3B2800D103E0601CE6
:103BC00084B2AC42EFDB00BF00200549054A1288F1
:103BD00088540846FEF71CFC70BD00002C00002035
:103BE0008C2300204400002010B50248FEF704FAA0
:103BF00010BD00006C02002000BFFEE70248006814
:103C0000C0F30220704700000CED00E010B5002862
:103C100004DB0A07130E054A135406E00A07140EC4
:103C2000034A00F00F031B1FD45410BD00E400E052
:103C300018ED00E030380A2801D20120704700203A
:103C40007047000000BF0C4909680029FBD00B4AEF
:103C500011684A1C094B1A60094A505C19460968E8
:103C6000402902D100211A46116003490968491E02
:103C7000014A1160704700002C000020280000203D
:103C80004C2300200146002001E0421CD0B20A5C17
:103C90000AB17828F9DB70470024FDF7DDF9FFF75A
:103CA0004FFAFEF7D3FEFEF78DFEFEF777FFFEF725
:103CB00097FFFEF7B7FFFFF72BF801221A491B48C1
:103CC000FEF7ECFA00211A48FEF764F904211848BF
:103CD000FEF760F917A0FFF7F7FB17A0FFF7F4FB5B
:103CE00019A0FFF7F1FB14A0FFF7EEFB30201A49F3
:103CF0000870012220211948FDF796F913E0E043EE
:103D0000C4B22CB1012220211448FDF78DF904E042
:103D1000002220211148FDF787F9FEF7DFFDFFF7AC
:103D200031FFFFF757FCEAE7180000206C02002083
:103D30000C0300200D0A00002D2D2D2D2D2D2D2DD5
:103D40002D2D2D2D2D0D0A00202020207072672092
:103D500033333020200D0A003D00002000040240D3
:103D600070B505460C462846FFF7AEFB224605A176
:103D70000548FCF707FB0448FFF7A6FB03A0FFF785
:103D8000A3FB70BD25750000552400200D00000028
:103D900010B500290AD00878002807D005487844D3
:103DA000FCF71AFC002801D0002010BD024878441E
:103DB00010BD0000B2000000AA0000004FF04070EB
:103DC000E1EE100A704700061016000610160000FB
:103DD00000000000000001020304060708090000BB
:103DE00000000102030400007E3020646163315F43
:103DF0007365726465735F706C6C3A313B202D2083
:103E0000EEF7E8F1F2EAE020F0E5E3E8F1F2F0E0C5
:103E100020F1E8E3EDE0EBE020E7E0F5E2E0F2E0BE
:103E200020504C4C205365726465730D00000000F7
:103E3000603F0008000000209C000000D401000842
:103E4000FC3F00089C000020F42C0000F00100085A
:103E50001001000043000000F8FFFFFF0040404059
:103E6000404040404040414141414140404040404D
:103E700040404040404040404040404040050202F9
:103E800002020202020202020202020202202020B8
:103E90002020202020202002020202020202909014
:103EA0009090909010101010101010101010101012
:103EB0001010101010101010020202020202888866
:103EC0008888888808080808080808080808080872
:103ED000080808080808080802020202400000005A
:103EE00000000000000000000000000000000000D2
:103EF00000000000000000000000000000000000C2
:103F000000000000000000000000000000000000B1
:103F100000000000000000000000000000000000A1
:103F20000000000000000000000000000000000091
:103F30000000000000000000000000000000000081
:103F40000000000000000000000000000000000071
:103F50000000000000000000000000000000000061
:103F60000000000000000000000000000000000051
:103F70000000000000000000000000000000000041
:103F80000000000000000000000000000000000031
:103F90000000000000000000000000000000000021
:103FA0000000000000000000000000000000000011
:103FB0000000000000000000000000000000000001
:103FC00000000000000000000000000000000000F1
:103FD00000000000000000000000000000000000E1
:103FE00000000000000000000100000000000000D0
:0C3FF00010000000010000000024F4009C
:040000050800019955
:00000001FF
