:020000040800F2
:1000000020280020AD010008071A0008A7160008E4
:10001000051A0008C9020008A92000080000000015
:100020000000000000000000000000000B1A0008A3
:100030008903000800000000091A00080D1A0008D2
:10004000C7010008C7010008C7010008C701000870
:10005000C7010008C7010008C7010008C701000860
:10006000C7010008C7010008C7010008C701000850
:10007000C7010008C7010008CD020008D902000826
:10008000E5020008C7010008C701000800000000E1
:10009000000000000000000000000000C701000890
:1000A000C7010008C7010008C7010008C701000810
:1000B000C7010008C7010008C7010008C701000800
:1000C000C7010008C7010008C7010008C7010008F0
:1000D000C70100089D200008C701000800000000BB
:1000E000C7010008C7010008C701000800000000A0
:1000F000000000000000000000000000C701000830
:1001000000000000C7010008C7010008C70100087F
:1001100000000000000000000000000000000000DF
:10012000C7010008C7010008C7010008C70100088F
:10013000C7010008000000000000000000000000EF
:10014000000000000000000000000000C7010008DF
:10015000C7010008C7010008F1020008C701000834
:10016000C7010008C70100080000000000000000EF
:10017000000000000000000000000000000000007F
:1001800000000000C701000800000000000000009F
:10019000C7010008C7010008DFF80CD000F082F8A2
:1001A0000048004719210008202800200648804701
:1001B00006480047FEE7FEE7FEE7FEE7FEE7FEE74C
:1001C000FEE7FEE7FEE7FEE7D51A00089901000802
:1001D0002DE9F05F0546002092469B46884606467C
:1001E000814640241BE0284641464746224600F00F
:1001F00020F853465A46C01A914110D3114618466A
:10020000224600F03FF82D1A67EB01084F462246C0
:100210000120002100F036F817EB00094E41201EA6
:10022000A4F10104DFDC484631462A464346BDE8D6
:10023000F09F202A04DB203A21FA02F000217047C7
:1002400021FA02F3D040C2F120029140084319463E
:100250007047D2B201E000F8012B491EFBD2704773
:100260000022F6E710B513460A4604461946FFF782
:10027000F0FF204610BD421C10F8011B0029FBD1E5
:10028000801A7047202A04DB203A00FA02F100208D
:1002900070479140C2F1200320FA03F319439040C4
:1002A00070470000064C074D06E0E06840F001038F
:1002B00094E8070098471034AC42F6D3FFF770FF7C
:1002C000F021000810220008FEE70000014800F0BD
:1002D0006FB8000000230020014800F069B800005A
:1002E000A0220020014800F063B800006023002035
:1002F00003490020087003490860034800F058B81B
:10030000040000201C000020C023002001681823E6
:10031000CAB2103AB2FBF3F2054B6FF30901032A9C
:100320009B5CC36500D9091D8165084670470000C4
:10033000D021000810B5014600208B698A6A4FF071
:10034000C07453B1B3F5005F15D072B1012A0CD05F
:10035000022A0AD0032A09D104E01AB1012A06D0E0
:10036000022A03D1C96AC90100D5012010BDC96A9A
:10037000A142FAD010BD002AF7D0012AF2D0022AF9
:10038000F3D0032AF3D010BD7047704790F83510B2
:10039000022903D08021416501207047052180F8A2
:1003A00035100068016821F00101016000207047EC
:1003B0002DE9F84304464FF00009CDF8009063485A
:1003C0004FF41651A56D0068B0FBF1F72E6894F854
:1003D0005C10082000FA01F131420FD021680A6850
:1003E00052070BD50A6822F004020A6094F85C10E8
:1003F0008840A860606D40F00100606594F85C1072
:100400004FF0010808FA01F0304208D0216849692C
:10041000090604D5A860606D40F00200606594F89C
:100420005C1004208840304208D0216809688907A0
:1004300004D5A860606D40F00400606594F85C101D
:1004400010208840304218D021680968090714D567
:10045000A86020680168490304D50068000308D536
:10046000A16C07E00168C90503D4016821F0080107
:100470000160216C09B12046884794F85C10202067
:100480008840304231D021680968C9062DD5A8605E
:1004900094F8350005282068016806D0490347D53F
:1004A000006800031DD4616C1CE021F0160101609E
:1004B0002068416921F080014161206C08B9A06C7D
:1004C00020B12068016821F00801016094F85C10F7
:1004D0003F208840A86084F8349084F83580216DEE
:1004E0001FE0E16B09B120468847606D00282BD0E2
:1004F000606DC00714D0052084F8350020680168BD
:1005000021F0010101600098401C0090B84203D81E
:1005100020680068C007F6D184F8349084F83580EC
:10052000E16C002910D001B02046BDE8F043084737
:100530000168C905D5D4016821F01001016084F873
:10054000349084F83580CCE7BDE8F8834000002083
:100550002DE9F041044600F035F906465CB100256E
:1005600084F83450022084F835002068016821F0B6
:10057000010101600DE00120BDE8F08100F022F9E9
:10058000801B052805D920206065032084F83500EC
:10059000F2E720680068C007F0D12268116820489F
:1005A0000140D4E901031843D4E903363343184327
:1005B00063691843A3691843E3691843236A18431E
:1005C0000843616A042903D1D4E90B131943084392
:1005D000106020684069666A20F0070130460E43CB
:1005E000012704280CD1A06A0643E06A40B12046E6
:1005F000FFF7A0FE20B14020606584F83570BAE7AF
:10060000206846612046FFF781FE94F85C203F2178
:1006100091408160656584F835700020ACE700008A
:100620003F8010F02DE9F84F00224FF0010803251C
:100630004FF00F0E0B6808FA02F42340A34271D169
:100640004E68012E05D0022E03D0112E01D0122E9D
:1006500015D18668570005FA07FC26EA0C06D1F882
:100660000CC00CFA07FC4CEA060CC0F808C046683F
:10067000A6430C79C4F30014944034434460C66824
:10068000570005FA07FC8C6826EA0C06BC40344388
:10069000C4604C68022C01D0122C13D1D40800EB9A
:1006A0008404A346D4F8209054074FEAD46A0EFA83
:1006B0000AF629EA06090E6906FA0AF646EA090662
:1006C000CBF8206004680E7924EA0C0406F00306D7
:1006D000BE40264306604C68E40056D52E4C266882
:1006E00046F480462660246822F0030604F4804421
:1006F00000942A4C3444A446D4F808489607370F8F
:100700000EFA07F6B443264EB04201D1002615E09A
:10071000244EB04201D1012610E0234EB04202D156
:1007200002260BE031E0214EB04201D1032605E064
:100730001F4EB04201D1042600E00726BE402643EA
:10074000CCF808681B4E34684F689C43FF0300D503
:100750001C433460174E361D34684F689C43BF03FA
:1007600000D51C433460134E083634684F689C43F0
:10077000FF0200D51C4334600E4E0C3634684F68BF
:100780009C43BF0200D51C433460521C102AFFF466
:1007900051AFBDE8F88F00004438024000300140FE
:1007A000000002400004024000080240000C024029
:1007B00000100240003C01400AB181617047090409
:1007C000FBE700000148806870470000340000200B
:1007D000024881680278114481607047340000202B
:1007E0000B4810B5016841F400710160016841F4E3
:1007F00080610160016841F480710160032000F0B4
:100800006FF8002000F006F800F024F8002010BD7A
:10081000003C024070B50D4D04464FF47A712878C3
:10082000B1FBF0F00A490968B1FBF0F000F0E6FB1B
:1008300048B9102C07D200222146501E00F030F893
:1008400000206C6070BD012070BD000034000020ED
:10085000400000200A4808B5016841F48041016069
:10086000006800F4804000900548001F016841F0D6
:1008700080510160006800F08050009008BD0000C9
:1008800044380240002809DB00F01F02012191409A
:100890004009800000F1E020C0F80011704700001E
:1008A000F0B40E4B1B680C46C3F30223C3F10705DB
:1008B000042D00D90425191D072901D2002300E0C9
:1008C000DB1E012606FA05F1491E214099409E4093
:1008D000761E16403143F0BC01F0E7BB0CED00E0A2
:1008E000064900F0070208684FF6FF03184040EA87
:1008F0000220034A10430860704700000CED00E03E
:100900000000FA052DE9F0470E46050065D0DFF836
:100910001481D8F80000F7B200F00F00B04207D2FF
:1009200088F80070D8F8000000F00F00B04254D1F1
:1009300028683D4C810712D5400703D5206840F454
:10094000E05020602878000703D5206840F460401C
:1009500020602068A96820F0F00008432060287813
:10096000C0072DD0304968680839012812D0022804
:1009700013D0032811D00968890700292DDA2168CE
:1009800021F0030101432160FFF71CFF814641F282
:10099000883A0EE009688903EFE709688901ECE706
:1009A000FFF710FFA0EB0901514502D90320BDE874
:1009B000F0872068696800F00C00B0EB810FEFD180
:1009C000D8F80010404601F00F01B14207D9077076
:1009D000006800F00F00B04201D00120E7E728785E
:1009E000400705D52068E96820F4E05008432060FE
:1009F0002878000706D52068296920F4604040EA7D
:100A0000C100206000F038F82168084AC1F30311E2
:100A1000515CC8400649086006480068FFF7FAFEC6
:100A20000020C4E7003C024008380240D8210008FA
:100A3000400000203800002004480549006809688B
:100A4000044AC1F38221515CC84070474000002035
:100A500008380240E8210008044805490068096890
:100A6000044AC1F34231515CC84070474000002045
:100A700008380240E8210008154810B5006810F059
:100A80000C02144813D01449042A0FD0082A0ED19E
:100A90000F4C241F2268236802F03F025B0207D537
:100AA0002068C0F38810A0FB010106E0084610BDD5
:100AB0002168C1F38811A1FB00010023FFF788FB27
:100AC0002168C1F30141491C4900B0FBF1F010BDA0
:100AD000083802400024F40040787D012DE9F84FE9
:100AE000040076D02078DFF838A3CE4DC00749D077
:100AF000DAF800105046C1F38101012908D00068DE
:100B0000C0F3810002280AD1281D0068400206D5E2
:100B10002868800336D560680028E2D032E060683B
:100B2000B0F5803F10D0B0F5A02F286810D020F489
:100B300080302860286820F4802028606068A0B198
:100B4000FFF740FE06460CE0286840F48030F4E7EA
:100B500040F480202860F7E7FFF734FE801B64280C
:100B600073D828688003F7D50CE0FFF72BFE064604
:100B700005E000BFFFF726FE801B6428F0D8286838
:100B80008003F7D42078DFF8A08280074FF00009B7
:100B90003ED5DAF80010504611F00C0F09D000686D
:100BA000C0F3810002280BD19D48001F006840025D
:100BB00006D42868800715D5E068012809D111E01E
:100BC000E068B8B10120C8F80000FFF7FBFD064659
:100BD00005E020E1FFF7F6FD801B0228C0D8286859
:100BE0008007F7D52868216920F0F80040EAC100A5
:100BF00028600DE0C8F80090FFF7E4FD064604E029
:100C0000FFF7E0FD801B02281FD828688007F7D473
:100C10002078000722D5824E844861696C3671B114
:100C200001210160FFF7CEFD074604E0FFF7CAFD92
:100C3000C01B022809D830688007F7D50EE0C0F83D
:100C40000090FFF7BFFD074605E082E0FFF7BAFD21
:100C5000C01B02287DD830688007F7D42078400771
:100C600068D5DFF8BCB100270BF1380BDBF80000CA
:100C7000C0000BD4DBF8001041F08051CBF800101D
:100C8000DBF80000012700F080500090684E3068CB
:100C9000C00510D4306840F480703060FFF792FDDA
:100CA000009005E0FFF78EFD0099401A022850D809
:100CB0003068C005F6D55A4EA068683601280FD0B6
:100CC0000528306810D020F001003060306820F036
:100CD00004003060A068B8B1FFF774FD00900FE029
:100CE000306840F00100F4E740F004003060F7E7BE
:100CF000FFF768FD0099411A41F28830814266D8B9
:100D000030688007F4D50EE0FFF75CFD009007E047
:100D1000FFF758FD0099411A41F28830814256D8B8
:100D200030688007F4D42FB1DBF8001021F0805137
:100D3000CBF80010A069D0B3DAF800205146C2F316
:100D40008102022A4AD00228484607D0C8F860002B
:100D500000E03CE0FFF736FD04463BE04746C8F8BC
:100D60006000FFF72FFD064605E000BFFFF72AFDF4
:100D7000801B02282BD828688001F7D4D4E907010A
:100D80000843A16A2B4A490802EB0141626A41EA21
:100D90008211084394F82C1040EA01612048001F9A
:100DA000016001203866FFF70DFD044605E034E0E0
:100DB000FFF708FD001B022809D828688001F7D535
:100DC0002BE000BFFFF7FEFC001B022802D9032026
:100DD000BDE8F88F28688001F4D41EE00128F7D020
:100DE0000868E26900F48001914214D1226A00F09F
:100DF0003F0191420FD147F6C071626A01409142B2
:100E000009D1A26A00F44031914204D1E16A00F0B4
:100E10007060884201D00120DAE70020D8E70000A6
:100E2000083802400038024000004742800E474226
:100E3000007000400000FFFF70B5040005D00025E1
:100E4000A56294F8510010B106E0012070BD84F84D
:100E50005050204600F030F8022084F851002068FD
:100E6000016821F040010160D4E901010843D4E99F
:100E700003121143084361690843218B01F4007197
:100E80000843E1690843216A0843A16A08432168CD
:100E90000860A069042101EA1040616A08432168E2
:100EA00048602068C16921F40061C1616565012065
:100EB00084F85100002070BD2DE9F04186B006464F
:100EC00014216846FFF7CCF94448DFF80CC13568B7
:100ED0004249103802220323402700244FF480683F
:100EE000654543D10D6845F480450D60096801F4FE
:100EF00080410591016841F0020101600068694686
:100F000000F0020005904FF470408DE815000520B8
:100F1000CDE903303248FFF785FB334D314885E892
:100F20009100C5E903486C61AC61EC612C624746F5
:100F300028466C62FFF70CFB08B1FFF726FAB56490
:100F4000AE632848294D1838C5E90004AC60C5E9EE
:100F500003476C61AC61EC612C6228466C62FFF760
:100F6000F7FA08B1FFF711FAF56431E0DFF880C055
:100F700065452ED10D6845F400450D60096801F402
:100F800000410591016841F0040101600068694673
:100F900000F0040005904FF4E0508DE815000620A5
:100FA000CDE903301348FFF73DFB0E48124D1830D2
:100FB00085E89100C5E903486C61AC61EC612C6285
:100FC00028466C62FFF7C4FA08B1FFF7DEF9B56492
:100FD000AE6306B0BDE8F081003800404038024002
:100FE0000004024070600240A02200200023002084
:100FF000003C0040000802406023002010B5401E65
:10100000B0F1807F01D3012010BD4FF0E02460617A
:101010000F21601701F049F80020A061072020612E
:10102000002010BD10B590F83C20012A22D00122EA
:1010300080F83C20CA688C6822F4407222434C68D5
:1010400022F4806222430C6822F4006222430C697D
:1010500022F4805222434C6922F400522243C9698F
:10106000002322F480420A4301684A6480F83C303D
:10107000002010BD022010BD70B590F83C20012A60
:101080002CD0012480F83C40022280F83D200368E7
:101090005A689D6822F070060A6832435A60104B05
:1010A00002689A420ED0B2F1804F0BD00D4B9A429B
:1010B00008D00D4B9A4205D00C4B9A4202D00C4BF3
:1010C0009A4204D1496825F080031943916080F861
:1010D0003D40002180F83C10084670BD022070BDE4
:1010E000000001400004004000080040000C0040E7
:1010F0000040014010B5040003D094F83D0010B149
:1011000007E0012010BD002084F83C00204600F0DC
:101110000DF8022084F83D00211D206800F0E8FC55
:10112000012084F83D00002010BD000008B50068D3
:101130000649884208D10648016841F00101016072
:10114000006800F00100009008BD000000000140B0
:101150004438024070B5044690F83C00012817D08E
:10116000012584F83C50022084F83D002068826804
:1011700022F0770222F47F4282600868502830D043
:101180000DDC20284DD005DC98B310283BD148E079
:10119000022070BD302844D0402834D139E0602886
:1011A00028D0702806D0B0F5805F2CD0B0F5005F55
:1011B00029D10AE0CB68D1E90121206800F0E4FCE4
:1011C0002068816841F0770109E0CB68D1E901210D
:1011D000206800F0D9FC2068816841F4804181607A
:1011E00011E0CA684968206800F0C5FD50212068F8
:1011F00007E016E0CA684968206800F0CDFD60216C
:10120000206800F0CBFC84F83D50002084F83C00BE
:1012100070BDCA684968206800F0ADFD40212068B3
:10122000EFE7226801461046EBE7000010B586B0F4
:10123000044614216846FFF713F80E4920688842D7
:1012400016D10D480021026842F0100202600068C9
:1012500000F0100005904FF4206000900220CDE9CE
:1012600001010120CDE9031069460448FFF7DAF9CE
:1012700006B010BD000001403038024000100240AE
:1012800070B5044690F83C000D4601280DD00126AB
:1012900084F83C60022084F83D0042B1042A18D052
:1012A000082A2AD00C2A4DD139E0022070BD2068CE
:1012B00000F07CFC2068816941F0080181612068B0
:1012C000816921F004018161206881692A691143E3
:1012D00011E0206800F092FC2068816941F400610F
:1012E00081612068816921F4806181612068816960
:1012F0002A6941EA0221816124E0206800F0AAFC09
:101300002068C16941F00801C1612068C16921F00C
:101310000401C1612068C1692A69114311E0206894
:1013200000F0C4FC2068C16941F40061C16120681B
:10133000C16921F48061C1612068C1692A6941EAFB
:101340000221C16184F83D60002084F83C0070BD3A
:1013500010B5040003D094F83D0010B107E001205F
:1013600010BD002084F83C00204600F00CF802205C
:1013700084F83D00211D206800F0BAFB012084F8AC
:101380003D00002010BD704770B5044690F83C0049
:10139000012812D0012584F83C50022084F83D0039
:1013A000204600F0A5FC01004FF0000007D084F8B3
:1013B0003D5084F83C00012070BD022070BD2168C2
:1013C000CA6822F04002CA602168CA6822F48042DA
:1013D000CA6084F83D5084F83C00002070BD70471E
:1013E00070B5026804461068D168536910F00F0F99
:1013F00053D003F0010501F490762E435FD0C2076D
:1014000005D0CA0503D5E26B42F00102E263420750
:1014100005D5DA0703D0E26B42F00202E2638207ED
:1014200005D5DA0703D0E26B42F00402E26302075B
:1014300007D501F020022A4303D0E26B42F00802F4
:10144000E263E26B002A34D0800604D5880602D518
:10145000204600F0F1FC20684069E16BC0F3801089
:1014600001F008010143204624D000F0D7FC206899
:10147000416949061AD5416921F040014161606B1B
:10148000A0B11B490165606BFEF780FF002810D0FA
:10149000606B016DBDE87040084783060FD58B0671
:1014A0000DD52046BDE8704000F0C6BC2046FFF7D1
:1014B00096FF70BDFFF793FF0020E06370BD030649
:1014C00006D50B0604D52046BDE8704000F094BD5B
:1014D0004006F3D54806F1D5D168204621F04001F9
:1014E000D160202184F8391000F0DCF870BD0000D4
:1014F0000D1E000870B5040004D094F839000025D2
:1015000010B106E0012070BD84F83850204600F08C
:1015100023F8242084F839002068C16821F40051A0
:10152000C160204600F0D4FC2068016921F490419C
:1015300001612068416921F02A0141612068C16888
:1015400041F40051C160E563202084F8390084F83B
:101550003A00002070BD000070B586B00646142128
:101560006846FEF77DFE24493068884242D1234810
:101570000025016841F010010160006800F01000D2
:1015800005901E481438016841F0010101600068AF
:10159000694600F0010005904FF4C0600090022001
:1015A000019001200290032003900720049014482A
:1015B000FFF738F8144C134820604FF0006060606B
:1015C0004020C4E902050001C4E90405A561E56104
:1015D000256220466562FEF7BBFF08B1FEF7D5FE27
:1015E0003463002211462520A663FFF759F9252010
:1015F000FFF748F906B070BD0010014044380240C2
:1016000000000240B8640240C023002090F83A3045
:10161000202B22D1F9B1F2B190F83830012B1CD037
:1016200081628285C2850021C163222280F83A202E
:1016300080F838100168CA6842F48072CA60016894
:101640004A6942F001024A610068C16841F0200124
:10165000C1600020704701207047022070470000E1
:101660000D480278C01E016A0C4B0B44491C0162F4
:101670001A70026A0021402A00D10162826A521C5B
:101680008262402A02D18162012141710122024914
:101690000348FFF7BBBF00000300002074210020B7
:1016A000F40000207047FEE72DE9F0472A4C0126A0
:1016B00000276069294D4FF400584FF480494FF4DA
:1016C000004A642818D2E068B0B900224146284692
:1016D000FFF772F8012249462846FFF76DF800220D
:1016E00051462846FFF768F8C4E90367207810B12F
:1016F0004000207000E026706069C82812D9206977
:1017000080B9002241462846FFF756F80022494694
:101710002846FFF751F8012251462846FFF74CF8BA
:10172000C4E903766069B0F5C87F0ED9012241464D
:101730002846FFF741F8002249462846FFF73CF8C3
:10174000002251462846FFF737F86069B0F5FA7F66
:1017500000D96761BDE8F087000000200008024062
:10176000194808B5016841F400110160016801F4ED
:1017700000110091016841F48001016000680022BD
:1017800000F48000009011460E20FFF789F80E202B
:10179000FFF778F8002211460F20FFF781F80F209D
:1017A000FFF770F8002211461020FFF779F810209B
:1017B000FFF768F8002211464620FFF771F8BDE8F0
:1017C00008404620FFF75EB8303802402DE9F0416E
:1017D00086B014216846FEF743FD394800240168AD
:1017E00041F004010160016801F004010591016804
:1017F00041F010010160016801F0100105910168DC
:1018000041F002010160016801F0020105910168E7
:1018100041F008010160016801F0080105910168CB
:1018200041F0010101600068264E00F001004FF414
:1018300060450590002229463046FEF7BDFF224F45
:10184000002201213846FEF7B7FFDFF88080002232
:1018500020214046FEF7B0FF00950125CDE9015457
:10186000694630460394FEF7DDFE4FF42040CDE993
:101870000004694638460294FEF7D4FE4FF4C06077
:1018800000900220CDE9010403200390072004907A
:1018900069460F48FEF7C6FE0095CDE9015469463A
:1018A00038460394FEF7BEFE20200090CDE9015497
:1018B000694640460394FEF7B5FE06B0BDE8F081E8
:1018C0003038024000080240000C02400004024090
:1018D000000002400C480B494FF4802201604FF495
:1018E0008271416000218160C1600161C0E905121F
:1018F0002022C0E90721416281620A21C162FFF70B
:101900009BBA000000380040440000200C480B49FE
:101910004FF4007201604FF48271416000218160D8
:10192000C1600161C0E905122022C0E907214162BE
:1019300081620A21C162FFF77FBA0000003C0040CB
:101940009C00002010B59AB00024149415941694AD
:1019500014210FA81794FEF783FC18941C216846E5
:101960001994FEF77DFC202107A8FEF779FC244896
:101970002249C0E900148460C46004614461846148
:10198000FFF7B8FB4FF48050149014A91C48FFF7E0
:10199000E1FB1B48FFF7DCFC06200F9010201090A5
:1019A0000FA91748FFF7F0FC189418A914481994C8
:1019B000FFF762FB6020CDE90004029403940494D5
:1019C0000594002269460E480694FFF759FC04224C
:1019D00069460B48FFF754FC0794089409944FF4A8
:1019E00000500A94CDE90B4007A905480E94FFF773
:1019F00019FB0348FFF71AFC1AB010BD00000140A4
:101A000034010020FEE770477047704710B5FEF7BD
:101A1000DFFE0B48016811B10168491E01600948E9
:101A20000168491C016008480168491C01600748B9
:101A30000168491C016006480168491C016010BD2D
:101A4000180000201C000020140000202C000020A2
:101A50003000002030B593B030216846FEF700FC1E
:101A600014210CA8FEF7FCFB18480025016841F082
:101A700080510160006800F08050119014480168A6
:101A800041F4404101600068022400F4404011909C
:101A90000120039010200490009406940820CDE9C2
:101AA00007506420CDE9090404200B906846FFF735
:101AB00015F80CA90F2081E83100E002CDE90F05EF
:101AC00003210CA8FEF71EFF13B030BD40380240C2
:101AD000007000400548016841F47001016003494D
:101AE0004FF00060803908607047000088ED00E02A
:101AF000F0B502681D4B1E4C9F031E4D1E4E9842B2
:101B000007D0B84205D0A04203D0A84201D0B042CD
:101B100004D122F0700C4A6842EA0C02984210D0BC
:101B2000B8420ED0A0420CD0A8420AD0B04208D091
:101B3000124CA04205D0124CA04202D0114CA0423F
:101B400003D122F44074CA6822434C6922F0800217
:101B5000224302608A68C2620A688262984201D1A6
:101B60000969016301214161F0BD000000000140ED
:101B70000004004000080040000C0040004001400C
:101B8000004401400048014010B5846842EA032245
:101B900024F47F440A432243826010BD826822F00D
:101BA00070020A4342F007018160704730B5026A53
:101BB00022F001020262026A4368846924F073051C
:101BC0000C682C4322F002058A682A430A4DA84279
:101BD0000BD122F00805CA6823F440732A434D69EB
:101BE00022F004021D438B692B43436084614968E2
:101BF0004163026230BD00000000014030B5026A5E
:101C000022F010020262026A436884690D6824F4BB
:101C1000E64444EA05248D6822F0200242EA0512D7
:101C20000B4DA8420ED1CD6822F0800242EA051287
:101C30004D6923F4406343EA85038D6922F0400235
:101C400043EA85034360846149688163026230BD71
:101C50000000014030B5026A22F480720262036A19
:101C60004268C46923F4007324F073050C682C43A4
:101C70008D6843EA05230C4DA8420ED1CD6823F4AC
:101C8000006343EA05234D6922F4405242EA0512FB
:101C90008D6923F4806342EA05124260C461496899
:101CA000C163036230BD00000000014030B5026A2C
:101CB00022F480520262046A4268C3690D6823F408
:101CC000E64343EA05238D6824F4005444EA0534CE
:101CD000064DA84204D14D6922F4804242EA8512A1
:101CE0004260C36149680164046230BD0000014084
:101CF00010B503689A6822F070044A68224322F003
:101D000007040A6822439A604A6812F00F0F30D124
:101D10001211082A2DD2DFE802F02C2C2C2C0B21DA
:101D200027040B69D1E902210068FFF72DFF20E0AD
:101D30000A68052A10D00268136A146A24F00104A4
:101D4000146202689469096924F0F00444EA0111FC
:101D50009161006803620CE0012010BD0A69896886
:101D6000006800F008F804E00A698968006800F07B
:101D700013F8002010BD10B5036A046A24F00104B2
:101D80000462846924F0F00444EA021423F00A0295
:101D90000A438461026210BD10B5036A23F0100388
:101DA00003628369046A23F4704343EA023224F035
:101DB000A00343EA01118261016210BD2DE9F041E7
:101DC000104C05462079002819D12846FEF753FA11
:101DD000E18880B2014441F6FB72914201D90021B1
:101DE000E180E288084E1146131804E08F1AEF5D77
:101DF0007754491C89B28B42F8D81044E080BDE882
:101E0000F0810000000000207401002010B5806BFC
:101E10000021C185C184FFF7E2FA10BD0168CA68DC
:101E200022F49072CA6001684A6922F001024A6194
:101E3000202180F83A10704710B590F83A10222906
:101E400001D0022010BD8168B1F5805F11D0016919
:101E5000002901681FD0496801F07F03816A4A1C8C
:101E600082620B70C18D491E0904090CC18518D00E
:101E70002BE00269816A002A0268526805D0D2B25A
:101E80000A80816A491C8162ECE7C2F308020A8079
:101E9000816A891CF7E74A68816A4B1C83620A7071
:101EA000E0E70168CA6822F02002CA600168CA68D7
:101EB00022F48072CA6001684A6922F001024A6114
:101EC000202180F83A10FFF7CBFB002010BD000066
:101ED0002DE9F041044600680169E26821F44051AF
:101EE000114301612169A068E269084361691143F6
:101EF00008432168CA6849F20C639A430243CA60E6
:101F000020684169A26921F4407111434161E0698F
:101F1000192764253226B0F5004F354A3549206827
:101F20004FF0000806D0884201D0904236D1FEF72B
:101F300093FD35E0884201D0904202D1FEF78CFD3E
:101F400001E0FEF779FD61684A18A0FB070148EB44
:101F50000803FEF73DF90146B0FBF5F00201B1FBC5
:101F6000F5F06FF01803584301EB800006EBC0005A
:101F7000B0FBF5F000F0F80002EB4002B1FBF5F029
:101F8000584301EB800006EBC000B0FBF5F000F019
:101F90000700216810448860BDE8F081FEF74CFD21
:101FA00061688B0F8A00A0FB0701FEF711F901465B
:101FB000B0FBF5F06FF01802504301EB800006EB28
:101FC0000010B0FBF5F000F0F002B1FBF5F002EB11
:101FD0000012B1FBF5F06FF01803584301EB8000DD
:101FE00006EB0010B0FBF5F000F00F00D1E70000A9
:101FF000001401400010014090F83910212901D04F
:10200000022070478168B1F5805F016A0BD04A1CDD
:102010000262026809785160C18C491E0904090CEA
:10202000C1840ED017E009880268C1F3080151602D
:1020300001690029016A02D0491C0162ECE7891C90
:10204000FBE70168CA6822F08002CA600068C168C4
:1020500041F04001C16000207047000070B50D4B99
:102060000024986A002814D0986A0B4EC82802D21F
:10207000986A85B208E0C82500F036F83055641C2F
:102080001C813B2802D0A4B2AC42F5D319890020B0
:10209000705470BD00000020B42100200148FFF7FB
:1020A0009FB90000F4000020FEE70907090E002890
:1020B00004DB00F1E02080F80014704700F00F000E
:1020C00000F1E02080F8141D704702E008C8121FDC
:1020D00008C1002AFAD170477047002001E001C111
:1020E000121F002AFBD170470949886A0028FCD0DA
:1020F000486A084A0244401C486210784A6A402AEA
:1021000001D100224A628A6A521E8A627047000028
:1021100000000020742100200024FEF761FBFFF77F
:1021200099FCFFF753FBFFF71BFBFFF7D3FBFFF710
:10213000EDFBFFF707FC1B4819490C2201604FF427
:10214000E131416000218160C160C0E90412816118
:10215000C161FFF7CFF9012213491248FFF756FA80
:1021600012A0FFF72BFE15A0FFF728FE0FA0FFF728
:1021700025FE164D012220212846FEF71DFBE043D7
:1021800010F0FF0401D0012200E0002220212846A7
:10219000FEF712FBFFF788FAFFF760FFEFE700009A
:1021A00000100140F4000020030000202D2D2D2DF3
:1021B0002D2D2D2D2D2D2D2D2D0D0A0020202020F3
:1021C0007072672033333020200D0A000004024073
:1021D00000061016000610160000000000000000A7
:1021E00001020304060708090000000001020304BD
:1021F000102200080000002044000000CA2000084F
:102200005422000844000020DC270000DA200008E7
:1022100001000000000000000000000000000000BD
:1022200000000000000000000000000000000000AE
:10223000000000000000000000000000000000009E
:10224000000000000100000010000000000000007D
:042250000024F40072
:040000050800019955
:00000001FF
