:020000040800F2
:100000002032002059020008613E00083D2A000805
:10001000D53A0008FD090008194E0008000000004C
:10002000000000000000000000000000B9400008CF
:100030005B0B000800000000C53E000815420008E8
:1000400073020008730200087302000873020008BC
:1000500073020008730200087302000873020008AC
:10006000730200087302000873020008730200089C
:100070007302000873020008010A0008110A000850
:10008000210A000873020008730200080000000043
:1000900000000000000000000000000073020008E3
:1000A000730200087302000873020008730200085C
:1000B000730200087302000873020008730200084C
:1000C000730200087302000873020008730200083C
:1000D00073020008D54D00087302000800000000FC
:1000E0007302000873020008730200080000000099
:1000F0000000000000000000000000007302000883
:100100000000000073020008730200087302000878
:1001100000000000000000000000000000000000DF
:1001200073020008730200087302000873020008DB
:100130007302000800000000000000000000000042
:100140000000000000000000000000007302000832
:100150007302000873020008310A000873020008E5
:100160007302000873020008000000000000000095
:10017000000000000000000000000000000000007F
:1001800000000000730200080000000000000000F2
:10019000730200087302000800F002F800F04DF846
:1001A0000AA090E8000C82448344AAF10107DA45D2
:1001B00001D100F042F8AFF2090EBAE80F0013F0D7
:1001C000010F18BFFB1A43F00103184754600000E9
:1001D00074600000103A24BF78C878C1FAD852077A
:1001E00024BF30C830C144BF04680C6070470000B1
:1001F0000023002400250026103A28BF78C1FBD830
:10020000520728BF30C148BF0B607047752900F006
:10021000E380782900F01C81002070471FB505F0AD
:10022000E3FD00F075FB04000020002105F0C6FD91
:10023000401C60601FBD10B510BD00F07BFB114677
:10024000FFF7ECFF05F00AFC00F099FB03B4FFF7A1
:10025000F2FF03BC00F07EFA0948804709480047D6
:10026000FEE7FEE7FEE7FEE7FEE7FEE7FEE7FEE766
:10027000FEE7FEE704480549054A064B70470000C3
:100280004D43000899010008202C00202032002056
:10029000202E0020202E002053EA020C00F069805E
:1002A0002DE9F04B4FF00006002B1FBFB3FA83F58A
:1002B00003FA05F424FA05F65E4012BF1643B2FABB
:1002C00082F502FA05F4C5F120051EBF22FA05FCED
:1002D00044EA0C04203556EA044C4FEA144418BF93
:1002E000641C4FF000084FF00009904271EB030CC2
:1002F00039D3002919BFB1FA81F701FA07F6B0FA2C
:1003000080F700FA07F6C7F120071EBF20FA07FCA6
:1003100046EA0C062037B6FBF4FCA7EB0507103FB6
:1003200007F01F0BCBF120060CFA0BFB2CFA06F69C
:1003300044BFB3460026202FA4BF5E464FF0000BFB
:100340005BEA060C08BF4FF0010B19EB0B09ABFB86
:10035000027C48EB0608C01B06FB02CC0BFB03CC5F
:1003600071EB0C01C1E70B46024641464846BDE829
:10037000F08B13B54FF000004FF00001AFF3008099
:10038000BDE81C407047B2F120030AD5C2F120033A
:1003900020FA02F001FA03F321FA02F140EA030025
:1003A000704721FA03F04FF0000170470FB41CB5FD
:1003B000084B06AA7B4469460090059800F03BFA7A
:1003C00004460020694600F049FA20461CBC5DF84E
:1003D00014FB0000A50400002DE9F04106460024AE
:1003E00010687529314616A510D0AFF3008000289B
:1003F00002DA404213A507E031688A0701D512A549
:1004000002E0490704D511A5012401E0AFF3008003
:1004100000210A2206F1240709E0B0FBF2FCB0FB40
:10042000F2F302FB1C00303078541846491C0028B7
:10043000F3D123462A463046BDE8F04100F09CB98E
:10044000000000002D0000002B0000002000000034
:1004500070B504460D4621461068AFF30080218830
:10046000090502D50F4A7A4402E00E4A7A440E3258
:10047000002104F1240305E000F00F060009965D59
:100480005E54491C0028F7D120780023000704D5CA
:10049000702D02D009B1022311322046BDE8704010
:1004A00000F06AB9D25A00002DE9F0474FF0000A77
:1004B00089460446C0F820A02046E1688847002805
:1004C00076D0252806D0D4E901219047206A401C27
:1004D0002062F1E7E168204600258847C4F81CA0A7
:1004E00006460027C4F818A02A2E09D0304604F08A
:1004F000B1FC38B304EB8708303EC8F8186019E047
:1005000059F8041B204604EB87029161E168884793
:10051000012F064618D1E069002820DA25F02005D1
:100520001DE0D8F8180000EB800006EB40003038E2
:10053000C8F818002046E1688847064604F08AFC9F
:100540000028EED1012F0AD02E2E08D12046E168D6
:1005500088477F1C0646022F45F02005C4DBA069B2
:10056000002803DA404245F00105A061E80701D008
:1005700025F01005B6B1A6F14100192802D82036A1
:1005800045F400654A463146204625604D46FFF752
:100590003DFE58B1012806D0ED1D25F0070000F101
:1005A000080989E704E005F1040985E730468AE790
:1005B000206ABDE8F08770B5064600F0D9F80468F7
:1005C000054630460A22002100F002F82C6070BD7A
:1005D0002DE9F04791460F4680460446002614F860
:1005E000015B2DB100F0BCF80068405DC007F6D19A
:1005F0002B2D02D02D2D18D0641E4A463946204698
:1006000000F031F927B13968A14201D1C7F8008063
:100610004FF0020471050BD54042002803DD00F0C5
:10062000A7F80460A007BDE8F08746F48066E4E719
:100630000028F8DA00F09CF804606FF00040F2E760
:1006400010B5431C02E010F8011B71B18107FAD10B
:100650004FF0013202C88C1A8C4314EAC211F9D04F
:10066000C01A0A0603D0C01E10BDC01A10BD0A046D
:1006700001D0801E10BD0902FCD0401E10BD4FF0FD
:10068000000200B5134694469646203922BFA0E8E2
:100690000C50A0E80C50B1F12001BFF4F7AF0907EE
:1006A00028BFA0E80C5048BF0CC05DF804EB8900DF
:1006B00028BF40F8042B08BF704748BF20F8022B22
:1006C00011F0804F18BF00F8012B70474FF0013C2C
:1006D00050F8042B51F8043B9A4221D1A2EB0C03B1
:1006E000934313EACC1317D150F8042B51F8043B71
:1006F0009A4215D1A2EB0C03934313EACC130BD10E
:1007000050F8042B51F8043B9A4209D1A2EB0C0398
:10071000934313EACC13DBD04FF00000704700BFC7
:10072000D01A01BAB1FA81F101F0180122FA01F0F0
:10073000CB40C1F12001DBB2C0B2C01A2CFA01F3E8
:10074000D11A914311EAC311E6D17047704770473F
:100750007047000001491820ABBEFEE726000200EA
:1007600010B500F0D5F8001D10BD00BF51560000B7
:1007700000487047C02B00202DE9F0470D469946F0
:100780009246044600F124080168880604D5E06911
:1007900021F01001216000E00120A84201DD471B8B
:1007A00000E00027A1697A1902EB0900081AA0618C
:1007B0002078C00602D42046AFF30080002608E06F
:1007C000D4E901211AF806009047206A401C761CE3
:1007D00020624E45F4DB2078C0060AD52046AFF3F0
:1007E000008006E0D4E9012130209047206A401CB7
:1007F0002062381EA7F10107F4DC07E0D4E90121EB
:1008000018F805009047206A401C2062281EA5F1B8
:100810000105F3DC2046AFF300802078000602D506
:100820000220BDE8F0870120FBE7000001694A1CB7
:1008300002610878704700B58FB0CDE90131002121
:10084000059105497944CDE9031011466846FFF743
:100850002BFE0FB000BD0000E5FFFFFF0A6802F8A5
:10086000010B0A6070472DE9F05F824615468B4602
:1008700000270AF10104B9460078302801D09DB163
:1008800013E014F8010B0127782803D0582801D071
:1008900045B10AE00DB1102D07D1002714F8010B66
:1008A000102502E0082500E00A250026B0460EE0EB
:1008B00005FB080005FB06F101271FFA80F801EB94
:1008C0001046B6F5803F00D3B94614F8010B29460F
:1008D00000F022F80028EBDABBF1000F05D00FB1D1
:1008E000641E00E05446CBF80040B9F1000F06D07A
:1008F000FFF73EFF02210160C81EBDE8F09F48EAF5
:100900000640FAE700487047C02B002070470000FF
:1009100000487047E02B00203A2800D2303820F001
:100920002002412A01D3A2F13700884201D34FF0BF
:10093000FF3070477546FFF7E5FFAE460500694694
:10094000534620F00700854618B020B5FFF792FC0B
:10095000BDE820404FF000064FF000074FF00008C0
:100960004FF0000B21F00701AC46ACE8C009ACE841
:10097000C009ACE8C009ACE8C0098D467047044620
:10098000AFF300802046FFF761FC000010B503F0D4
:1009900069FA58B100224FF48041054800F00CFD7F
:1009A00000200449086004A003F084FE10BD00008C
:1009B000000802401000002042544E5F31202121E7
:1009C000210D0A0010B503F065FA58B100224FF46A
:1009D0000041054800F0F0FC00200449086004A034
:1009E00003F068FE10BD0000000802401400002063
:1009F00042544E5F32202121210D0A0000BFFEE744
:100A000010B5024800F006FA10BD0000B801002041
:100A100010B5024800F0FEF910BD0000580100209A
:100A200010B5024800F0F6F910BD000018020020D1
:100A300010B500200349087003490860034800F01E
:100A4000E9F910BD2400002020000020B802002099
:100A50000146087810381823B0FBF3F20848805C90
:100A6000C865032A05D908686FF30900001D886569
:100A700003E008686FF309008865886D704700001F
:100A80001C5F0008014600208A6A8B69CBB932B12D
:100A9000012A0DD0022A03D0032A10D10EE000BF94
:100AA000CB6A03F08073B3F1807F00D1012007E0AF
:100AB000CB6AB3F1C07F00D1012001E000E000BFAC
:100AC00034E08B69B3F5005F1AD132B1012A07D047
:100AD000022A03D0032A11D10AE000BF01200EE050
:100AE000CB6A03F08073B3F1807F00D1012006E070
:100AF000CB6AB3F1C07F00D1012000E000BF15E058
:100B000032B1012A05D0022A04D0032A0CD103E015
:100B100000BF00BF012008E0CB6A03F08073B3F18F
:100B2000807F00D1012000E000BF00BF704730B5DA
:100B30000468246824F4802405682C6004686360D9
:100B40008468402C04D10468A2600468E16003E07A
:100B50000468A1600468E26030BD70470349086022
:100B600000BF024909680029FBD170471800002026
:100B70002DE9F04FA9B004468A46002028900026AF
:100B800000278146834627900025269080462590A1
:100B9000249022902390802102A8FFF770FD00206E
:100BA000019020783A2805D0BAF1020F02D1012035
:100BB0002690C2E063A003F07DFD60788DF8900080
:100BC000A0788DF891001022694624A8FFF700FD57
:100BD00087B2E819C5B2E0788DF8880020798DF8E1
:100BE000890060798DF88A00A0798DF88B00102239
:100BF000694622A8FFF7ECFC1FFA80F905EB2920D3
:100C00004844C5B2E0798DF89000207A8DF89100C3
:100C10001022694624A8FFF7DBFC1FFA80FB05EBD6
:100C20000B00C5B2BBF1040F2FD1607A8DF888009C
:100C3000A07A8DF88900E07A8DF88A00207B8DF803
:100C40008B001022694622A8FFF7C2FC804605EB04
:100C500018204044C5B2607B8DF89000A07B8DF8D1
:100C600091001022694624A8FFF7B2FCC0B201909F
:100C70006842C5B20198854202D0022026905CE00D
:100C80004FEA08403049086057E0B7F5007F33DA93
:100C9000780000F1090809261BE0A05D8DF890009E
:100CA000701C80B20646205C8DF8910010226946C7
:100CB00024A8FFF78DFCC0B2279027982844C5B21E
:100CC000DDE92710421C92B2289202AA1154701C2E
:100CD00086B24645E1D3A05D8DF89000701C80B2CD
:100CE0000646205C8DF891001022694624A8FFF783
:100CF0006FFCC0B2019001E0032026906842C5B2AB
:100D00000198854202D00420269016E00E48006823
:100D1000484425900DA0259905F01EF800BF04F069
:100D20002DFF0128FBD004F097FF3B4602AA0220CA
:100D3000259904F0A3FF04F07DFF269829B0BDE8B3
:100D4000F08F00003A00000084000020414444522B
:100D500045535F464C4153483A000000704700003D
:100D600010B5012211030A4800F026FB01225103AD
:100D7000074800F021FB0120FFF7F0FE00224FF4AE
:100D80000051034800F018FB0120FFF7E7FE10BDFB
:100D9000000402402DE9F04104460025002600270A
:100DA00000BF1BE04FF480410F4800F0FDFA0746FA
:100DB000700800EBC776012251030B4800F0FCFAE3
:100DC0000120FFF7CBFE00224FF40051064800F04F
:100DD000F3FA0120FFF7C2FE681C85B2A542E1DBF1
:100DE0003046BDE8F081000000040240014691F861
:100DF0003500022803D08020486501207047052077
:100E000081F835000868006820F001000A68106069
:100E10000020F3E7F8B50446002000908C480068F5
:100E20004FF41651B0FBF1F7A56D2E6894F85C10E5
:100E300008208840304098B12068006800F0040025
:100E400070B12068006820F004002168086094F800
:100E50005C1008208840A860606D40F0010060656B
:100E600094F85C1001208840304068B120684069E7
:100E700000F0800040B194F85C1001208840A86028
:100E8000606D40F00200606594F85C1004208840BA
:100E9000304068B12068006800F0020040B194F86A
:100EA0005C1004208840A860606D40F0040060651C
:100EB00094F85C1010208840304078B320680068B7
:100EC00000F0080050B394F85C1010208840A8602F
:100ED0002068006800F4802080B12068006800F479
:100EE000002028B9206CC8B12046216C884715E045
:100EF000A06C98B12046A16C88470FE0206800687C
:100F000000F4807028B92068006820F0080021688B
:100F10000860206C10B12046216C884794F85C1062
:100F2000202088403040002865D02068006800F00C
:100F3000100000285FD094F85C1020208840A86042
:100F400094F83500052828D12068006820F01600A4
:100F5000216808602068406920F0800021684861AD
:100F6000206C08B9A06C28B12068006820F0080047
:100F70002168086094F85C103F208840A86000BF9A
:100F8000002084F8340000BF012084F83500206D73
:100F900010B12046216D8847F8BD2068006800F434
:100FA000802080B12068006800F4002028B9606CBF
:100FB00010B12046616C88471DE0E06BD8B1204637
:100FC000E16B884717E02068006800F4807068B91A
:100FD0002068006820F010002168086000BF002031
:100FE00084F8340000BF012084F83500E06B10B1B4
:100FF0002046E16B8847606D38B3606D00F00100FA
:10100000F0B1052084F835002068006820F0010068
:101010002168086000BF0098401C0090B84200D9C9
:1010200005E02068006800F001000028F3D100BF4F
:1010300000BF002084F8340000BF012084F8350090
:10104000E06C10B12046E16C884700BFA4E70000C7
:10105000A40000202DE9F0410446002500F0B2F97B
:10106000074614B90120BDE8F081606A00B100BFF5
:1010700000BF002084F8340000BF022084F835004F
:101080002068006820F00100216808600AE000F094
:1010900099F9C01B052805D920206065032084F834
:1010A0003500E0E72068006800F001000028EED17C
:1010B0002068056821480540D4E901010843E1683A
:1010C00008432169084361690843A1690843E1694C
:1010D0000843216A08430543606A042803D1D4E920
:1010E0000B0108430543206805602068456925F029
:1010F0000705606A0543606A04280DD1A06A0543AC
:10110000E06A48B12046FFF7BDFC28B14020606589
:10111000012084F83500A6E7206845612046FFF7E6
:1011200097FC064694F85C103F208840B060002091
:101130006065012084F83500002094E73F8010F0BE
:101140002DE9F04704460D4616461F464FF00008AD
:10115000D4F8589000BF94F83400012802D102203E
:10116000BDE8F087012084F8340000BF94F8350012
:10117000012825D1022084F83500002060653B4617
:10118000324629462046FFF7D2FC94F85C103F20F7
:101190008840C9F808002068006840F016002168FF
:1011A0000860206C28B12068006840F008002168C1
:1011B00008602068006840F001002168086006E0CF
:1011C00000BF002084F8340000BF4FF00208404602
:1011D000C6E70000F8B503460A46002500240020B3
:1011E0000021CDE0012606FA01F5166806EA05049D
:1011F000AC4273D15668012E08D05668022E05D035
:101200005668112E02D05668122E13D198684F00DE
:101210000326BE40B0434F00D668BE4030439860BE
:10122000586801268E40B0431679C6F300168E40EA
:1012300030435860D8684F000326BE40B0434F008B
:101240009668BE403043D8605668022E02D0566879
:10125000122E13D1CF0803F1200656F827004E07AF
:10126000F70E0F26BE40B0434F07FF0E1669BE4073
:101270003043CF0803F1200646F8270018684F00D6
:101280000326BE40B043167906F003064F00BE4069
:1012900030431860566806F08056B6F1805F6ED114
:1012A00000BF00260096384E366846F48046364F1A
:1012B0003E603E46366806F48046009600BF00BF9A
:1012C000324E8F0856F827008E07370F0F26BE4084
:1012D000B0432F4EB34202D1002615E04FE02D4E11
:1012E000B34201D101260FE02B4EB34201D10226B9
:1012F0000AE02A4EB34201D1032605E0284EB3424C
:1013000001D1042600E007268F073F0FBE4030437F
:101310001E4E8F0846F82700224E3068A0435668BC
:1013200006F48036B6F5803F00D120431D4E306074
:10133000361D3068A043566806F40036B6F5003F07
:1013400000D12043174E361D3060361D3068A04353
:10135000566806F48016B6F5801F00D12043114E62
:1013600008363060361D3068A043566806F4001613
:10137000B6F5001F00D120430A4E0C363060491CE0
:101380001029FFF42FAFF8BD44380240083801405F
:10139000000002400004024000080240000C02402D
:1013A00000100240003C0140024613690B400BB1A3
:1013B000012000E0002070470AB1816101E00B04C8
:1013C0008361704701480068704700009800002062
:1013D00003480068034909780844014908607047D8
:1013E00098000020A000002010B50D48006840F4CF
:1013F00000700B4908600846006840F4806008608F
:101400000846006840F480700860032000F0A2F8ED
:10141000002000F007F800F02BF8002010BD0000BD
:10142000003C024070B504460E4800784FF47A71D3
:10143000B1FBF0F00C490968B1FBF0F5284600F06B
:101440005AFE08B1012070BD102C07D2002221469F
:10145000501E00F041F80548046001E00120F2E769
:101460000020F0E7A0000020A40000209C00002045
:1014700008B500BF002000900E48006840F480408E
:101480000C4908600846006800F48040009000BFE6
:1014900000BF00BF00200090081F006840F080508F
:1014A000091F08600846006800F08050009000BFE7
:1014B00000BF08BD4438024001460846002809DB49
:1014C00000F01F0301229A4043099B0003F1E0232F
:1014D000C3F8002100BF70472DE9F05F80460D463C
:1014E0001646002703F09AFC074639462A4633463B
:1014F00001F00700C0F1070ABAF1040F02D94FF05A
:10150000040A01E0C0F1070AD14600F1040ABAF169
:10151000070F02D24FF0000A01E0A0F1030AD446FF
:101520004FF0010A0AFA09FAAAF1010A0AEA020AC4
:101530000AFA0CFA4FF0010B0BFA0CFBABF1010BA2
:101540000BEA030B4AEA0B042146404603F06EFC0B
:10155000BDE8F09F00BF00F00702064B19684FF688
:10156000FF031940044B0B4343EA0221014B19606E
:1015700000BF70470CED00E00000FA0570B50446AE
:101580000D460CB9012070BD5848006800F00F00EE
:10159000A84209D255490D700846006800F00F00B6
:1015A000A84201D00120EEE7207800F002000228D6
:1015B0001DD1207800F00400042805D14C480068B3
:1015C00040F4E0504A490860207800F008000828FC
:1015D00005D14748006840F46040454908604448E8
:1015E000006820F0F000A1680843414908602078B5
:1015F00000F00100A8B36068012807D13C48083812
:101600000068C0F34040B8B90120BCE76068022818
:1016100002D06068032807D1354808380068C0F355
:10162000406048B90120AEE7314808380068C0F38F
:10163000400008B90120A6E72D48006820F003000B
:10164000616808432A490860FFF7BCFE064609E0C6
:10165000FFF7B8FE801B41F28831884202D903208F
:1016600091E707E02248006800F00C006168B0EBE9
:10167000810FEDD11D48006800F00F00A84209D984
:101680001A490D700846006800F00F00A84201D00A
:10169000012078E7207800F00400042807D11448DE
:1016A000006820F4E050E1680843114908602078A0
:1016B00000F00800082808D10D48006820F46040B8
:1016C000216940EAC1000A49086000F03FF8084972
:1016D0000968C1F30311074A515CC8400649086014
:1016E00006480068FFF79EFE00204CE7003C0240E1
:1016F00008380240245F0008A40000209C0000205D
:101700000148006870470000A400002000B5FFF702
:10171000F7FF04490968C1F38221034A515CC840BC
:1017200000BD000008380240345F000800B5FFF734
:10173000E7FF04490968C1F34231034A515CC840DC
:1017400000BD000008380240345F00082DE9F04772
:10175000002400250026A1462548006800F00C0062
:1017600020B1042805D008283AD105E0DFF884909C
:1017700039E0DFF8849036E01D48001F006800F073
:101780003F041B48001F006800F4800078B11A482D
:101790001749091F0968C1F38811A0FB01700146B0
:1017A000224600233846FEF777FD05460EE0114835
:1017B0000F49091F0968C1F38811A0FB0170014698
:1017C000224600233846FEF767FD05460848001FFD
:1017D0000068C0F30140401C4600B5FBF6F902E08A
:1017E000DFF8109000BF00BF4846BDE8F08700005A
:1017F000083802400024F40040787D01F8B5044622
:101800000CB90120F8BD207800F00100002874D048
:10181000F948006800F00C0004280DD0F648006874
:1018200000F00C00082813D1F348001F006800F4F2
:101830008000B0F5800F0BD1EF4808380068C0F386
:101840004040002859D06068002856D10120D9E7CF
:1018500000BF6068B0F5803F08D1E74808380068ED
:1018600040F48030E449083908601EE06068B0F553
:10187000A02F0DD1E0480838006840F48020DE49F0
:10188000083908600846006840F4803008600CE0C1
:10189000D9480838006820F48030D74908390860F2
:1018A0000846006820F48020086000BF606890B19E
:1018B000FFF788FD054606E0FFF784FD401B64281E
:1018C00001D903209EE7CC4808380068C0F34040A7
:1018D0000028F1D011E0FFF775FD054606E0FFF79F
:1018E00071FD401B642801D903208BE7C2480838EA
:1018F0000068C0F340400028F1D1207800F00200D9
:1019000002285FD1BC48006800F00C0058B1BA480A
:10191000006800F00C0008281CD1B748001F0068C0
:1019200000F48000B0B9B44808380068C0F3400043
:1019300020B1E068012801D0012063E7AE480838F3
:10194000006820F0F800216940EAC100AA4908397E
:10195000086037E0E06800B30120A8490860FFF79D
:1019600031FD054606E0FFF72DFD401B022801D999
:10197000032047E7A04808380068C0F3400000286B
:10198000F1D09D480838006820F0F800216940EA4D
:10199000C10099490839086014E00020974908609F
:1019A000FFF710FD054606E0FFF70CFD401B02287F
:1019B00001D9032026E7904808380068C0F34000AA
:1019C0000028F1D1207800F0080008282CD16069A7
:1019D000A8B101208A490860FFF7F4FC054606E03B
:1019E000FFF7F0FC401B022801D903200AE78248D8
:1019F0006C300068C0F340000028F1D014E00020F3
:101A00007F490860FFF7DEFC054606E0FFF7DAFCD9
:101A1000401B022801D90320F4E677486C300068A7
:101A2000C0F340000028F1D1207800F00400042821
:101A300070D1002770483830006800F0805090B9AD
:101A400000BF002000906C483830006840F08050A3
:101A50006949383108600846006800F080500090FD
:101A600000BF00BF01276748006800F48070B0B96C
:101A70006448006840F4807062490860FFF7A2FC87
:101A8000054606E0FFF79EFC401B022801D9032013
:101A9000B8E65C48006800F480700028F2D000BF0F
:101AA000A068012808D154486830006840F001005F
:101AB0005149683108601DE0A06805280DD14E48E5
:101AC0006830006840F004004B49683108600846FF
:101AD000006840F0010008600CE04748683000688A
:101AE00020F001004449683108600846006820F091
:101AF0000400086000BFA068A8B1FFF763FC0546BA
:101B000009E0FFF75FFC401B41F28831884202D9AF
:101B1000032077E626E0384868300068C0F34000CC
:101B20000028EED013E0FFF74DFC054608E0FFF774
:101B300049FC401B41F28831884201D9032061E60B
:101B40002D4868300068C0F340000028EFD1012F15
:101B500007D129483830006820F0805026493831B4
:101B6000086000BFA069002845D02348006800F045
:101B70000C0008285DD0A069022845D100201F492B
:101B80000866FFF71FFC054606E0FFF71BFC401B3D
:101B9000022801D9032035E6174808380068C0F349
:101BA00040600028F1D1D4E907010843616A40EAA6
:101BB00081110122A06AC2EB500041EA00412C20B1
:101BC000005D41EA00600C49091F086001200B49D3
:101BD0000866FFF7F7FB054606E0FFF7F3FB401B3F
:101BE000022801D903200DE6034808380068C0F335
:101BF00040600028F1D03FE0083802400000474232
:101C0000800E47420070004000201C490866FFF724
:101C1000D9FB054606E0FFF7D5FB401B022801D99A
:101C20000320EFE516480068C0F340600028F2D1B9
:101C300022E0A069012800D1E4E5114808300668D7
:101C400006F48001E069814214D106F03F01206A68
:101C500081420FD147F6C0703040616A884209D195
:101C600006F44031A06A814204D106F07061E06A56
:101C7000814201D00120C5E50020C3E500004742B4
:101C80000038024010B504460CB9012010BD606A4E
:101C900000B900BF0021A16294F8510028B90020CA
:101CA00084F85000204600F033F8022084F85100F8
:101CB0002068006820F0400021680860D4E9010134
:101CC0000843E16808432169084361690843218B9F
:101CD00001F400710843E1690843216A0843A16ADD
:101CE0000843216808600421A06901EA1040616A84
:101CF0000843216848602068C06920F400602168BA
:101D0000C86100206065012084F851000020BDE713
:101D100010B586B00446142101A8FEF7B0FC624954
:101D2000206888426AD100BF002000905F480068A8
:101D300040F480405D4908600846006800F4804037
:101D4000009000BF00BF00BF00200090574810382F
:101D5000006840F0020055491039086008460068E4
:101D600000F00200009000BF00BF4FF460400190FF
:101D7000022002900020039003200490052005908B
:101D800001A94B48FFF726FA4A484B490860002052
:101D900048604021484881600021C1604FF4806163
:101DA0000161002141618161C16101624162FFF70E
:101DB00051F908B1FEF7D2FF00BF3F48A064846329
:101DC00000BF3C4818383D490860002048600021A9
:101DD0003A488160C1604FF4806101610021416136
:101DE0008161C16101624162FFF734F908B1FEF718
:101DF000B5FF00BF3148E064846352E03049206899
:101E000088424ED100BF002000902848006840F46E
:101E10000040264908600846006800F40040009031
:101E200000BF00BF00BF00200090204810380068AD
:101E300040F004001D49103908600846006800F0B1
:101E40000400009000BF00BF4FF4E050019002205A
:101E5000029000200390032004900620059001A921
:101E60001848FFF7B7F913481830174908600020E1
:101E700048604021144881600021C1604FF48061B6
:101E80000161002141618161C16101624162FFF72D
:101E9000E1F808B1FEF762FF00BF0B48A06484635D
:101EA00000BF06B010BD00000038004040380240BE
:101EB000000402407060024058010020B801002078
:101EC000003C004000080240180200202DE9FF5F9E
:101ED0000446884691461D460E9E01200290002031
:101EE000019000BF94F85000012803D1022004B0F3
:101EF000BDE8F09F012084F8500000BFFFF762FAB0
:101F0000074694F851B060680390AA46BBF1010FF0
:101F10000BD00398B0F5827F04D1A06810B9BBF153
:101F2000040F02D002200190DBE0B8F1000F03D0D3
:101F3000B9F1000F00D015B901200190D1E094F85B
:101F40005100042802D0052084F85100002060656B
:101F5000C4F83890E587A587C4F83080E586A58663
:101F6000206460642068006800F04000402805D0CC
:101F70002068006840F0400021680860E068B0F523
:101F8000006F4AD1606810B1BAF1010F09D1206B1E
:101F900000882168C860206B801C2063E08E401E92
:101FA000E08633E02068806800F00200022810D14B
:101FB000E08E70B1029801280BD1206B0088216857
:101FC000C860206B801C2063E08E401EE0860020ED
:101FD00002902068806800F0010068B1E08F58B17D
:101FE0002068C068A16B0880A06B801CA063E08F94
:101FF000401EE08701200290FFF7E4F9C01BB042C9
:1020000004D3701C10B1032001906AE0E08E002818
:10201000C8D1E08F0028C5D14AE0606810B1BAF19C
:10202000010F09D1206B007821680873206B401CD8
:102030002063E08E401EE08634E02068806800F077
:102040000200022810D1E08E70B1029801280BD155
:10205000206B007821680873206B401C2063E08EA1
:10206000401EE086002002902068806800F0010099
:1020700068B1E08F58B12068C068A16B0870A06B90
:10208000401CA063E08F401EE08701200290FFF714
:1020900099F9C01BB04201D3701C00B916B90320D6
:1020A00001901EE0E08E0028C7D1E08F0028C4D147
:1020B0003A463146204601F075FF20B101200190DB
:1020C000202060650DE0A06850B900BF002000909E
:1020D0002068C068009020688068009000BF00BF42
:1020E00000BF012084F8510000BF002084F8500098
:1020F00000BF0198FBE670B504462546681EB0F1A6
:10210000807F01D301200FE0681E4FF0E02148617D
:102110000F214FF0FF3002F089FE00204FF0E02148
:10212000886107200861002070BD10B503460022B9
:1021300000BF93F83C00012801D1022010BD01200E
:1021400083F83C0000BF22F0FF00CC6840EA0402A4
:1021500022F440708C6840EA040222F480604C68EB
:1021600040EA040222F400600C6840EA040222F40F
:1021700080500C6940EA040222F400504C6940EAA5
:10218000040222F48040CC6940EA040218684264E8
:1021900000BF002083F83C0000BF00BFCEE7000076
:1021A00030B502460B4600BF92F83C00012801D131
:1021B000022030BD012082F83C0000BF022082F8DE
:1021C0003D00106844681068816824F07004186845
:1021D000044310684460144D1068A84213D010687E
:1021E000B0F1804F0FD0114D1068A8420BD0104DA8
:1021F0001068A84207D00F4D1068A84203D00E4DBA
:102200001068A84205D121F0800158680143106888
:102210008160012082F83D0000BF002082F83C0070
:1022200000BF00BFC5E700000000014000040040FF
:1022300000080040000C00400040014010B504467A
:102240000CB9012010BD94F83D0028B9002084F895
:102250003C00204600F00CF8022084F83D00211DCF
:10226000206802F081F8012084F83D000020E9E7B1
:1022700008B5154A016891420FD100BF00210091B5
:102280001249096841F00101104A116011460968BC
:1022900001F00101009100BF15E00168B1F1804F2C
:1022A00011D100BF002100910849091F096841F0C0
:1022B0000101064A121F11601146096801F001016F
:1022C000009100BF00BF08BD00000140443802403B
:1022D0002DE9F04104460D4600BF94F83C0001286A
:1022E00002D10220BDE8F081012084F83C0000BF4B
:1022F000022084F83D002068866826F0770626F4E0
:102300007F46206886602868502833D00CDC20285F
:1023100050D004DC00284BD0102851D149E030289F
:1023200049D040284CD139E060282DD0702807D002
:10233000B0F5805F03D0B0F5005F41D10DE040E023
:10234000D5E902136A68206802F071F8206886688F
:1023500046F077062068866033E0D5E902136A68A4
:10236000206802F064F82068806840F480402168AA
:10237000886026E0EA686968206802F029F950213F
:10238000206802F05FF81CE0EA686968206802F0E3
:1023900032F96021206802F055F812E0EA686968B5
:1023A000206802F015F94021206802F04BF808E09F
:1023B00000BF00BF00BF2968206802F043F800E0BA
:1023C00000BF00BF012084F83D0000BF002084F85A
:1023D0003C0000BF00BF85E710B586B0044614215D
:1023E00001A8FEF74CF92349206888421ED100BF9E
:1023F000002000902048006840F010001E4908604E
:102400000846006800F01000009000BF00BF4FF4C5
:10241000206001900220029000200390049001208F
:10242000059001A91548FEF7D5FE20E02068B0F11F
:10243000804F1CD100BF002000900F48006840F082
:1024400001000D4908600846006800F00100009096
:1024500000BF00BF012001900220029000200390E5
:1024600004900120059001A90548FEF7B3FE06B0CF
:1024700010BD000000000140303802400010024052
:102480000000024070B504460D46164600BF94F8A1
:102490003C00012801D1022070BD012084F83C00DD
:1024A00000BF022084F83D0036B1042E1BD0082E58
:1024B00031D00C2E5ED145E02946206801F0CCFFDA
:1024C0002068806940F00800216888612068806980
:1024D00020F0040021688861206880692969084328
:1024E0002168886147E02946206801F0E5FF2068FF
:1024F000806940F40060216888612068806920F468
:1025000080602168886120688069296940EA01202B
:10251000216888612FE02946206802F001F82068D0
:10252000C06940F008002168C8612068C06920F0D7
:1025300004002168C8612068C069296908432168CE
:10254000C86118E02946206802F01EF82068C069BA
:1025500040F400602168C8612068C06920F4806090
:102560002168C8612068C069296940EA01202168A2
:10257000C86100E000BF00BF012084F83D0000BF3B
:10258000002084F83C0000BF00BF85E710B504467A
:102590000CB9012010BD94F83D0028B9002084F842
:1025A0003C00204600F00CF8022084F83D00211D7C
:1025B000206801F0D9FE012084F83D000020E9E701
:1025C0007047000070B504460E460122314620686F
:1025D00001F01CFF0D492068884201D1012000E074
:1025E000002028B12068406C40F400402168486415
:1025F0002068806800F00705062D05D02068006877
:1026000040F0010021680860002070BD000001401A
:10261000704701460022002391F8392091F83A30A2
:1026200042EA0300704700002DE9F04704462068A5
:1026300005682068C668206847694FF00008C146F1
:1026400005F00F08B8F1000F0AD105F0200038B1ED
:1026500006F0200020B1204602F00EF9BDE8F08718
:10266000B8F1000F72D007F0010018B906F49070AD
:1026700000286BD005F0010030B106F4807018B16D
:10268000E06B40F00100E06305F0040030B107F0BA
:10269000010018B1E06B40F00200E06305F00200B9
:1026A00030B107F0010018B1E06B40F00400E063C6
:1026B00005F0080048B106F0200010B907F001004D
:1026C00018B1E06B40F00800E063E06B70B305F018
:1026D000200028B106F0200010B1204602F0CCF80E
:1026E00020684069C0F38019E06B00F0080010B961
:1026F000B9F1000F23D0204602F094F82068406919
:1027000000F04000402816D12068406920F04000C9
:1027100021684861606B50B11748616B0865606B58
:10272000FEF764FB10B1606B016D88470CE020463A
:10273000FFF76EFF08E02046FFF76AFF04E020463F
:10274000FFF766FF0020E06388E7FFE705F0800001
:1027500030B106F0800018B1204602F0D5FA7DE7CE
:1027600005F0400030B106F0400018B1204602F0FC
:1027700069F873E700BF71E71947000810B5044610
:102780000CB9012010BDA06900B100E000BF94F8B1
:10279000390028B9002084F83800204600F028F8D5
:1027A000242084F839002068C06820F40050216893
:1027B000C860204602F0B4F82068006920F4904018
:1027C000216808612068406920F02A00216848617A
:1027D0002068C06840F400502168C8600020E063B1
:1027E000202084F8390084F83A000020CAE700006D
:1027F00010B586B00446142101A8FDF740FF2E490C
:102800002068884256D100BF002000902B48006805
:1028100040F01000294908600846006800F01000E8
:10282000009000BF00BF00BF002000902348143874
:10283000006840F00100214914390860084600682A
:1028400000F00100009000BF00BF4FF4C060019095
:10285000022002900120039003200490072005909D
:1028600001A91748FEF7B6FC1648174908604FF053
:10287000006048604021144881600021C1604FF42D
:1028800080610161002141618161C1610162416238
:10289000FEF7E0FB08B1FEF761FA00BF0A482063CB
:1028A000846300BF002211462520FEF715FE252077
:1028B000FEF702FE06B010BD001001404438024091
:1028C00000000240B8640240B802002010B5034680
:1028D00093F83A0020282FD101B10AB9012010BD88
:1028E00000BF93F83800012801D10220F7E701204A
:1028F00083F8380000BF99629A85DA850020D86392
:10290000222083F83A0000BF002083F8380000BF7F
:102910001868C06840F480701C68E06018684069FE
:1029200040F001001C6860611868C06840F0200039
:102930001C68E0600020D2E70220D0E710B5044612
:1029400010490978104A1068421C0F4B1A600F4A50
:10295000115418460068402802D10020194608602A
:102960000B480068401C0A490860402804D1002038
:102970000860012007490870012202490648FFF754
:10298000A5FF10BD1C000020280000209823002077
:10299000300000203400002078020020F7B5044603
:1029A000154694F8390020283DD1019800B10DB9A1
:1029B0000120FEBD00BF94F83800012801D102209B
:1029C000F7E7012084F8380000BF01982062A58451
:1029D000E5840020E063212084F839001348216B4E
:1029E000C8631348216B08641248216BC864002037
:1029F000216B086501AE23681A1D31682B46206BD8
:102A0000FEF79EFB6FF040002168086000BF0020C9
:102A100084F8380000BF2068406940F080002168D9
:102A200048610020C5E70220C3E700007D47000899
:102A3000B34700082D4700087047704700BFFEE706
:102A400070B505460024002601F0EAFD01F03CFACD
:102A500001F082FB05F0010600BF22E0012E05D146
:102A60000122D1032E48FEF7A7FC05E000224FF417
:102A700000412B48FEF7A0FC012251032848FEF735
:102A80009BFC0120FEF76AF800224FF40051244815
:102A9000FEF792FC0120FEF761F8C5F34006601CCA
:102AA00084B2042CDADB0126002420E0012E05D1BB
:102AB0000122D1031A48FEF77FFC05E000224FF403
:102AC00000411748FEF778FC012251031448FEF735
:102AD00073FC0120FEF742F800224FF40051104829
:102AE000FEF76AFC0120FEF739F8601C84B2042C62
:102AF000DCDB00224FF400410948FEF75DFCFEF7E5
:102B00002FF902F06FF901F0DFF901F0D7FA202078
:102B1000FEF740F90646314602A003F01DF970BDEC
:102B2000000402404A5441475F49443A0000000013
:102B300070B505460024F7480488008818B928466F
:102B400002F082FF04460020F2490880F249086042
:102B5000F2480088322803D8F14800889D2828D9F7
:102B60000020F0490870ED490880EF490860EF49FE
:102B70000870EF490870EF4908600120EE490860CD
:102B8000EE4908600020EE490870EE490870EE49F1
:102B90000870EE490860EE4908602020ED49087091
:102BA000ED4908700020ED490870ED490870DC49D6
:102BB00008802CE1D8480068285C7E282DD1D948AF
:102BC0000078002829D10120D64908700020D34977
:102BD0000880D5490860D5490870D5490870D5499D
:102BE00008600120D4490860D44908600020D44915
:102BF0000870D4490870D4490870D4490860D44991
:102C000008602020D3490870D34908700020D349B8
:102C10000870D3490870C2490880BF480068295C21
:102C2000D048C14A12688154BD480088401CBC4944
:102C30000880CC48BC490968405C3B280ED1C84894
:102C4000007858B9B7480078012807D10020B54965
:102C500008700120B6490870C0490870C148B249DF
:102C60000968405C3D2805D0BE48AF490968405C12
:102C70003A2807D1B248007820B90120B04908703D
:102C8000B6490870B748A8490968405C2E280AD19F
:102C9000AC48007838B9B248007820B90120A94979
:102CA0000870AE490870AF489F490968405C242805
:102CB00008D1A548007828B90220A349087001204E
:102CC000A64908709848006802286AD9A548807803
:102CD000202866D1A1480078002862D19A4800785F
:102CE00002285ED296480078012807D09D488E4978
:102CF0000968415C9C488F4A12688154904800786A
:102D000001280AD18F48007838B996488649096861
:102D1000415C9048884A12688154894800780128AB
:102D20000BD188480078012807D18E487E49096870
:102D3000405C8949814A126888548148007801289A
:102D400009D07C48006820282BD27A480068401CB3
:102D50007849086025E07A480078012810D1794840
:102D6000007868B974480068FF2809D8724800687C
:102D7000401C7149086076480068401C744908602E
:102D80006F48007801280CD16E480078012808D1DE
:102D90006A480068FF2804D868480068401C6749F2
:102DA00008606948007802280BD16C48007840B967
:102DB0006C485D490968405C6449086001206249CB
:102DC00008706348006861490968884206D25E4815
:102DD0000078012802D16249087002E000206049B1
:102DE000087051480068C82804D24F480068401C49
:102DF0004D49086048480068C82804D24648006821
:102E0000401C45490860641E002054490870002C8D
:102E10007FF4D0AE46480078012879D15148007837
:102E20007E2805D14148007840F001003F490870F4
:102E30004C4840784D490978884205D13B48007894
:102E400040F002003949087038480078032811D151
:102E500047A14548FDF73AFC68B93E48FDF7ABFB92
:102E60004649086046A001F025FC4AA001F022FC7A
:102E700001F0F6FB3BE248A13B48FDF727FC80B997
:102E80003448FDF798FB3D49086046A001F012FC6C
:102E900040A001F00FFC002002F044F9374908601F
:102EA00025E245A13048FDF711FC68B92948FDF736
:102EB00082FB324908603BA001F0FCFB35A001F029
:102EC000F9FB00F087FB12E23EA12748FDF7FEFB6D
:102ED00078B92048FDF76FFB284908603BA001F056
:102EE000E9FB2CA001F0E6FB24480068FFF7A8FDF1
:102EF000FDE13AA11C48FDF7E9FB50B939A001F00A
:102F0000D9FB24A001F0D6FB002000F0E5FDEEE1A6
:102F100037E26FE0480000205400002072000020DB
:102F20004A000020520000204C00002050000020E9
:102F300051000020580000205C00002060000020AC
:102F400068000020690000206A0000206400002062
:102F50006C000020AA250020AA2600207100002075
:102F600070000020C12400208A250020410000209C
:102F70004A5441475F545354000000008C00002025
:102F8000EFF0E8EDFFEB204A5441475F5453540DF6
:102F9000000000000D0000004A544147325F5343D7
:102FA000414E0000EFF0E8EDFFEB204A5441475F4F
:102FB0005343414E0D0000004A544147315F534393
:102FC000414E00004A5441475F494400EFF0E8EDAC
:102FD000FFEB204A5441475F49440D0068656C701F
:102FE00000000000EFF0E8EDFFEB2068656C700D6D
:102FF00000000000E9A1EB48FDF768FB48B901219A
:10300000E948FDF7B5FD06463146E8A002F0A4FE0A
:103010006DE1E8A1E348FDF759FB80B9E7A001F0B5
:1030200049FB0422EA49AB2002F0B2FDE9A001F01D
:1030300041FBE748C178E8A002F08EFE57E1E8A125
:10304000D848FDF743FBB8B9E8A001F033FB0322F1
:10305000DF499F2002F09CFDDEA001F02BFBDC4845
:103060008078182802D1E7A001F024FBD8488178A5
:10307000E9A002F071FE3AE1E9A1CA48FDF726FB9A
:1030800048BBC948FDF797FAE8490860E848FDF7EA
:1030900092FAE8490860E8A001F00CFB0422CC4950
:1030A000052002F075FDCBA001F004FBC8480178B3
:1030B000E7A002F051FEC6484178E7A002F04CFEBE
:1030C000C3488178D4A002F047FEC148C178C2A0AD
:1030D00002F042FE0BE1E2A1B248FDF7F7FAE8BBCD
:1030E000B148FDF768FAD1490860D148FDF763FAA5
:1030F000D0490860CD480168DCA002F02DFE4FF4F5
:103100008073B34AC9480168032002F061FDDCA066
:1031100001F0D0FA002425E0AD48035D00221846F6
:10312000114601F057FFAA49601C0B5C00221846AB
:10313000114601F04FFFA649A01C0B5C0022184667
:10314000114601F047FFA249E01C0B5C0022184623
:10315000114601F03FFFE41C9EA000E005E001F0F5
:10316000A9FA641CFF2CD7D9C1E0CDA18D48FDF789
:10317000ADFA28BB8C48FDF71EFAAC490860AC4894
:10318000FDF719FAAB490860A8480168C8A002F029
:10319000E3FDBBA001F08EFA002402E08C490C553F
:1031A000641CFF2CFAD902F057FD4FF48073884A53
:1031B0009E480168022002F061FD02F03BFD96E0AE
:1031C000C2A17848FDF782FAA8B97748FDF7F3F96C
:1031D0009649086008460168C1A002F0BDFD02F0F2
:1031E0003BFD00237A4A91480168D82002F046FD51
:1031F00002F020FD7BE0C1A16A48FDF767FA80B9C3
:103200006948FDF7D8F98949086008460168BFA0F8
:1032100002F0A2FD02F020FD02F09EFC02F00AFD89
:1032200065E0C1A15F48FDF751FAF0B95E48FDF7CE
:10323000C2F97E49086008460168BDA002F08CFD15
:1032400000224FF48051BE48FEF7B6F8774908785F
:1032500002F070FC06463146BAA002F07DFD012264
:103260001103B748FEF7A8F841E0B9A14D48FDF7B2
:103270002DFAC8B94C48FDF79EF96C4908606C48B6
:10328000FDF799F96B49086068480168B2A002F03F
:103290004FFD68480168B4A002F032FD6348006841
:1032A000B2490968486322E0B1A13E48FDF70EFA31
:1032B000E8B93D48FDF77FF95C4908605C48FDF7D7
:1032C0007AF95C49086059480168ABA002F030FD0A
:1032D00058480168A4A002F013FD54480068AA49A8
:1032E0000968486353480068A7490968C862002410
:1032F00003E000202B490855641C202CF9D300243E
:1033000003E0002028490855641CFF2CF9D900244B
:1033100003E0002046490855641CFF2CF9D900241D
:1033200003E0002099490855641CC82CF9D30020FB
:10333000974908809749087097490860974908702D
:103340000024974908709749086097490860974991
:10335000087097490860974908709749086097492D
:10336000087097490860974908609749087097491D
:10337000087020200C4908702D49087000209449DD
:10338000088087480078012804D184480078012803
:1033900000D100BF2748006870BD0000455043536E
:1033A0005F5752008A250020AA2500206572723AD4
:1033B00000000000455043535F4944000D0AEFF000
:1033C000E8EDFFEB20455043535F49443A0D0A00B6
:1033D000EA2700200D0A00006D61735B335D3A003F
:1033E000455043535F4445565F4944000D0AEFF092
:1033F000E8EDFFEB20455043535F4445565F494499
:103400003A0D0A007265636976653A204550435368
:103410003132380D0A0000006D61735B325D3A0095
:10342000455043535F535441545553008C00002082
:10343000AA260020880000200D0AEFF0E8EDFFEB3F
:1034400020455043535F5354415455533A0D0A009D
:103450006D61735B305D3A006D61735B315D3A00A5
:10346000455043535F524541440000000D0AEFF0C0
:10347000E8EDFFEB20455043535F524541443A008D
:103480000D0A2D2D2D2D2D2D2D2D2D2D2D2D2D2DAF
:103490002D2D2D2D2D2D2D2D2D2D2D2D2D0D0A00CC
:1034A000455043535F57524954455F544553540068
:1034B0000D0AEFF0E8EDFFEB20455043535F575204
:1034C0004954455F544553543A0000004550435316
:1034D0005F45524153455F534543544F52000000EE
:1034E0000D0AEFF0E8EDFFEB20455043535F4552E6
:1034F0004153455F534543544F523A00455043535F
:103500005F45524153455F414C4C00000D0AEFF0BE
:10351000E8EDFFEB20455043535F45524153455F73
:10352000414C4C3A0000000073706932000000000A
:103530000D0AEFF0E8EDFFEB20737069323A0000FE
:1035400000040240737069325F726561643A000082
:1035500054494D31000000000D0AEFF0E8EDFFEB9B
:103560002054494D313A00002E000000180300207D
:1035700054494D32000000000D0AEFF0E8EDFFEB7A
:103580002054494D323A000058030020C124002045
:1035900072000020520000204C000020500000204B
:1035A00051000020580000205C000020680000202E
:1035B0006000002069000020540000206A00002004
:1035C000640000206C0000207100002070000020CA
:1035D0004A00002070B50024002501F021F800F019
:1035E00073FC00F0B9FD00BF17E00122D1031448BD
:1035F000FDF7E2FE012251031148FDF7DDFE012037
:10360000FDF7ACFA00224FF400510D48FDF7D4FE4F
:103610000120FDF7A3FA601C84B2FF2CE5DDFDF765
:103620009FFB01F0DFFB00F04FFC00F047FD00F0D6
:103630006DFC0546294603A002F062FB70BD000048
:10364000000402404A54414720434841494E3A0051
:1036500010B50E480068B0F57A7F16D90C4800788E
:10366000C0430B4908700846007828B10122510375
:103670000848FDF7A1FE05E000224FF4005105487F
:10368000FDF79AFE00200149086010BD04000020EB
:10369000900000200008024010B50A480068B0F50C
:1036A0007A7F04D9012291030748FDF785FE074878
:1036B0000068B0F57A7F04D90122D1030248FDF7F2
:1036C0007BFE10BD10000020000802401400002006
:1036D00008B500BF002000901E48006840F40010AC
:1036E0001C4908600846006800F40010009000BF04
:1036F00000BF00BF002000900846006840F4800032
:1037000008600846006800F48000009000BF00BF19
:10371000002211460E20FDF7DFFE0E20FDF7CCFE45
:10372000002211460F20FDF7D7FE0F20FDF7C4FE43
:10373000002211461020FDF7CFFE1020FDF7BCFE41
:10374000002211464620FDF7C7FE4620FDF7B4FED5
:1037500008BD00003038024000B587B0142102A82F
:10376000FCF78DFF00BF002001905048006840F03A
:1037700004004E4908600846006800F0040001900B
:1037800000BF00BF00BF002001900846006840F065
:10379000100008600846006800F01000019000BFAB
:1037A00000BF00BF002001900846006840F0020002
:1037B00008600846006800F00200019000BF00BFEA
:1037C00000BF002001900846006840F00800086033
:1037D0000846006800F00800019000BF00BF00BF6D
:1037E000002001900846006840F00100086008468B
:1037F000006800F00100019000BF00BF00224FF4FC
:1038000060412B48FDF7D8FD002201212948FDF732
:10381000D3FD002220212848FDF7CEFD4FF4604063
:1038200002900120039000200490059002A92048F6
:10383000FDF7D0FC4FF4204002900020039004904C
:1038400002A91C48FDF7C6FC4FF4C060029002209C
:10385000039000200490032005900720069002A901
:103860001648FDF7B7FC0120029003900020049059
:10387000059002A90F48FDF7ADFC4BF22000029025
:103880000120039000200490059002A90A48FDF74A
:10389000A1FC4FF48040029000200390049002A904
:1038A0000548FDF797FC07B000BD00003038024026
:1038B00000080240000C02400004024000000240E8
:1038C00010B50E480E4908604FF482704860002120
:1038D0000B488160C160016141614FF400718161F9
:1038E0002021C16100210162416281620A21C1621D
:1038F000FEF7C8F908B1FDF731FA10BD003C0040F1
:103900000001002000B595B0002011901290139096
:1039100014900F9010901C2108A8FCF7B0FE2021F5
:103920006846FCF7ACFE31483149086040F2CF7080
:10393000486000212E4881604CF24F31C160002167
:103940000161416180218161FEF778FC08B1FDF7DA
:1039500005FA4FF48050119011A92548FEF7B8FCE4
:1039600008B1FDF7FBF92248FEF710FE08B1FDF79C
:10397000F5F900200F9010900FA91D48FEF710FCDC
:1039800008B1FDF7EBF96020089042F21070099041
:1039900000200A900B900C900D900E90002208A928
:1039A0001348FEF76FFD08B1FDF7D8F9042208A906
:1039B0000F48FEF767FD08B1FDF7D0F90020009031
:1039C00001900290039004904FF400500590002065
:1039D000079069460648FEF7A8FB08B1FDF7BEF957
:1039E0000348FEF7F9FC15B000BD000000000140DF
:1039F0001803002000B58DB0002009900A900B90AC
:103A00000C90079008901C216846FCF738FE4FF098
:103A10008040214908600020486000211E488160E4
:103A20004FF47A71C1600021016180218161FEF74C
:103A300005FC08B1FDF792F94FF48050099009A9EF
:103A40001548FEF745FC08B1FDF788F91248FEF766
:103A50009DFD08B1FDF782F900200790089007A9A5
:103A60000D48FEF79DFB08B1FDF778F96020009046
:103A70004FF47A7001900020029004900022694671
:103A80000548FEF7FFFC08B1FDF768F90248FEF7AC
:103A9000A3FC0DB000BD00005803002010B50B487A
:103AA0000B4908604FF4E13048600021084881600C
:103AB000C16001610C21416100218161C161FEF79A
:103AC0005DFE08B1FDF74AF910BD0000001001408D
:103AD0007802002000BFFEE770B50546002403E031
:103AE00037A000F0E7FD641C142CF9DB002403E090
:103AF00034A000F0DFFD641C142CF9DB30A000F0D2
:103B0000D9FD31A000F0D6FD2DA000F0D3FD3AA0E4
:103B100000F0D0FD3AA000F0CDFD3CA000F0CAFDC1
:103B200042A000F0C7FD46A000F0C4FD49A000F08F
:103B3000C1FD4DA000F0BEFD50A000F0BBFD5BA09C
:103B400000F0B8FD63A000F0B5FD6CA000F0B2FD80
:103B500071A000F0AFFD76A000F0ACFD79A000F000
:103B6000A9FD81A000F0A6FD884800F0A3FD88A073
:103B700000F0A0FD8BA000F09DFD8FA000F09AFD4D
:103B800092A000F097FD96A000F094FD9BA000F09D
:103B900091FDA1A000F08EFD09A000F08BFD08A012
:103BA00000F088FDA8A000F085FD05A000F082FDD2
:103BB00003A000F07FFD02A000F07CFD70BD0000BE
:103BC0000D0000002D0000002E2E2E2E2E2E2E2E4B
:103BD0002E2E5465726D696E616C20D2E5F1F2EEA5
:103BE000E2EEE920EFEBE0F2FB2E2E2E2E2E2E2E13
:103BF0002E2E0D0A000000004D454E55203A0D00B6
:103C00002D2D2D2D2D2D2D0D00000000D0E0F1F8D3
:103C1000E8F4F0EEE2EAE020F1F2F0F3EAF2F3F099
:103C2000FB20EAEEECE0EDE4FB3A0D007E202D20D7
:103C3000F1F2E0F0F2EEE2FBE920E1E0E9F20D0062
:103C400031202D20E0E4F0E5F120E0E1EEEDE5EDBE
:103C5000F2E00D003B2D20EAEEEDE5F620EFE0F777
:103C6000EAE8200D000000002E2E2E2E2E2E2E2EE5
:103C70002E2E2E2E2E2E200D000000002D2D2D2D4F
:103C80002D2D2D2D2D2D2D2D2D2D2D2D2D2D2D2D64
:103C90002D2D2D2D2D2D2D2D2D2D2D2D2D2D2D2D54
:103CA0002D2D2D2D2D2D2D2D2D0D0A00495020208F
:103CB0003A3139322E3136382E312E313633202DED
:103CC00020495020E0E4F0E5F120202020E1EBEE57
:103CD000EAE00D00504F52543A3230353420202063
:103CE000202020202020202D20EDEEECE5F020EFFC
:103CF000EEF0F2E020E1EBEEEAE00D007E3020682D
:103D0000656C703B202D20F2E5EAF3F9E5E520EC47
:103D1000E5EDFE0D000000007E3020696E666F3B11
:103D2000202D20E8EDF4EEF0ECE0F6E8FF200D00A9
:103D30007E3020646163315F696E69743B202D20A1
:103D40000D0000007E3020646163315F723A303BC9
:103D50002020202D20F7F2E5EDE8E520F0E5E3E86E
:103D6000F1F2F0E00D0000007E3020646163315F0D
:103D7000773A302E303B202D20E7E0EFE8F1FC20B1
:103D8000F0E5E3E8F1F2F0E00D000000645F000808
:103D90007E3020646163315F696E666F3A303B202C
:103DA0000D0000007E3020646163315F696E6974CC
:103DB0003A303B200D0000007E3020646163315FAB
:103DC0007068795F77723A303B200D007E30206456
:103DD0006163315F7068795F696E666F3B200D00CB
:103DE0007E30206C6D6B5F73796E633B202D20738A
:103DF000796E6320EDE0204C4D4B0D007E30206944
:103E00006E69745F6C6D6B3B202D20696E69742048
:103E1000EDE0204C4D4B0D002D2D2D2D2D2D2D2D5C
:103E20002D2D2D2D2D2D2D2D2D2D2D2D2D2D2D2DC2
:103E30002D2D2D2D2D2D2D2D2D2D2D2D2D2D2D2DB2
:103E40002D2D2D0D000000002B2B2B2B2B2B2B2B86
:103E50002B2B2B2B2B2B2B2B2B2B2B2B0D00000051
:103E60007047000070B500254FF400510748FDF77A
:103E70009BFA044606480078A04204D00448047027
:103E800014B9012500E00025284670BD000C024051
:103E90009100002070B500254FF400410748FDF760
:103EA00083FA044606480078A04204D0044804700F
:103EB00014B9012500E00025284670BD000C024021
:103EC000920000207047000010B500224FF480518E
:103ED0000D48FDF771FA00224FF400410A48FDF742
:103EE0006BFA012251030848FDF766FA0120FCF73E
:103EF00035FE00224FF400510348FDF75DFA012022
:103F0000FCF72CFE10BD00000004024070B5002438
:103F10000025002600BF17E00122D1032048FDF74D
:103F20004BFA012251031E48FDF746FA0120FCF727
:103F300015FE00224FF400511948FDF73DFA01200B
:103F4000FCF70CFE601C84B2FF2CE5DD00224FF470
:103F500000411348FDF730FA00241CE04FF4804183
:103F60000F48FDF721FA064606B916E0681C85B22F
:103F7000012251030A48FDF71FFA0120FCF7EEFD6C
:103F800000224FF400510648FDF716FA0120FCF715
:103F9000E5FD601C84B2FF2CE0DD00BFE8B270BD1F
:103FA000000402407CB504460D46164616480068DB
:103FB0001821B0FBF1F01549B0FBF1F04FF47A7124
:103FC000484301906068B0F5827F0DD12B460022F6
:103FD00080212046009600F01BF898B1606D40F0FB
:103FE0002000606503207CBD00BF019800B908E097
:103FF0000198401E019020688068C0F3C01000281E
:10400000F3D100BF0020EEE7A400002040420F00E3
:104010002DE9F04104460E4617461D46DDF818808E
:104020003EE0681CD8B3FDF7CDF9A0EB0800A8422C
:1040300000D2A5BB2068406820F0E00021684860FD
:104040006068B0F5827F0DD1A068B0F5004F03D055
:10405000A068B0F5806F05D12068006820F04000AE
:1040600021680860A06AB0F5005F0DD100BF20682C
:10407000006820F40050216808602068006840F45F
:1040800000502168086000BF012084F8510000BF83
:10409000002084F8500000BF0320BDE8F081FFE756
:1040A000206880683040B04201D1012000E000204B
:1040B000B842B6D10020F0E77047000010B50122E9
:1040C00011032448FDF778F900224FF400412148FC
:1040D000FDF772F9012251031E48FDF76DF9012029
:1040E000FCF73CFD00224FF400511A48FDF764F93B
:1040F0000120FCF733FD00224FF480511548FDF7F5
:104100005BF9012251031348FDF756F90120FCF732
:1041100025FD00224FF400510E48FDF74DF9012016
:10412000FCF71CFD00224FF480510A48FDF744F9CA
:10413000012251030748FDF73FF90120FCF70EFD6E
:1041400000224FF400510348FDF736F90120FCF737
:1041500005FD10BD0004024010B5012211032C48DA
:10416000FDF72AF9012251032948FDF725F901201D
:10417000FCF7F4FC00224FF400512548FDF71CF930
:104180000120FCF7EBFC012211032148FDF714F993
:10419000012251031E48FDF70FF90120FCF7DEFC58
:1041A00000224FF400511A48FDF706F90120FCF7F0
:1041B000D5FC00224FF480511548FDF7FDF801228F
:1041C00051031348FDF7F8F80120FCF7C7FC002263
:1041D0004FF400510E48FDF7EFF80120FCF7BEFC4C
:1041E00000224FF480510A48FDF7E6F801225103FE
:1041F0000748FDF7E1F80120FCF7B0FC00224FF47E
:1042000000510348FDF7D8F80120FCF7A7FC10BDCA
:104210000004024010B5FDF7DBF81848006820B133
:1042200016480068401E154908601548006810F1DE
:10423000100F04D212480068401C11490860114850
:10424000006810F1100F04D20E480068401C0D49A0
:1042500008600D480068401C0B4908600B48006866
:10426000401C0A4908600A480068401C0849086068
:1042700008480088401C0749088010BD180000202D
:10428000100000201400002020000020000000206A
:10429000040000207200002000B593B0302107A870
:1042A000FCF7EDF9142102A8FCF7E9F900BF0020A2
:1042B00001902448006840F0805022490860084678
:1042C000006800F08050019000BF00BF00BF0020D8
:1042D00001901D48006840F440401B4908600846B2
:1042E000006800F44040019000BF00BF022007902A
:1042F00001200A9010200B9002200D9000210E91B9
:1043000008210F9164211091022111910421129131
:1043100007A8FDF773FA08B1FCF720FD0F20029003
:1043200002200390002004904FF48050059000205C
:104330000690032102A8FDF721F908B1FCF70EFD54
:1043400013B000BD403802400070004005480068CE
:1043500040F47000034908604FF000600149803963
:104360000860704788ED00E010B50268204B984265
:104370000BD0B0F1804F08D01E4B984205D01E4B99
:10438000984202D01D4B984203D122F070024B6834
:104390001A43174B984214D0B0F1804F11D0154BEF
:1043A00098420ED0144B98420BD0144B984208D030
:1043B000134B984205D0134B984202D0124B9842AF
:1043C00003D122F44072CB681A4322F080034C6977
:1043D00043EA040202608B68C3620B688362044B89
:1043E000984201D10B6903630123436110BD0000B2
:1043F000000001400004004000080040000C0040A4
:1044000000400140004401400048014030B501F047
:104410001F05012404FA05F3046A9C430462046A3C
:1044200001F01F0502FA05F52C43046230BD30B5DA
:104430000C46816821F47F4142EA03252543294344
:10444000816030BD0A46816821F0700142F00703A7
:10445000194381607047000030B5056A25F00105F9
:104460000562026A4368846924F0700424F003043E
:104470000D682C4322F002028D682A430D4DA8429C
:1044800006D100BF22F00802CD682A4322F00402C0
:10449000084DA84207D123F4807323F400734D69BB
:1044A0002B438D692B43436084614D6845630262F1
:1044B00030BD00000000014030B5056A25F0100550
:1044C0000562026A4368846924F4E04424F4407479
:1044D0000D6844EA052422F020028D6842EA0512A4
:1044E0000E4DA84207D100BF22F08002CD6842EAFB
:1044F000051222F04002094DA84209D123F480633D
:1045000023F400634D6943EA85038D6943EA85031B
:10451000436084614D688563026230BD00000140E4
:1045200030B5056A25F480750562026A4368C4697E
:1045300024F0700424F003040D682C4322F400726C
:104540008D6842EA05220F4DA84207D100BF22F430
:104550000062CD6842EA052222F48062094DA84239
:1045600009D123F4805323F400534D6943EA051322
:104570008D6943EA05134360C4614D68C5630262F7
:1045800030BD00000000014030B5056A25F48055BB
:104590000562036A4468C26922F4E04222F4407270
:1045A0000D6842EA052223F400538D6843EA05337F
:1045B000064DA84204D124F480444D6944EA851490
:1045C0004460C2614D680564036230BD0000014073
:1045D00030B50B461446026A056A25F001050562EE
:1045E000816921F0F00141EA041122F00A021A4324
:1045F0008161026230BD30B50B461446056A25F074
:10460000100505628169026A21F4704141EA0431B2
:1046100022F0A00242EA03128161026230BD000072
:1046200010B50024012211030C48FCF7C5FE00BFA1
:1046300011E0012251030948FCF7BEFE0120FCF7FE
:104640008DFA00224FF400510448FCF7B5FE01201A
:10465000FCF784FA641C052CEBDB10BD000402405F
:1046600070B500240825002000F05CFD08210E48EC
:1046700000F03AFC044621460CA001F06DFBFC2141
:10468000094800F031FC0446214608A001F064FB13
:10469000FC210548143000F027FC0446214603A005
:1046A00001F05AFB70BD00002C2900206461746188
:1046B0003A00000070B50646002500241348007833
:1046C00010BB3046FBF7BCFF85B211480088284478
:1046D00041F6FB71884202D900200D4908800C4840
:1046E000048807E00A480088201A305C0949085508
:1046F000601C84B2064800882844A042F2DC0448CA
:10470000008828440249088070BD00002400002071
:10471000260000209803002070B50546AC6B0020F1
:10472000E085E0842046FDF773FF70BD70B5064656
:104730000025B46B20684069C0F3C01594F83900B7
:10474000212805D125B10020E084204600F08AF818
:1047500020684069C0F3801594F83A00222805D1FA
:1047600025B10020E085204600F05CF8E06B40F0C9
:104770001000E0632046FDF74BFF70BD70B50546A5
:10478000AC6B2868006800F4807070B90020E08489
:104790002068406920F08000216848612068C06876
:1047A00040F040002168C86002E02046FEF744F96E
:1047B00070BD70B50446A56B2846FEF73EF970BD86
:1047C00010B51348FDF725FF21281FD011480078A8
:1047D000E0B911480088012801D9012000E000203B
:1047E0000E490968FA2901D9012100E00021084099
:1047F00060B109480488224609490548FEF7CEF809
:1048000000200549088001200249087010BD000001
:104810007802002024000020260000202000002034
:10482000980300200168C96821F490710268D16082
:104830000168496921F0010102685161202180F875
:104840003A10704710B504462068C06820F0400058
:104850002168C860202084F839002046FEF7ECF873
:10486000002010BD0168C96821F0C0010268D16054
:10487000202180F83910704770B5044694F83A004A
:1048800022284AD1A068B0F5805F13D1A56A2069BB
:1048900040B920684068C0F308002880A06A801CE6
:1048A000A06219E020684068C0B22880A06A401C5D
:1048B000A06211E0206938B920684068C1B2A26ADC
:1048C000501CA062117007E02068406800F07F0172
:1048D000A26A501CA0621170E08D401E80B2E0857B
:1048E000C8B92068C06820F020002168C86020682E
:1048F000C06820F480702168C8602068406920F09A
:10490000010021684861202084F83A002046FEF723
:1049100015F8002070BD0020FCE70220FAE7000037
:104920002DE9F84F04462068006920F44050E16802
:104930000843216808612169A06808436169084348
:10494000E169084300902068C06849F20C6188431F
:10495000009908432168C8602068406920F44070CD
:10496000A169084321684861E069B0F5004F75D13D
:10497000E3492068884203D0E249206888426FD129
:10498000FCF7D4FE814602206168A0FB01510B4672
:104990001920A9FB00712A463846FBF77DFC6421EB
:1049A000B0FBF1F04FEA001A02206168A0FB015150
:1049B0000B461920A9FB00712A463846FBF76CFC10
:1049C000074602206168A0FB01510B461920A9FB94
:1049D00000B12A465846FBF75FFC6421B0FBF1F0BA
:1049E00000EBC00101EB0010A7EB8000322101EBCE
:1049F000C0006421B0FBF1F000F0F8000AEB400ABF
:104A000002206168A0FB01510B461920A9FB00712F
:104A10002A463846FBF740FC074602206168A0FBA7
:104A200001510B461920A9FB00B12A465846FBF755
:104A300033FC6421B0FBF1F000EBC00101EB00108E
:104A4000A7EB8000322101EBC0006421B0FBF1F044
:104A500000F007005044216888604FE16EE0FFE7F6
:104A6000FCF754FE814602206168A0FB01510B4611
:104A70001920A9FB00712A463846FBF70DFC64217A
:104A8000B0FBF1F04FEA001A02206168A0FB01516F
:104A90000B461920A9FB00712A463846FBF7FCFBA0
:104AA000074602206168A0FB01510B461920A9FBB3
:104AB00000B12A465846FBF7EFFB6421B0FBF1F04A
:104AC00000EBC00101EB0010A7EB8000322101EBED
:104AD000C0006421B0FBF1F000F0F8000AEB400ADE
:104AE00002206168A0FB01510B461920A9FB00714F
:104AF0002A463846FBF7D0FB074602206168A0FB38
:104B0000015003461920A9FB00B12A465846FBF77D
:104B1000C3FB6421B0FBF1F000EBC00101EB00101E
:104B2000A7EB8000322101EBC0006421B0FBF1F063
:104B300000F00700504421688860DFE07049206879
:104B4000884203D06F49206888426BD1FCF7EEFDA4
:104B5000814604206168A0FB01510B461920A9FB86
:104B600000712A463846FBF797FB824604206168AD
:104B7000A0FB01510B461920A9FB00712A463846BB
:104B8000FBF78AFB6421B0FBF1F000EBC00101EB05
:104B90000010AAEB8000322101EB00106421B0FB71
:104BA000F1F000F0F00A04206168A0FB0150034618
:104BB0001920A9FB00712A463846FBF76DFB6421DA
:104BC000B0FBF1F00AEB001A04206168A0FB015170
:104BD0000B461920A9FB00712A463846FBF75CFBFF
:104BE000074604206168A0FB015003461920A9FB79
:104BF00000B12A465846FBF74FFB6421B0FBF1F0A9
:104C000000EBC00101EB0010A7EB8000322101EBAB
:104C100000106421B0FBF1F000F00F005044216857
:104C200088606BE0FCF772FD814604206168A0FBA0
:104C3000015003461920A9FB00712A463846FBF7AC
:104C40002BFB824604206168A0FB0150034619201B
:104C5000A9FB00712A463846FBF71EFB6421B0FB16
:104C6000F1F000EBC00101EB0010AAEB8000322153
:104C700001EB00106421B0FBF1F000F0F00A042019
:104C80006168A0FB015003461920A9FB00712A4668
:104C90003846FBF701FB6421B0FBF1F00AEB001A88
:104CA00004206168A0FB017003461920A9FB005095
:104CB00001463A462846FBF7EFFA074604206168AA
:104CC000A0FB015003461920A9FB00B12A46584613
:104CD000FBF7E2FA6421B0FBF1F000EBC00101EB5D
:104CE0000010A7EB8000322101EB00106421B0FB23
:104CF000F1F000F00F00504421688860BDE8F88FA3
:104D00000010014000140140014691F839002128AB
:104D10002CD18868B0F5805F0FD10A6A1088C0F383
:104D200008000B685860086918B9086A801C086296
:104D300009E0086A401C086205E00B6A581C08621A
:104D400018780B685860C88C401E80B2C88458B967
:104D50000868C06820F080000B68D8600868C068E8
:104D600040F040000B68D860002070470220FCE74C
:104D700070B5002400251448006818B31248006874
:104D8000C82803D21048006885B200E0C825002476
:104D90000DE000F0B9F80D490855601C0C49088079
:104DA0000A48005D3B2800D103E0601C84B2AC429D
:104DB000EFDB00BF00200549054A128888540846E9
:104DC000FDF7B6FE70BD000030000020D8230020A3
:104DD0004800002010B50248FDF726FC10BD000079
:104DE0007802002010B5012211030A48FCF7E4FA0A
:104DF000012251030748FCF7DFFA0120FBF7AEFE62
:104E000000224FF400510348FCF7D6FA0120FBF7CB
:104E1000A5FE10BD0004024000BFFEE70248006886
:104E2000C0F30220704700000CED00E010B5002830
:104E300004DB0A07130E054A135406E00A07140E92
:104E4000034A00F00F031B1FD45410BD00E400E020
:104E500018ED00E030380A2801D201207047002008
:104E6000704700002DE9F04387B006460F46144610
:104E70001D46C4F30028E4B20020C00040EA55708B
:104E8000062101EA640141EAC50240EAE1711046E7
:104E90000FB1012200E00022104341EAE271CDE9A6
:104EA0000401B8F1000F01D00B2000E00A200246F7
:104EB00031460C4800F0F4F8232004AB02AA314636
:104EC0000090084800F0B2F807210298084000F06E
:104ED000FF09DDE90210420742EAD10007B0BDE850
:104EE000F08300001829002070B505460C46002309
:104EF000224601212846FFF7B5FF00230C2201219D
:104F00002846FFF7AFFF70BD00BF0C4909680029B4
:104F1000FBD00B4A11684A1C094B1A60094A505CC5
:104F200019460968402902D100211A461160034937
:104F30000968491E014A11607047000030000020D6
:104F40002C0000209823002070B504460D46022C4A
:104F500004D10022C1020A48FCF72EFA032C05D125
:104F600000224FF400410648FCF726FA052C05D133
:104F700000224FF400510248FCF71EFA70BD0000F9
:104F80000004024070B504460D464FF480410248CB
:104F9000FCF70AFA70BD00000004024070B5044638
:104FA0000D46022C04D10122C1020948FCF704FA83
:104FB000032C04D10122D1030548FCF7FDF9052C8F
:104FC00004D1012251030248FCF7F6F970BD00003C
:104FD000000402402DE9F04706460F4690464FF088
:104FE0000009424634463D4620462946FBF7CBF9A8
:104FF00000F0FF094A4609A10948FBF7D7F909A0C3
:10500000FFF758FBB9F1100F02DA07A0FFF752FBC8
:105010000348FFF74FFBBDE8F0870000255800006C
:10502000A124002020000000300000002DE9F04104
:1050300004460D4616461F46DDF818801648032123
:105040008268012090472A781449002023699847F4
:1050500066B1687808B9012000E0002001464346A7
:105060003A463046D4F80CC0E04709E0697809B9FF
:10507000012100E00021084642463946236998474D
:105080006A7806490120236998470348022182680B
:1050900001209047BDE8F08118290020F25D00084A
:1050A00037B505460C4620690299884200D13EBDBD
:1050B000002008E04FF0FF3100EB8002154B03EBBE
:1050C00082021161401C144909688842F2DB02988F
:1050D000206112480421826803209047E278104939
:1050E00000202B699847A278217909B9012100E0B5
:1050F0000021084602A92B69984722790849012016
:105100002B6998470548022182680120904700BF1B
:10511000CDE700002C290020940000201829002051
:10512000F25D0008F8B506460020F64908604FF425
:105130002571F548FBF7A3FAF4A0FFF7BBFA00F0DE
:1051400057FBF64908688047002E50D0F4A0FFF7BF
:10515000B1FAFEA0FFF7AEFAF048042182680320FE
:105160009047002534E0307800B93FE03378EB48D1
:10517000FD4A0021C7686846B847009800F0010062
:1051800028B9FAA0FFF796FA4FF0FF30F8BD307853
:10519000DC49096801EB8101DB4A02EB810188707F
:1051A000D849096801EB810102EB8101CD70D54836
:1051B0000078D449096801EB810102F821003078B8
:1051C0000544761CCF480068401CCE49086000BFEB
:1051D000CC480068202809DCCA48006800EB800041
:1051E000C94901EB800080781028BCDD89E0D7A098
:1051F000FFF760FAC9480421826803209047E2A0C3
:10520000FFF758FAC548012142680020904738B995
:10521000E2A0FFF74FFA4FF0FF30BA490860B5E758
:105220000120B949887001253EE0BC48012142684F
:105230000020904730B3B348006800EB8000B249CB
:1052400001EB80008078012800D13BE00121AD48CE
:105250000068401CAB4A106000EB8000AA4A02EBD9
:1052600080008170A749096801EB810102EB81018F
:10527000CD70A4480078A349096801EB810102F8C8
:10528000210010E09F48006800EB80009E4901EB80
:1052900080008078401C9B49096801EB81019A4A93
:1052A00002EB810188706D1C96480068202809DC9B
:1052B0009448006800EB8000934901EB80008078FF
:1052C0001028B2DD00BF8F480068202807DDC2A08B
:1052D000FFF7F0F94FF0FF308A49086056E7894838
:1052E000006800EB8000884901EB8000807810287E
:1052F00007DDC4A0FFF7DEF94FF0FF3081490860F9
:1053000044E780480168C9A000F0FAFCCBA0FFF791
:10531000D1F9824801214268084690477F4802211E
:10532000826801209047CCA0FFF7C4F97B48032195
:1053300082680120904700240AE072480078001B30
:10534000401E04EB8401704A02EB81014870641C2A
:105350007248012142680020904718B969480068E6
:105360008442EADD67480068844207D0C148FFF7FD
:10537000A1F94FF0FF306349086007E7AFA0FFF7DE
:1053800099F966480121426808469047634802211E
:105390008268012090475B48006808B90020F5E664
:1053A00058480068441E14E004EB8400564901EBA1
:1053B0008000007904EB8401534A02EB8101897873
:1053C0000844C1B2601E00EB800002EB8000017156
:1053D000641E002CE8D15149086880474F480321DA
:1053E00082680120904700BF27E04C4801214268B5
:1053F0000020904700B91FE0012004EB8401424ADD
:1054000002EB81018860022513E0444801214268D3
:105410000020904760B104EB84003B4901EB800021
:105420008068284304EB8401374A02EB81018860DD
:105430006D00002DE9D100BF641C32480068844231
:10544000D3DB7EA0FFF736F93448012142680846D5
:10545000904732480221826801209047002481E170
:10546000002532E004EB8400274901EB80008068CE
:10547000814901EB0511496808407F4901EB05119D
:105480000968884220D14FF0FF3004EB84011E4AA6
:1054900002EB81010861784800EB0510806804EB9D
:1054A000840102EB8101C860734800EB0510C068FD
:1054B00048B104EB8402144B03EB82006E4A02EB0A
:1054C0000512D168884706E06D1C6B4800EB05109B
:1054D00000680028C6D100BF68A0FFF7EBF821469E
:1054E0003CA000F025FC75A0FFF7E4F804EB840075
:1054F000054A02EB8000816836A000F045FC70A0F0
:10550000E0E00000940000202C2900205265736523
:105510007474696E67205441500D0A0018290020E8
:10552000476976656E206C697374206F66204952F6
:10553000206C656E677468732C20736B697070697A
:105540006E672070726F62650A0D00004368616EBD
:10555000676520737461746520746F205368696691
:10556000742D49520A0D0000F25D000863686563FE
:105570006B206661696C65643A2049525B305D203E
:10558000213D20310A0D00005363616E6E696E6724
:10559000206F7574204952730A0D00006A746167A8
:1055A0005F7363616E3A2053616E6974792063683A
:1055B00065636B206661696C65643A2049525B30B3
:1055C0005D2073686966746564206F75742061730B
:1055D00020300A0D000000006A7461675F73636128
:1055E0006E3A204D6178696D756D206465766963EA
:1055F0006520636F756E74206578636565646564A6
:105600000A0D00006A7461675F7363616E3A204D32
:105610006178696D756D204952206C656E6774689C
:105620002065786365656465640A0D006A74616766
:105630005F6465765F636F756E743A00526574756A
:10564000726E20746F2052756E2D546573742F49DD
:10565000646C650A0D0000004368616E6765207325
:105660007461746520746F2053686966742D4452A8
:105670000A0D0000AC5F0008FC5D00080D0A2D2D2E
:105680002D2D2D2D2D2D2D2D2D2D2D2D2D2D2D2D4A
:105690002D2D2D2D2D2D2D2D2D2D2D2D2D2D2D2D3A
:1056A0002D2D2D2D2D2D2D2D2D2D2D2D2D2D2D2D2A
:1056B0002D2D2D2D2D2D0D0A00000000292000007C
:1056C000202D2000FEF7F6FF04EB8401294A02EBAF
:1056D0008101C868FEF7EEFF27A0FEF7EBFF04EBA1
:1056E0008400244A12F8201024A000F009FB04EBE7
:1056F0008400204A02EB8000417824A000F000FBE7
:1057000004EB84001B4A02EB8000817823A000F0A8
:10571000F7FA04EB8400174A02EB8000C17823A05B
:1057200000F0EEFA04EB8400124A02EB80000179EB
:1057300022A000F0E5FA04EB84000E4A02EB8000A0
:10574000816822A000F0DCFA04EB8400094A02EB35
:105750008000016921A000F0D3FAAFF2E000FEF76B
:10576000A9FF641C214800688442FFF679AE1F48F7
:1057700000680BE52C2900200D0A000064725F70A0
:1057800072657363616E203A0000000064725F709E
:105790006F73747363616E3A0000000069725F6C2E
:1057A000656E20202020203A0000000069725F70A2
:1057B00072657363616E203A0000000069725F7069
:1057C0006F73747363616E3A000000006964636F05
:1057D000646520202020203A00000000637572726A
:1057E000656E745F6972203A00000000940000202A
:1057F00010B510481049086010484860104888608B
:105800001048C86010480861002404E0002101200D
:1058100000F01CF8641C322CF8DD10214EF23C70B4
:1058200000F0EBF80448062182681F209047002012
:1058300010BD0000A9580008182900204D58000884
:10584000FB5900082F590008BD58000870B50446E0
:105850000D4600BF24B101210220FFF79FFB03E0AA
:1058600001210220FFF770FB00BF00BF25B101211D
:105870000320FFF793FB03E001210320FFF764FB04
:1058800000BF01210520FFF789FB01210420FFF75C
:1058900079FB064601210520FFF756FB0EB10120DA
:1058A00070BD0020FCE7000010B5034806218268A7
:1058B0001F20904710BD0000182900202DE9F0415D
:1058C00007460C46154601262BE000BF0DB100200F
:1058D00000E0384620B101210220FFF75FFB03E022
:1058E00001210220FFF730FB00BF00BF20783040CD
:1058F00020B101210320FFF751FB03E00121032028
:10590000FFF722FB00BF01210520FFF747FB7006D0
:10591000000E060001D10126641C01210520FFF7BD
:1059200013FB2800A5F10105CFD1BDE8F0812DE9D9
:10593000F0470646894617469846012400BF0121D4
:105940000220FFF701FB00BF002526E000BF3878EA
:10595000204020B101210320FFF720FB03E00121BB
:105960000320FFF7F1FA00BF01210520FFF716FB26
:1059700001210420FFF706FB00B125436006000E5D
:10598000040004D13570002501247F1C761CA8F189
:10599000010801210520FFF7D7FAB8F1010FD5DC86
:1059A00000BFB9F1000F04D001210220FFF7F6FA81
:1059B00003E001210220FFF7C7FA00BF00BF3878DB
:1059C000204020B101210320FFF7E8FA03E0012184
:1059D0000320FFF7B9FA00BF01210520FFF7DEFA27
:1059E00001210420FFF7CEFA00B1254335700121D3
:1059F0000520FFF7A9FABDE8F08770B504460D460B
:105A000000BF01210320FFF7C9FA00BF04F001061F
:105A100017E000BF26B101210220FFF7BFFA03E023
:105A200001210220FFF790FA00BF01210520FFF7B6
:105A3000B5FA640804F001066D1E01210520FFF788
:105A400083FA002DE5D170BD0146002001E0421C23
:105A5000D0B20A5C0AB17828F9DB70470024FBF762
:105A6000C3FCFEF719FCFDF777FEFDF731FEFDF7ED
:105A700027FFFDF747FFFDF7BDFFFEF70FF80122F7
:105A80001D491E48FCF722FF00211D48FCF79AFD26
:105A900000211C48FCF796FD1BA0FEF70BFE1BA087
:105AA000FEF708FE1DA0FEF705FE18A0FEF702FE99
:105AB00030201E490870012220211D48FBF77CFC84
:105AC00019E0E043C4B22CB1012220211848FBF7B1
:105AD00073FC04E0002220211548FBF76DFCFDF764
