:020000040800F2
:10000000782F002059020008AD3B0008152A00088F
:1000100021380008F90900086148000800000000C4
:10002000000000000000000000000000213D00086A
:10003000570B000800000000093C0008253D00089F
:1000400073020008730200087302000873020008BC
:1000500073020008730200087302000873020008AC
:10006000730200087302000873020008730200089C
:100070007302000873020008FD0900080D0A000859
:100080001D0A000873020008730200080000000047
:1000900000000000000000000000000073020008E3
:1000A000730200087302000873020008730200085C
:1000B000730200087302000873020008730200084C
:1000C000730200087302000873020008730200083C
:1000D0007302000851480008730200080000000085
:1000E0007302000873020008730200080000000099
:1000F0000000000000000000000000007302000883
:100100000000000073020008730200087302000878
:1001100000000000000000000000000000000000DF
:1001200073020008730200087302000873020008DB
:100130007302000800000000000000000000000042
:100140000000000000000000000000007302000832
:1001500073020008730200082D0A000873020008E9
:100160007302000873020008000000000000000095
:10017000000000000000000000000000000000007F
:1001800000000000730200080000000000000000F2
:10019000730200087302000800F002F800F04DF846
:1001A0000AA090E8000C82448344AAF10107DA45D2
:1001B00001D100F042F8AFF2090EBAE80F0013F0D7
:1001C000010F18BFFB1A43F001031847D84B00007A
:1001D000F84B0000103A24BF78C878C1FAD852070B
:1001E00024BF30C830C144BF04680C6070470000B1
:1001F0000023002400250026103A28BF78C1FBD830
:10020000520728BF30C148BF0B607047752900F006
:10021000E180782900F01A81002070471FB504F0B2
:1002200073FD00F06BFB04000020002104F056FD7C
:10023000401C60601FBD10B510BD00F071FB114681
:10024000FFF7ECFF04F088FB00F08FFB03B4FFF72F
:10025000F2FF03BC00F090FB0948804709480047C3
:10026000FEE7FEE7FEE7FEE7FEE7FEE7FEE7FEE766
:10027000FEE7FEE704480549054A064B70470000C3
:100280005D3E00089901000878290020782F0020A1
:10029000782B0020782B002053EA020C00F06980B4
:1002A0002DE9F04B4FF00006002B1FBFB3FA83F58A
:1002B00003FA05F424FA05F65E4012BF1643B2FABB
:1002C00082F502FA05F4C5F120051EBF22FA05FCED
:1002D00044EA0C04203556EA044C4FEA144418BF93
:1002E000641C4FF000084FF00009904271EB030CC2
:1002F00039D3002919BFB1FA81F701FA07F6B0FA2C
:1003000080F700FA07F6C7F120071EBF20FA07FCA6
:1003100046EA0C062037B6FBF4FCA7EB0507103FB6
:1003200007F01F0BCBF120060CFA0BFB2CFA06F69C
:1003300044BFB3460026202FA4BF5E464FF0000BFB
:100340005BEA060C08BF4FF0010B19EB0B09ABFB86
:10035000027C48EB0608C01B06FB02CC0BFB03CC5F
:1003600071EB0C01C1E70B46024641464846BDE829
:10037000F08B13B54FF000004FF00001AFF3008099
:10038000BDE81C407047B2F120030AD5C2F120033A
:1003900020FA02F001FA03F321FA02F140EA030025
:1003A000704721FA03F04FF0000170470FB41CB5FD
:1003B000074B06AA7B4469460090059800F033FA83
:1003C0000020694600F042FA1CBC5DF814FB0000F6
:1003D000950400002DE9F0410646002410687529B7
:1003E000314616A510D0AFF30080002802DA404253
:1003F00013A507E031688A0701D512A502E0490775
:1004000004D511A5012401E0AFF3008000210A22E8
:1004100006F1240709E0B0FBF2FCB0FBF2F302FBAB
:100420001C00303078541846491C0028F3D123466C
:100430002A463046BDE8F04100F096B900000000C1
:100440002D0000002B0000002000000070B50446C5
:100450000D4621461068AFF300802188090502D5BA
:100460000F4A7A4402E00E4A7A440E32002104F127
:10047000240305E000F00F060009965D5E54491C58
:100480000028F7D120780023000704D5702D02D072
:1004900009B1022311322046BDE8704000F064B972
:1004A000CC4800002DE9F0474FF0000A8946044689
:1004B000C0F820A02046E1688847002876D025288B
:1004C00006D0D4E901219047206A401C2062F1E760
:1004D000E168204600258847C4F81CA0064600278E
:1004E000C4F818A02A2E09D0304604F0D7F938B342
:1004F00004EB8708303EC8F8186019E059F8041B6F
:10050000204604EB87029161E1688847012F064687
:1005100018D1E069002820DA25F020051DE0D8F880
:10052000180000EB800006EB40003038C8F81800D7
:100530002046E1688847064604F0B0F90028EED16D
:10054000012F0AD02E2E08D12046E16888477F1C53
:100550000646022F45F02005C4DBA069002803DA17
:10056000404245F00105A061E80701D025F01005E3
:10057000B6B1A6F14100192802D8203645F400652D
:100580004A463146204625604D46FFF73FFE58B1AA
:10059000012806D0ED1D25F0070000F1080989E7C4
:1005A00004E005F1040985E730468AE7206ABDE8E2
:1005B000F08770B5064600F0D3F80468054630466B
:1005C0000A22002100F002F82C6070BD2DE9F047EE
:1005D00091460F4680460446002614F8015B2DB173
:1005E00000F0B6F80068405DC007F6D12B2D02D0B0
:1005F0002D2D18D0641E4A463946204600F02BF9AE
:1006000027B13968A14201D1C7F800804FF0020438
:1006100071050BD54042002803DD00F0A1F804600D
:10062000A007BDE8F08746F48066E4E70028F8DA22
:1006300000F096F804606FF00040F2E710B5431C3C
:1006400002E010F8011B71B18107FAD14FF00132BD
:1006500002C88C1A8C4314EAC211F9D0C01A0A06D7
:1006600003D0C01E10BDC01A10BD0A0401D0801EE8
:1006700010BD0902FCD0401E10BD4FF0000200B5B5
:10068000134694469646203922BFA0E80C50A0E8B5
:100690000C50B1F12001BFF4F7AF090728BFA0E863
:1006A0000C5048BF0CC05DF804EB890028BF40F82F
:1006B000042B08BF704748BF20F8022B11F0804F71
:1006C00018BF00F8012B70474FF0013C50F8042B85
:1006D00051F8043B9A4221D1A2EB0C03934313EA55
:1006E000CC1317D150F8042B51F8043B9A4215D182
:1006F000A2EB0C03934313EACC130BD150F8042B59
:1007000051F8043B9A4209D1A2EB0C03934313EA3C
:10071000CC13DBD04FF00000704700BFD01A01BAF5
:10072000B1FA81F101F0180122FA01F0CB40C1F1D8
:100730002001DBB2C0B2C01A2CFA01F3D11A9143E6
:1007400011EAC311E6D17047704770477047000047
:1007500010B500F0D3F8001D10BD00BF81450000AA
:1007600000487047142900202DE9F0470D469946AE
:100770009246044600F124080168880604D5E06921
:1007800021F01001216000E00120A84201DD471B9B
:1007900000E00027A1697A1902EB0900081AA0619C
:1007A0002078C00602D42046AFF30080002608E07F
:1007B000D4E901211AF806009047206A401C761CF3
:1007C00020624E45F4DB2078C0060AD52046AFF300
:1007D000008006E0D4E9012130209047206A401CC7
:1007E0002062381EA7F10107F4DC07E0D4E90121FB
:1007F00018F805009047206A401C2062281EA5F1C9
:100800000105F3DC2046AFF300802078000602D516
:100810000220BDE8F0870120FBE7000001694A1CC7
:1008200002610878704700B58FB0CDE90131002131
:10083000059105497944CDE9031011466846FFF753
:1008400031FE0FB000BD0000E5FFFFFF0A6802F8AF
:10085000010B0A6070472DE9F05F824615468B4612
:1008600000270AF10104B9460078302801D09DB173
:1008700013E014F8010B0127782803D0582801D081
:1008800045B10AE00DB1102D07D1002714F8010B76
:10089000102502E0082500E00A250026B0460EE0FB
:1008A00005FB080005FB06F101271FFA80F801EBA4
:1008B0001046B6F5803F00D3B94614F8010B29461F
:1008C00000F020F80028EBDABBF1000F05D00FB1E3
:1008D000641E00E05446CBF80040B9F1000F06D08A
:1008E000FFF73EFF02210160C81EBDE8F09F48EA05
:1008F0000640FAE700487047142900200048704776
:10090000342900203A2800D2303820F02002412A31
:1009100001D3A2F13700884201D34FF0FF30704776
:100920007546FFF7E7FFAE4605006946534620F0DF
:100930000700854618B020B5FFF79CFCBDE82040B5
:100940004FF000064FF000074FF000084FF0000B8B
:1009500021F00701AC46ACE8C009ACE8C009ACE83E
:10096000C009ACE8C0098D4670470446AFF300806B
:100970002046FFF76BFC000001491820ABBEFEE7E4
:10098000260002007047000010B503F011F958B1BD
:1009900000224FF48041054800F0FAFC0020044991
:1009A000086004A003F0C4FB10BD00000008024072
:1009B0001000002042544E5F31202121210D0A00F9
:1009C00010B503F00BF958B100224FF4004105486F
:1009D00000F0DEFC00200449086004A003F0A8FB3E
:1009E00010BD0000000802401400002042544E5F79
:1009F00032202121210D0A0000BFFEE710B5024878
:100A000000F0F4F910BD0000B401002010B5024858
:100A100000F0ECF910BD00005401002010B50248B0
:100A200000F0E4F910BD00001402002010B5002011
:100A30000349087003490860034800F0D7F910BD66
:100A40002400002020000020B40200200146087885
:100A500010381823B0FBF3F20848805CC865032AFD
:100A600005D908686FF30900001D886503E0086870
:100A70006FF309008865886D70470000124D00080B
:100A8000014600208A6A8B69CBB932B1012A0DD0A8
:100A9000022A03D0032A10D10EE000BFCB6A03F074
:100AA0008073B3F1807F00D1012007E0CB6AB3F1FE
:100AB000C07F00D1012001E000E000BF34E08B697D
:100AC000B3F5005F1AD132B1012A07D0022A03D050
:100AD000032A11D10AE000BF01200EE0CB6A03F027
:100AE0008073B3F1807F00D1012006E0CB6AB3F1BF
:100AF000C07F00D1012000E000BF15E032B1012A23
:100B000005D0022A04D0032A0CD103E000BF00BFA5
:100B1000012008E0CB6A03F08073B3F1807F00D13D
:100B2000012000E000BF00BF704730B504682468B2
:100B300024F4802405682C60046863608468402C79
:100B400004D10468A2600468E16003E00468A16065
:100B50000468E26030BD70472DE9F34FA9B0044648
:100B600000202890002600278146824683460025E3
:100B7000279080462690259023902490802103A8DA
:100B8000FFF77BFD0020029020783A2805D02A98B4
:100B9000022802D101202790EAE077A003F0C8FAEA
:100BA00060788DF89400A0788DF89500102201A946
:100BB00025A8FFF70BFD87B2E819C5B239466FA02B
:100BC00004F072F8E0788DF88C0020798DF88D00B3
:100BD00060798DF88E00A0798DF88F00102201A920
:100BE00023A8FFF7F3FC1FFA80F905EB29204844FE
:100BF000C5B2494661A004F02BF8E0798DF8940065
:100C0000207A8DF89500102201A925A8FFF7DEFCB7
:100C10001FFA80FA05EB0A00C5B2514657A004F04E
:100C200043F8BAF1040F42D1607A8DF88C00A07AB3
:100C30008DF88D00E07A8DF88E00207B8DF88F0086
:100C4000102201A923A8FFF7C1FC804605EB18205C
:100C50004044C5B2414649A003F0FAFF607B8DF8DD
:100C60009400A07B8DF89500102201A925A8FFF71C
:100C7000ADFCC0B2029041A0029904F015F86842A0
:100C8000C5B23FA003F054FA29463EA003F0C8FFC6
:100C90003EA0029903F0C4FF0298854202D00220D0
:100CA000279065E04FEA08403A49086060E0B7F5F0
:100CB000007F3BDA780000F1090809261FE0A05DFB
:100CC0008DF89400701C80B20646205C8DF895006B
:100CD000102201A925A8FFF779FC00F0FF0B05EB16
:100CE0000B00C5B22898411C89B2289103A901F8CC
:100CF00000B0594621A003F0D7FF701C86B24645CC
:100D0000DDD3A05D8DF89400701C80B20646205C97
:100D10008DF89500102201A925A8FFF757FCC0B255
:100D2000029016A0029903F0BFFF01E00320279074
:100D30006842C5B20298854202D00420279017E08D
:100D400015A003F0F5F9134800684844269018A050
:100D5000269903F065FF03F0E3FE3B4603AA022059
:100D6000269903F0EFFE03F0C9FE05A003F0E0F9B9
:100D700027982BB0BDE8F08F3A000000000000007B
:100D80000D0A00002043433A000000004352433A5A
:100D900000000000840000200D0AEFF0EEE3F0E018
:100DA000ECE8F0F3E5EC20F4EBE5F83A0D0A00008E
:100DB0004144445245535F464C4153483A00000079
:100DC0007047014691F83500022803D0802048651D
:100DD00001207047052081F835000868006820F080
:100DE00001000A6810600020F3E70000F8B504462F
:100DF000002000908C4800684FF41651B0FBF1F7CA
:100E0000A56D2E6894F85C1008208840304098B199
:100E10002068006800F0040070B12068006820F0CD
:100E200004002168086094F85C1008208840A860DD
:100E3000606D40F00100606594F85C10012088400E
:100E4000304068B12068406900F0800040B194F8FB
:100E50005C1001208840A860606D40F00200606571
:100E600094F85C1004208840304068B12068006825
:100E700000F0020040B194F85C1004208840A860A3
:100E8000606D40F00400606594F85C1010208840AC
:100E9000304078B32068006800F0080050B394F840
:100EA0005C1010208840A8602068006800F4802052
:100EB00080B12068006800F4002028B9206CC8B117
:100EC0002046216C884715E0A06C98B12046A16CA3
:100ED00088470FE02068006800F4807028B9206817
:100EE000006820F0080021680860206C10B12046DE
:100EF000216C884794F85C102020884030400028FE
:100F000065D02068006800F0100000285FD094F8D9
:100F10005C1020208840A86094F83500052828D16E
:100F20002068006820F01600216808602068406989
:100F300020F0800021684861206C08B9A06C28B1BD
:100F40002068006820F008002168086094F85C10B0
:100F50003F208840A86000BF002084F8340000BF14
:100F6000012084F83500206D10B12046216D88479E
:100F7000F8BD2068006800F4802080B12068006817
:100F800000F4002028B9606C10B12046616C8847DD
:100F90001DE0E06BD8B12046E16B884717E0206880
:100FA000006800F4807068B92068006820F01000C4
:100FB0002168086000BF002084F8340000BF0120D1
:100FC00084F83500E06B10B12046E16B8847606D16
:100FD00038B3606D00F00100F0B1052084F83500F1
:100FE0002068006820F001002168086000BF0098B8
:100FF000401C0090B84200D905E02068006800F06D
:1010000001000028F3D100BF00BF002084F83400A5
:1010100000BF012084F83500E06C10B12046E16C7F
:10102000884700BFA4E70000A00000202DE9F041A0
:101030000446002500F0B2F9074614B90120BDE8C6
:10104000F081606A00B100BF00BF002084F8340066
:1010500000BF022084F835002068006820F00100FD
:10106000216808600AE000F099F9C01B052805D93D
:1010700020206065032084F83500E0E720680068E0
:1010800000F001000028EED12068056821480540E5
:10109000D4E901010843E168084321690843616913
:1010A0000843A1690843E1690843216A08430543ED
:1010B000606A042803D1D4E90B0108430543206882
:1010C00005602068456925F00705606A0543606A88
:1010D00004280DD1A06A0543E06A48B12046FFF715
:1010E000CFFC28B140206065012084F83500A6E7D8
:1010F000206845612046FFF7A9FC064694F85C107D
:101100003F208840B06000206065012084F83500F1
:10111000002094E73F8010F02DE9F04704460D468B
:1011200016461F464FF00008D4F8589000BF94F8B8
:101130003400012802D10220BDE8F087012084F8A4
:10114000340000BF94F83500012825D1022084F82E
:101150003500002060653B46324629462046FFF7B1
:10116000E4FC94F85C103F208840C9F8080020682F
:10117000006840F0160021680860206C28B12068E3
:10118000006840F00800216808602068006840F0AE
:1011900001002168086006E000BF002084F83400E8
:1011A00000BF4FF002084046C6E70000F8B503460E
:1011B0000A460025002400200021CDE0012606FA81
:1011C00001F5166806EA0504AC4273D15668012E93
:1011D00008D05668022E05D05668112E02D05668E7
:1011E000122E13D198684F000326BE40B0434F0023
:1011F000D668BE4030439860586801268E40B043A0
:101200001679C6F300168E4030435860D8684F00F8
:101210000326BE40B0434F009668BE403043D860BE
:101220005668022E02D05668122E13D1CF0803F151
:10123000200656F827004E07F70E0F26BE40B04393
:101240004F07FF0E1669BE403043CF0803F120065A
:1012500046F8270018684F000326BE40B0431679B1
:1012600006F003064F00BE4030431860566806F093
:101270008056B6F1805F6ED100BF00260096384ED2
:10128000366846F48046364F3E603E46366806F481
:101290008046009600BF00BF324E8F0856F82700E8
:1012A0008E07370F0F26BE40B0432F4EB34202D1F8
:1012B000002615E04FE02D4EB34201D101260FE08C
:1012C0002B4EB34201D102260AE02A4EB34201D18D
:1012D000032605E0284EB34201D1042600E007268C
:1012E0008F073F0FBE4030431E4E8F0846F8270041
:1012F000224E3068A043566806F48036B6F5803F2B
:1013000000D120431D4E3060361D3068A043566822
:1013100006F40036B6F5003F00D12043174E361DC7
:101320003060361D3068A043566806F48016B6F566
:10133000801F00D12043114E08363060361D3068C2
:10134000A043566806F40016B6F5001F00D12043EE
:101350000A4E0C363060491C1029FFF42FAFF8BD3F
:1013600044380240083801400000024000040240B6
:1013700000080240000C024000100240003C014006
:10138000024613690B400BB1012000E000207047BA
:101390000AB1816101E00B04836170470148006874
:1013A0007047000094000020034800680349097852
:1013B0000844014908607047940000209C00002008
:1013C00010B50D48006840F400700B4908600846ED
:1013D000006840F4806008600846006840F480704F
:1013E0000860032000F0A2F8002000F007F800F0E9
:1013F0002BF8002010BD0000003C024070B50446F0
:101400000E4800784FF47A71B1FBF0F00C4909688E
:10141000B1FBF0F5284600F05AFE08B1012070BD7E
:10142000102C07D200222146501E00F041F805483A
:10143000046001E00120F2E70020F0E79C000020BA
:10144000A00000209800002008B500BF00200090F8
:101450000E48006840F480400C4908600846006867
:1014600000F48040009000BF00BF00BF002000904B
:10147000081F006840F08050091F08600846006897
:1014800000F08050009000BF00BF08BD443802400B
:1014900001460846002809DB00F01F0301229A409C
:1014A00043099B0003F1E023C3F8002100BF70470C
:1014B0002DE9F05F80460D461646002703F0D2F96D
:1014C000074639462A46334601F00700C0F1070AAD
:1014D000BAF1040F02D94FF0040A01E0C0F1070A83
:1014E000D14600F1040ABAF1070F02D24FF0000A08
:1014F00001E0A0F1030AD4464FF0010A0AFA09FA02
:10150000AAF1010A0AEA020A0AFA0CFA4FF0010BE0
:101510000BFA0CFBABF1010B0BEA030B4AEA0B04D1
:101520002146404603F0A6F9BDE8F09F00BF00F059
:101530000702064B19684FF6FF031940044B0B4393
:1015400043EA0221014B196000BF70470CED00E037
:101550000000FA0570B504460D460CB9012070BDB7
:101560005848006800F00F00A84209D255490D7094
:101570000846006800F00F00A84201D00120EEE705
:10158000207800F0020002281DD1207800F004002D
:10159000042805D14C48006840F4E0504A490860EE
:1015A000207800F00800082805D14748006840F47A
:1015B0006040454908604448006820F0F000A16898
:1015C000084341490860207800F00100A8B3606832
:1015D000012807D13C4808380068C0F34040B8B93A
:1015E0000120BCE76068022802D06068032807D1A8
:1015F000354808380068C0F3406048B90120AEE7BC
:10160000314808380068C0F3400008B90120A6E757
:101610002D48006820F00300616808432A490860EB
:10162000FFF7BCFE064609E0FFF7B8FE801B41F25B
:101630008831884202D9032091E707E022480068F8
:1016400000F00C006168B0EB810FEDD11D4800681F
:1016500000F00F00A84209D91A490D700846006829
:1016600000F00F00A84201D0012078E7207800F0B8
:101670000400042807D11448006820F4E050E16811
:10168000084311490860207800F00800082808D1B4
:101690000D48006820F46040216940EAC1000A4911
:1016A000086000F03FF808490968C1F30311074AD0
:1016B000515CC8400649086006480068FFF79EFE76
:1016C00000204CE7003C0240083802401A4D000858
:1016D000A00000209800002001480068704700002A
:1016E000A000002000B5FFF7F7FF04490968C1F327
:1016F0008221034A515CC84000BD00000838024006
:101700002A4D000800B5FFF7E7FF04490968C1F357
:101710004231034A515CC84000BD00000838024015
:101720002A4D00082DE9F047002400250026A14697
:101730002548006800F00C0020B1042805D00828D6
:101740003AD105E0DFF8849039E0DFF8849036E0A4
:101750001D48001F006800F03F041B48001F006880
:1017600000F4800078B11A481749091F0968C1F3CD
:101770008811A0FB01700146224600233846FEF77F
:101780008BFD05460EE011480F49091F0968C1F39A
:101790008811A0FB01700146224600233846FEF75F
:1017A0007BFD05460848001F0068C0F30140401C4F
:1017B0004600B5FBF6F902E0DFF8109000BF00BF6D
:1017C0004846BDE8F0870000083802400024F400D5
:1017D00040787D01F8B504460CB90120F8BD2078A9
:1017E00000F00100002874D0F948006800F00C00F7
:1017F00004280DD0F648006800F00C00082813D12A
:10180000F348001F006800F48000B0F5800F0BD192
:10181000EF4808380068C0F34040002859D060689D
:10182000002856D10120D9E700BF6068B0F5803F9D
:1018300008D1E7480838006840F48030E4490839A6
:1018400008601EE06068B0F5A02F0DD1E0480838B0
:10185000006840F48020DE490839086008460068C6
:1018600040F4803008600CE0D9480838006820F463
:101870008030D749083908600846006820F4802085
:10188000086000BF606890B1FFF788FD054606E07C
:10189000FFF784FD401B642801D903209EE7CC4854
:1018A00008380068C0F340400028F1D011E0FFF78D
:1018B00075FD054606E0FFF771FD401B642801D960
:1018C00003208BE7C24808380068C0F34040002876
:1018D000F1D1207800F0020002285FD1BC480068F6
:1018E00000F00C0058B1BA48006800F00C0008285D
:1018F0001CD1B748001F006800F48000B0B9B4489C
:1019000008380068C0F3400020B1E068012801D029
:10191000012063E7AE480838006820F0F80021692C
:1019200040EAC100AA490839086037E0E06800B31E
:101930000120A8490860FFF731FD054606E0FFF7E2
:101940002DFD401B022801D9032047E7A048083895
:101950000068C0F340000028F1D09D4808380068B6
:1019600020F0F800216940EAC1009949083908606F
:1019700014E0002097490860FFF710FD054606E0D7
:10198000FFF70CFD401B022801D9032026E79048F1
:1019900008380068C0F340000028F1D1207800F03A
:1019A000080008282CD16069A8B101208A49086084
:1019B000FFF7F4FC054606E0FFF7F0FC401B0228A9
:1019C00001D903200AE782486C300068C0F3400068
:1019D0000028F1D014E000207F490860FFF7DEFC0A
:1019E000054606E0FFF7DAFC401B022801D9032078
:1019F000F4E677486C300068C0F340000028F1D16D
:101A0000207800F00400042870D100277048383096
:101A1000006800F0805090B900BF002000906C4832
:101A20003830006840F08050694938310860084615
:101A3000006800F08050009000BF00BF0127674899
:101A4000006800F48070B0B96448006840F48070A9
:101A500062490860FFF7A2FC054606E0FFF79EFC1E
:101A6000401B022801D90320B8E65C48006800F456
:101A700080700028F2D000BFA068012808D1544827
:101A80006830006840F001005149683108601DE08D
:101A9000A06805280DD14E486830006840F0040069
:101AA0004B49683108600846006840F00100086052
:101AB0000CE047486830006820F001004449683174
:101AC00008600846006820F00400086000BFA068B5
:101AD000A8B1FFF763FC054609E0FFF75FFC401B78
:101AE00041F28831884202D9032077E626E038485F
:101AF00068300068C0F340000028EED013E0FFF724
:101B00004DFC054608E0FFF749FC401B41F28831D7
:101B1000884201D9032061E62D4868300068C0F38F
:101B200040000028EFD1012F07D129483830006844
:101B300020F0805026493831086000BFA069002895
:101B400045D02348006800F00C0008285DD0A0694B
:101B5000022845D100201F490866FFF71FFC0546F3
:101B600006E0FFF71BFC401B022801D9032035E6E5
:101B7000174808380068C0F340600028F1D1D4E964
:101B800007010843616A40EA81110122A06AC2EBA1
:101B9000500041EA00412C20005D41EA00600C4900
:101BA000091F086001200B490866FFF7F7FB05468F
:101BB00006E0FFF7F3FB401B022801D903200DE6E6
:101BC000034808380068C0F340600028F1D03FE0C7
:101BD0000838024000004742800E47420070004033
:101BE00000201C490866FFF7D9FB054606E0FFF711
:101BF000D5FB401B022801D90320EFE516480068F9
:101C0000C0F340600028F2D122E0A069012800D191
:101C1000E4E511480830066806F48001E069814275
:101C200014D106F03F01206A81420FD147F6C070FF
:101C30003040616A884209D106F44031A06A81428D
:101C400004D106F07061E06A814201D00120C5E54F
:101C50000020C3E5000047420038024010B50446AA
:101C60000CB9012010BD606A00B900BF0021A1625B
:101C700094F8510028B9002084F85000204600F064
:101C800033F8022084F851002068006820F04000FA
:101C900021680860D4E901010843E168084321692B
:101CA000084361690843218B01F400710843E1692D
:101CB0000843216A0843A16A084321680860042197
:101CC000A06901EA1040616A084321684860206801
:101CD000C06920F400602168C861002060650120AF
:101CE00084F851000020BDE710B586B004461421E9
:101CF00001A8FEF7C2FC6249206888426AD100BF91
:101D0000002000905F48006840F480405D49086012
:101D10000846006800F48040009000BF00BF00BF8C
:101D20000020009057481038006840F002005549E4
:101D3000103908600846006800F00200009000BFFB
:101D400000BF4FF4704001900220029000200390E9
:101D5000032004900520059001A94B48FFF726FABF
:101D60004A484B490860002048604021484881604B
:101D70000021C1604FF480610161002141618161F6
:101D8000C16101624162FFF751F908B1FFF718F82C
:101D900000BF3F48A064846300BF3C4818383D49F9
:101DA00008600020486000213A488160C1604FF41B
:101DB00080610161002141618161C1610162416213
:101DC000FFF734F908B1FEF7FBFF00BF3148E064CC
:101DD000846352E03049206888424ED100BF002021
:101DE00000902848006840F40040264908600846F2
:101DF000006800F40040009000BF00BF00BF00205A
:101E0000009020481038006840F004001D49103947
:101E100008600846006800F00400009000BF00BFA2
:101E20004FF4E05001900220029000200390032024
:101E300004900620059001A91848FFF7B7F9134848
:101E4000183017490860002048604021144881601C
:101E50000021C1604FF48061016100214161816115
:101E6000C16101624162FFF7E1F808B1FEF7A8FF26
:101E700000BF0B48A064846300BF06B010BD000023
:101E800000380040403802400004024070600240C8
:101E900054010020B4010020003C00400008024032
:101EA000140200202DE9FF5F0446884691461D4636
:101EB0000E9E012002900020019000BF94F8500077
:101EC000012803D1022004B0BDE8F09F012084F86E
:101ED000500000BFFFF762FA074694F851B06068FF
:101EE0000390AA46BBF1010F0BD00398B0F5827F97
:101EF00004D1A06810B9BBF1040F02D002200190F8
:101F0000DBE0B8F1000F03D0B9F1000F00D015B934
:101F100001200190D1E094F85100042802D005205E
:101F200084F8510000206065C4F83890E587A587E3
:101F3000C4F83080E586A586206460642068006867
:101F400000F04000402805D02068006840F04000C4
:101F500021680860E068B0F5006F4AD1606810B190
:101F6000BAF1010F09D1206B00882168C860206B8D
:101F7000801C2063E08E401EE08633E0206880688D
:101F800000F00200022810D1E08E70B10298012802
:101F90000BD1206B00882168C860206B801C2063F7
:101FA000E08E401EE086002002902068806800F0ED
:101FB000010068B1E08F58B12068C068A16B08804B
:101FC000A06B801CA063E08F401EE0870120029080
:101FD000FFF7E4F9C01BB04204D3701C10B103201A
:101FE00001906AE0E08E0028C8D1E08F0028C5D1BA
:101FF0004AE0606810B1BAF1010F09D1206B007896
:1020000021680873206B401C2063E08E401EE08630
:1020100034E02068806800F00200022810D1E08ED1
:1020200070B1029801280BD1206B007821680873E9
:10203000206B401C2063E08E401EE0860020029052
:102040002068806800F0010068B1E08F58B1206816
:10205000C068A16B0870A06B401CA063E08F401E9D
:10206000E08701200290FFF799F9C01BB04201D32D
:10207000701C00B916B9032001901EE0E08E002804
:10208000C7D1E08F0028C4D13A463146204601F03E
:10209000BDFD20B101200190202060650DE0A06809
:1020A00050B900BF002000902068C06800902068F0
:1020B0008068009000BF00BF00BF012084F851007D
:1020C00000BF002084F8500000BF0198FBE670B507
:1020D00004462546681EB0F1807F01D301200FE041
:1020E000681E4FF0E02148610F214FF0FF3002F0F1
:1020F000C1FB00204FF0E02188610720086100202B
:1021000070BD10B50346002200BF93F83C000128C3
:1021100001D1022010BD012083F83C0000BF22F055
:10212000FF00CC6840EA040222F440708C6840EA68
:10213000040222F480604C6840EA040222F4006049
:102140000C6840EA040222F480500C6940EA040260
:1021500022F400504C6940EA040222F48040CC6929
:1021600040EA04021868426400BF002083F83C0083
:1021700000BF00BFCEE7000030B502460B4600BFEF
:1021800092F83C00012801D1022030BD012082F8E4
:102190003C0000BF022082F83D00106844681068CF
:1021A000816824F070041868044310684460144D7A
:1021B0001068A84213D01068B0F1804F0FD0114DB5
:1021C0001068A8420BD0104D1068A84207D00F4DE0
:1021D0001068A84203D00E4D1068A84205D121F026
:1021E00080015868014310688160012082F83D0039
:1021F00000BF002082F83C0000BF00BFC5E7000020
:10220000000001400004004000080040000C0040B5
:102210000040014010B504460CB9012010BD94F8EF
:102220003D0028B9002084F83C00204600F00CF85E
:10223000022084F83D00211D206801F01DFE0120D0
:1022400084F83D000020E9E708B5154A016891428D
:102250000FD100BF002100911249096841F001012E
:10226000104A11601146096801F00101009100BF98
:1022700015E00168B1F1804F11D100BF002100913C
:102280000849091F096841F00101064A121F11603F
:102290001146096801F00101009100BF00BF08BDAF
:1022A00000000140443802402DE9F04104460D464B
:1022B00000BF94F83C00012802D10220BDE8F08163
:1022C000012084F83C0000BF022084F83D00206813
:1022D000866826F0770626F47F46206886602868A0
:1022E000502833D00CDC202850D004DC00284BD000
:1022F000102851D149E0302849D040284CD139E04C
:1023000060282DD0702807D0B0F5805F03D0B0F5DD
:10231000005F41D10DE040E0D5E902136A68206812
:1023200001F00DFE2068866846F07706206886601A
:1023300033E0D5E902136A68206801F000FE2068E6
:10234000806840F480402168886026E0EA68696817
:10235000206801F0C5FE5021206801F0FBFD1CE063
:10236000EA686968206801F0CEFE6021206801F00B
:10237000F1FD12E0EA686968206801F0B1FE4021D1
:10238000206801F0E7FD08E000BF00BF00BF29683A
:10239000206801F0DFFD00E000BF00BF012084F8ED
:1023A0003D0000BF002084F83C0000BF00BF85E76F
:1023B00010B586B00446142101A8FEF75EF9234942
:1023C000206888421ED100BF00200090204800688D
:1023D00040F010001E4908600846006800F0100038
:1023E000009000BF00BF4FF42060019002200290D7
:1023F0000020039004900120059001A91548FEF7E4
:10240000D5FE20E02068B0F1804F1CD100BF002035
:1024100000900F48006840F001000D490860084630
:10242000006800F00100009000BF00BF0120019093
:10243000022002900020039004900120059001A941
:102440000548FEF7B3FE06B010BD000000000140D5
:1024500030380240001002400000024070B50446CF
:102460000D46164600BF94F83C00012801D1022019
:1024700070BD012084F83C0000BF022084F83D00BC
:1024800036B1042E1BD0082E31D00C2E5ED145E083
:102490002946206801F068FD2068806940F0080046
:1024A000216888612068806920F0040021688861C3
:1024B00020688069296908432168886147E02946C6
:1024C000206801F081FD2068806940F40060216887
:1024D00088612068806920F48060216888612068B4
:1024E0008069296940EA0120216888612FE0294636
:1024F000206801F09DFD2068C06940F00800216857
:10250000C8612068C06920F004002168C8612068A3
:10251000C069296908432168C86118E02946206814
:1025200001F0BAFD2068C06940F400602168C8610C
:102530002068C06920F480602168C8612068C06993
:10254000296940EA01202168C86100E000BF00BF9E
:10255000012084F83D0000BF002084F83C0000BF4B
:1025600000BF85E710B504460CB9012010BD94F8F2
:102570003D0028B9002084F83C00204600F00CF80B
:10258000022084F83D00211D206801F075FC012027
:1025900084F83D000020E9E77047000070B504466C
:1025A0000E4601223146206801F0B8FC0D49206832
:1025B000884201D1012000E0002028B12068406C51
:1025C00040F40040216848642068806800F00705F6
:1025D000062D05D02068006840F0010021680860E1
:1025E000002070BD0000014070470146002200231A
:1025F00091F8392091F83A3042EA03007047000020
:102600002DE9F0470446206805682068C668206800
:1026100047694FF00008C14605F00F08B8F1000FF8
:102620000AD105F0200038B106F0200020B1204684
:1026300001F060FEBDE8F087B8F1000F72D007F03E
:10264000010018B906F4907000286BD005F0010065
:1026500030B106F4807018B1E06B40F00100E06327
:1026600005F0040030B107F0010018B1E06B40F054
:102670000200E06305F0020030B107F0010018B17C
:10268000E06B40F00400E06305F0080048B106F09C
:10269000200010B907F0010018B1E06B40F008000D
:1026A000E063E06B70B305F0200028B106F0200075
:1026B00010B1204601F01EFE20684069C0F3801969
:1026C000E06B00F0080010B9B9F1000F23D02046EC
:1026D00001F0E6FD2068406900F04000402816D176
:1026E0002068406920F0400021684861606B50B16B
:1026F0001748616B0865606BFEF763FB10B1606B98
:10270000016D88470CE02046FFF76EFF08E0204689
:10271000FFF76AFF04E02046FFF766FF0020E06352
:1027200088E7FFE705F0800030B106F0800018B1BF
:10273000204602F027F87DE705F0400030B106F0B2
:10274000400018B1204601F0BBFD73E700BF71E700
:102750009541000810B504460CB9012010BDA069D0
:1027600000B100E000BF94F8390028B9002084F8D7
:102770003800204600F028F8242084F8390020682A
:10278000C06820F400502168C860204601F006FEB1
:102790002068006920F49040216808612068406941
:1027A00020F02A00216848612068C06840F4005089
:1027B0002168C8600020E063202084F8390084F894
:1027C0003A000020CAE7000010B586B00446142184
:1027D00001A8FDF752FF2E492068884256D100BF5C
:1027E000002000902B48006840F010002949086044
:1027F0000846006800F01000009000BF00BF00BF56
:102800000020009023481438006840F0010021495E
:10281000143908600846006800F00100009000BF0D
:1028200000BF4FF4C060019002200290012003908D
:10283000032004900720059001A91748FEF7B6FC75
:102840001648174908604FF000604860402114485E
:1028500081600021C1604FF480610161002141610C
:102860008161C16101624162FEF7E0FB08B1FEF7E0
:10287000A7FA00BF0A482063846300BF0022114604
:102880002520FEF715FE2520FEF702FE06B010BD3E
:10289000001001404438024000000240B864024089
:1028A000B402002010B5034693F83A0020282FD137
:1028B00001B10AB9012010BD00BF93F8380001280A
:1028C00001D10220F7E7012083F8380000BF9962A8
:1028D0009A85DA850020D863222083F83A0000BF69
:1028E000002083F8380000BF1868C06840F480708A
:1028F0001C68E0601868406940F001001C68606175
:102900001868C06840F020001C68E0600020D2E732
:102910000220D0E710B5044610490978104A106823
:10292000421C0F4B1A600F4A115418460068402889
:1029300002D10020194608600B480068401C0A4973
:102940000860402804D10020086001200749087071
:10295000012202490648FFF7A5FF10BD1C00002018
:1029600028000020942300203000002034000020A4
:1029700074020020F7B50446154694F83900202863
:102980003DD1019800B10DB90120FEBD00BF94F802
:102990003800012801D10220F7E7012084F838002F
:1029A00000BF01982062A584E5840020E063212017
:1029B00084F839001348216BC8631348216B0864FD
:1029C0001248216BC8640020216B086501AE2368A2
:1029D0001A1D31682B46206BFEF79EFB6FF04000FE
:1029E0002168086000BF002084F8380000BF20681C
:1029F000406940F08000216848610020C5E702205E
:102A0000C3E70000F94100082F420008A94100086F
:102A10007047704700BFFEE770B505460024FB48CD
:102A20000488008818B9284601F08CFF044600206D
:102A3000F6490880F6490860F6480088322803D82D
:102A4000F54800889D2828D90020F4490870F149EC
:102A50000880F3490860F3490870F3490870F349A6
:102A600008600120F2490860F24908600020F2493C
:102A70000870F2490870F2490870F2490860F2499A
:102A800008602020F1490870F14908700020F149E0
:102A90000870F1490870E04908802CE1DC480068C2
:102AA000285C7E282DD1DD480078002829D101201E
:102AB000DA4908700020D7490880D9490860D94907
:102AC0000870D9490870D94908600120D8490860C0
:102AD000D84908600020D8490870D8490870D849FA
:102AE0000870D8490860D84908602020D749087084
:102AF000D74908700020D7490870D7490870C649DF
:102B00000880C3480068295CD448C54A12688154CB
:102B1000C1480088401CC0490880D048C0490968A5
:102B2000405C3B280ED1CC48007858B9BB480078AF
:102B3000012807D10020B94908700120BA4908705E
:102B4000C4490870C548B6490968405C3D2805D0AD
:102B5000C248B3490968405C3A2807D1B6480078B2
:102B600020B90120B4490870BA490870BB48AC4983
:102B70000968405C2E280AD1B048007838B9B648B8
:102B8000007820B90120AD490870B2490870B348F7
:102B9000A3490968405C242808D1A948007828B9CD
:102BA0000220A74908700120AA4908709C480068C3
:102BB00002286AD9A9488078202866D1A5480078DB
:102BC000002862D19E48007802285ED29A48007898
:102BD000012807D0A14892490968405CA049934A5E
:102BE000126888549448007801280AD193480078E4
:102BF00038B99A488A490968405C94498C4A1268F5
:102C000088548D48007801280BD18C480078012821
:102C100007D1924882490968405C8D49854A12680B
:102C2000885485480078012809D080480068202809
:102C30002BD27E480068401C7C49086025E07E4815
:102C40000078012810D17D48007868B9784800687C
:102C5000FF2809D876480068401C754908607A4802
:102C60000068401C784908607348007801280CD13E
:102C700072480078012808D16E480068FF2804D8FF
:102C80006C480068401C6B4908606D480078022859
:102C90000BD17048007840B9704861490968405CC0
:102CA00068490860012066490870674800686549FE
:102CB0000968884206D262480078012802D1664934
:102CC000087002E000206449087055480068C82870
:102CD00004D253480068401C514908604C480068C1
:102CE000C82804D24A480068401C49490860641E4C
:102CF000002058490870002C7FF4D0AE4A48007874
:102D0000012870D1554800787E2805D145480078C3
:102D100040F0010043490870504840785149097813
:102D2000884205D13F48007840F002003D490870D4
:102D30003C48007803280DD14BA14948FDF7C4FC5D
:102D400048B94BA001F0F4F94DA001F0F1F90020D1
:102D500000F068FDF2E14BA14148FDF7B5FC78B900
:102D60004AA001F0E5F946A001F0E2F90121374857
:102D7000FDF7F2FE0646314648A001F051FFDDE1C5
:102D800048A13748FDF7A0FC80B948A001F0D0F970
:102D900004224B49AB2001F05FFE4AA001F0C8F9C4
:102DA0004748C17848A001F03BFFC7E148A12C4843
:102DB000FDF78AFCC0B949A001F0BAF903224049E5
:102DC0009F2001F049FE3FA001F0B2F93C48807815
:102DD000182802D147A001F0ABF9394881784AA000
:102DE00001F01EFFAAE1F3E149A11D48FDF76CFCCB
:102DF00050B91648FDF7DDFB484908601448FDF757
:102E0000D8FB474908608DE0AFE000004800002093
:102E100054000020720000204A00002052000020D0
:102E20004C000020500000205100002058000020DD
:102E30005C00002060000020680000206900002085
:102E40006A000020640000206C000020A6250020FD
:102E5000A62600207100002070000020BD24002064
:102E6000862500204100002068656C70000000008D
:102E7000EFF0E8EDDFEB2068656C700D00000000FE
:102E80000D000000455043535F575200EFF0E8ED4E
:102E9000DFEB20455043535F57520D006572723A85
:102EA00000000000455043535F4944000D0AEFF015
:102EB000E8EDDFEB20455043535F49443A0D0A00EB
:102EC000E62700200D0A00006D61735B335D3A0058
:102ED000455043535F4445565F4944000D0AEFF0A7
:102EE000E8EDDFEB20455043535F4445565F4944CE
:102EF0003A0D0A007265636976653A20455043537E
:102F00003132380D0A0000006D61735B325D3A00AA
:102F1000455043535F535441545553008C00002097
:102F200088000020B0A001F003F90422B449052074
:102F300001F092FDAFF2740001F0FAF8B0480178A8
:102F4000B0A001F06DFEAE484178B0A001F068FE7F
:102F5000AB488178AFF2500001F062FEA848C1781A
:102F6000AFF29C0001F05CFEE8E0AAA1AC48FDF7DE
:102F7000ABFBE0BBAB48FDF71CFBAB490860AB48C3
:102F8000FDF717FBAA490860A7480168A9A001F04E
:102F900047FE4FF480739A4AA3480168032001F06A
:102FA0007BFDA9A001F0C4F8002426E09448035D4D
:102FB00000221846114601F099FC9149601C0B5CF7
:102FC00000221846114601F091FC8D49A01C0B5CB3
:102FD00000221846114601F089FC8949E01C0B5C6F
:102FE00000221846114601F081FCE41C00E007E0D5
:102FF000AFF2301001F09CF8641CFF2CD6D99DE094
:1030000099A18748FDF760FB28BB8648FDF7D1FAF8
:10301000854908608548FDF7CCFA854908608248F3
:10302000016895A001F0FCFD87A001F081F8002463
:1030300002E073490C55641CFF2CFAD901F070FDB5
:103040004FF480736E4A78480168022001F07AFDDF
:1030500001F054FD72E08FA17148FDF735FBA8B96E
:103060007048FDF7A6FA70490860084601688EA00E
:1030700001F0D6FD01F054FD0023614A6A48016861
:10308000D82001F05FFD01F039FD57E08DA16448C3
:10309000FDF71AFB80B96348FDF78BFA62490860B7
:1030A000084601688BA001F0BBFD01F039FD01F07D
:1030B000C1FC01F023FD41E08DA15948FDF704FB5F
:1030C000C8B95848FDF775FA574908605748FDF7E1
:1030D00070FA574908605448016887A001F08CFDD8
:1030E0005348016888A001F06FFD4F480068874988
:1030F0000968486322E086A14948FDF7E5FAE8B986
:103100004848FDF756FA484908604848FDF751FA23
:1031100047490860444801687FA001F06DFD4448BC
:10312000016879A001F050FD3F4800687E490968B8
:1031300048633F4800687C490968C862002403E08E
:10314000002037490855641C202CF9D3002403E0E3
:10315000002034490855641CFF2CF9D9002403E0F1
:10316000002032490855641CFF2CF9D9002403E0E3
:1031700000206E490855641CC82CF9D300206C4906
:1031800008806C4908706C4908606C49087000241C
:103190006B4908706B4908606B4908606B4908709F
:1031A0006B4908606B4908706B4908606B4908708F
:1031B0006B4908606B4908606B4908706B4908707F
:1031C00020201849087019490870002068490880B3
:1031D0005B480078012804D158480078012800D1C4
:1031E00000BF1348006870BD0D0AEFF0E8EDDFEB9B
:1031F00020455043535F5354415455533A0D0A00F0
:10320000E62700206D61735B305D3A006D61735B92
:10321000315D3A00455043535F5245414400000040
:1032200086250020A62500208C000020A626002050
:10323000880000200D0AEFF0E8EDDFEB2045504359
:10324000535F524541443A000D0A2D2D2D2D2D2D51
:103250002D2D2D2D2D2D2D2D2D2D2D2D2D2D2D2D9E
:103260002D2D2D2D2D0D0A00455043535F575249EA
:1032700054455F54455354000D0AEFF0E8EDDFEB81
:1032800020455043535F57524954455F544553546A
:103290003A000000455043535F45524153455F5348
:1032A0004543544F520000000D0AEFF0E8EDDFEB0C
:1032B00020455043535F45524153455F5345435466
:1032C0004F523A00455043535F45524153455F4189
:1032D0004C4C00000D0AEFF0E8EDDFEB20455043C9
:1032E000535F45524153455F414C4C3A000000004A
:1032F00054494D31000000000D0AEFF0E8EDDFEB1E
:103300002054494D313A00002E00000014030020E3
:1033100054494D32000000000D0AEFF0E8EDDFEBFC
:103320002054494D323A000054030020BD240020AF
:1033300072000020520000204C00002050000020AD
:1033400051000020580000205C0000206800002090
:103350006000002069000020540000206A00002066
:10336000640000206C00002071000020700000202C
:103370004A00002010B50E480068B0F57A7F16D9D3
:103380000C480078C0430B4908700846007828B103
:10339000012251030848FDF7FBFF05E000224FF42E
:1033A00000510548FDF7F4FF00200149086010BDF9
:1033B00004000020900000200008024010B50A48D8
:1033C0000068B0F57A7F04D9012291030748FDF720
:1033D000DFFF07480068B0F57A7F04D90122D103E6
:1033E0000248FDF7D5FF10BD100000200008024084
:1033F0001400002008B500BF002000901E4800689F
:1034000040F400101C4908600846006800F40010F1
:10341000009000BF00BF00BF002000900846006879
:1034200040F4800008600846006800F480000090C6
:1034300000BF00BF002211460E20FEF739F80E2013
:10344000FEF726F8002211460F20FEF731F80F2074
:10345000FEF71EF8002211461020FEF729F8102072
:10346000FEF716F8002211464620FEF721F8462006
:10347000FEF70EF808BD00003038024000B587B0F6
:10348000142102A8FDF7F9F800BF002001904A4876
:10349000006840F00400484908600846006800F0F1
:1034A0000400019000BF00BF00BF0020019008464B
:1034B000006840F0100008600846006800F0100046
:1034C000019000BF00BF00BF0020019008460068C7
:1034D00040F0020008600846006800F00200019019
:1034E00000BF00BF00BF002001900846006840F008
:1034F000080008600846006800F00800019000BF5E
:1035000000BF00BF002001900846006840F00100A5
:1035100008600846006800F00100019000BF00BF8D
:1035200000224FF460412548FDF732FF00220121BF
:103530002348FDF72DFF002220212248FDF728FF18
:103540004FF4604002900120039000200490059009
:1035500002A91A48FDF72AFE4FF4204002900020ED
:103560000390049002A91648FDF720FE4FF4C060B6
:103570000290022003900020049003200590072071
:10358000069002A91048FDF711FE01200290039059
:1035900000200490059002A90948FDF707FE2020AD
:1035A00002900120039000200490059002A9054894
:1035B000FDF7FCFD07B000BD3038024000080240B6
:1035C000000C0240000402400000024010B50E480A
:1035D0000E4908604FF48270486000210B488160FA
:1035E000C160016141614FF4802181612021C1618D
:1035F00000210162416281620A21C162FEF72EFB55
:1036000008B1FDF7DDFB10BD00380040A40000202C
:1036100010B50E480E4908604FF4827048600021D2
:103620000B488160C160016141614FF400718161AB
:103630002021C16100210162416281620A21C162CF
:10364000FEF70CFB08B1FDF7BBFB10BD003C0040D2
:10365000FC00002000B595B000201190129013904E
:1036600014900F9010901C2108A8FDF706F8202157
:103670006846FDF702F830483049086040F2CF70E4
:10368000486000212D4881604CF24F31C16000211B
:10369000016141618161FEF7BDFD08B1FDF790FB5D
:1036A0004FF48050119011A92448FEF7FDFD08B198
:1036B000FDF786FB2148FEF755FF08B1FDF780FBBB
:1036C00000200F9010900FA91C48FEF755FD08B17F
:1036D000FDF776FB6020089042F210700990002000
:1036E0000A900B900C900D900E90002208A91348A0
:1036F000FEF7B4FE08B1FDF763FB042208A90F48EA
:10370000FEF7ACFE08B1FDF75BFB002000900190D6
:103710000290039004904FF4005005900020079011
:1037200069460648FEF7EDFC08B1FDF749FB034882
:10373000FEF73EFE15B000BD00000140140300205E
:1037400000B58DB0002009900A900B900C90079066
:1037500008901C216846FCF790FF4FF080402049FC
:1037600008600020486000211D4881601D49C1603B
:103770000021016180218161FEF74CFD08B1FDF758
:103780001FFB4FF48050099009A91548FEF78CFDE6
:1037900008B1FDF715FB1248FEF7E4FE08B1FDF78E
:1037A0000FFB00200790089007A90D48FEF7E4FCE6
:1037B00008B1FDF705FB602000904FF47A7001908E
:1037C000002002900490002269460548FEF746FE5C
:1037D00008B1FDF7F5FA0248FEF7EAFD0DB000BDAD
:1037E00054030020A086010010B50B480B49086067
:1037F0004FF4E1304860002108488160C1600161F8
:103800000C21416100218161C161FEF7A3FF08B174
:10381000FDF7D6FA10BD0000001001407402002030
:1038200000BFFEE770B50546002403E037A000F0B6
:103830007FFC641C142CF9DB002403E034A000F0AE
:1038400077FC641C142CF9DB30A000F071FC31A073
:1038500000F06EFC2DA000F06BFC3AA000F068FCBC
:103860003AA000F065FC3CA000F062FC42A000F031
:103870005FFC46A000F05CFC49A000F059FC4DA0A4
:1038800000F056FC50A000F053FC5BA000F050FC90
:1038900063A000F04DFC6CA000F04AFC71A000F0A9
:1038A00047FC76A000F044FC79A000F041FC81A028
:1038B00000F03EFC884800F03BFC88A000F038FC9B
:1038C0008BA000F035FC8FA000F032FC92A000F03D
:1038D0002FFC96A000F02CFC9BA000F029FCA1A0DE
:1038E00000F026FC09A000F023FC08A000F020FC5A
:1038F000A8A000F01DFC05A000F01AFC03A000F039
:1039000017FC02A000F014FC70BD00000D000000C8
:103910002D0000002E2E2E2E2E2E2E2E2E2E5465F5
:10392000726D696E616C20D2E5F1F2EEE2EEE92093
:10393000EFEBE0F2FB2E2E2E2E2E2E2E2E2E0D0A2B
:10394000000000004D454E55203A0D002D2D2D2D27
:103950002D2D2D0D00000000D0E0F1F8E8F4F0EE80
:10396000E2EAE020F1F2F0F3EAF2F3F0FB20EAEE13
:10397000ECE0EDE4FB3A0D007E202D20F1F2E0F0CA
:10398000F2EEE2FBE920E1E0E9F20D0031202D202A
:10399000E0E4F0E5F120E0E1EEEDE5EDF2E00D0030
:1039A0003B2D20EAEEEDE5F620EFE0F7EAE8200D0A
:1039B000000000002E2E2E2E2E2E2E2E2E2E2E2EDF
:1039C0002E2E200D000000002D2D2D2D2D2D2D2D06
:1039D0002D2D2D2D2D2D2D2D2D2D2D2D2D2D2D2D17
:1039E0002D2D2D2D2D2D2D2D2D2D2D2D2D2D2D2D07
:1039F0002D2D2D2D2D0D0A00495020203A31393220
:103A00002E3136382E312E313633202D204950209C
:103A1000E0E4F0E5F120202020E1EBEEEAE00D000B
:103A2000504F52543A32303534202020202020206C
:103A30002020202D20EDEEECE5F020EFEEF0F2E07E
:103A400020E1EBEEEAE00D007E302068656C703B13
:103A5000202D20F2E5EAF3F9E5E520ECE5EDFE0D99
:103A6000000000007E3020696E666F3B202D20E84C
:103A7000EDF4EEF0ECE0F6E8FF200D007E3020647F
:103A80006163315F696E69743B202D200D00000079
:103A90007E3020646163315F723A303B2020202DFC
:103AA00020F7F2E5EDE8E520F0E5E3E8F1F2F0E0FB
:103AB0000D0000007E3020646163315F773A302E64
:103AC000303B202D20E7E0EFE8F1FC20F0E5E3E8D3
:103AD000F1F2F0E00D0000005C4D00087E30206443
:103AE0006163315F696E666F3A303B200D00000004
:103AF0007E3020646163315F696E69743A303B20C7
:103B00000D0000007E3020646163315F7068795F72
:103B100077723A303B200D007E3020646163315F64
:103B20007068795F696E666F3B200D007E30206C97
:103B30006D6B5F73796E633B202D2073796E63200C
:103B4000EDE0204C4D4B0D007E3020696E69745FB6
:103B50006C6D6B3B202D20696E697420EDE0204C6C
:103B60004D4B0D002D2D2D2D2D2D2D2D2D2D2D2D94
:103B70002D2D2D2D2D2D2D2D2D2D2D2D2D2D2D2D75
:103B80002D2D2D2D2D2D2D2D2D2D2D2D2D2D2D0D85
:103B9000000000002B2B2B2B2B2B2B2B2B2B2B2B21
:103BA0002B2B2B2B2B2B2B2B0D00000070470000F9
:103BB00070B54FF400510748FDF7E2FB0546064893
:103BC0000078A84203D004480570012400E00024D6
:103BD000204670BD000C02409100002070B54FF4EB
:103BE00000410748FDF7CCFB054606480078A8428F
:103BF00003D004480570012400E00024204670BD75
:103C0000000C024092000020704700007CB5044682
:103C10000D461646164800681821B0FBF1F015490C
:103C2000B0FBF1F04FF47A71484301906068B0F551
:103C3000827F0DD12B46002280212046009600F085
:103C40001BF898B1606D40F02000606503207CBDDA
:103C500000BF019800B908E00198401E019020685B
:103C60008068C0F3C0100028F3D100BF0020EEE749
:103C7000A000002040420F002DE9F04104460E460E
:103C800017461D46DDF818803EE0681CD8B3FDF7E6
:103C900085FBA0EB0800A84200D2A5BB20684068C5
:103CA00020F0E000216848606068B0F5827F0DD1A7
:103CB000A068B0F5004F03D0A068B0F5806F05D1C3
:103CC0002068006820F0400021680860A06AB0F514
:103CD000005F0DD100BF2068006820F4005021680B
:103CE00008602068006840F400502168086000BF48
:103CF000012084F8510000BF002084F8500000BF6C
:103D00000320BDE8F081FFE7206880683040B042C2
:103D100001D1012000E00020B842B6D10020F0E738
:103D20007047000010B5FDF73FFB1848006820B150
:103D300016480068401E154908601548006810F1D3
:103D4000100F04D212480068401C11490860114845
:103D5000006810F1100F04D20E480068401C0D4995
:103D600008600D480068401C0B4908600B4800685B
:103D7000401C0A4908600A480068401C084908605D
:103D800008480088401C0749088010BD1800002022
:103D9000100000201400002020000020000000205F
:103DA000040000207200002000B593B0302107A865
:103DB000FCF763FC142102A8FCF75FFC00BF0020A5
:103DC00001902448006840F080502249086008466D
:103DD000006800F08050019000BF00BF00BF0020CD
:103DE00001901D48006840F440401B4908600846A7
:103DF000006800F44040019000BF00BF022007901F
:103E000001200A9010200B9002200D9000210E91AD
:103E100008210F9164211091022111910421129126
:103E200007A8FDF7D7FC08B1FCF7CAFF0F200290E6
:103E300002200390002004904FF480500590002051
:103E40000690032102A8FDF785FB08B1FCF7B8FF37
:103E500013B000BD403802400070004005480068C3
:103E600040F47000034908604FF000600149803958
:103E70000860704788ED00E010B50268204B98425A
:103E80000BD0B0F1804F08D01E4B984205D01E4B8E
:103E9000984202D01D4B984203D122F070024B6829
:103EA0001A43174B984214D0B0F1804F11D0154BE4
:103EB00098420ED0144B98420BD0144B984208D025
:103EC000134B984205D0134B984202D0124B9842A4
:103ED00003D122F44072CB681A4322F080034C696C
:103EE00043EA040202608B68C3620B688362044B7E
:103EF000984201D10B6903630123436110BD0000A7
:103F0000000001400004004000080040000C004098
:103F100000400140004401400048014030B501F03C
:103F20001F05012404FA05F3046A9C430462046A31
:103F300001F01F0502FA05F52C43046230BD30B5CF
:103F40000C46816821F47F4142EA03252543294339
:103F5000816030BD0A46816821F0700142F007039C
:103F6000194381607047000030B5056A25F00105EE
:103F70000562026A4368846924F0700424F0030433
:103F80000D682C4322F002028D682A430D4DA84291
:103F900006D100BF22F00802CD682A4322F00402B5
:103FA000084DA84207D123F4807323F400734D69B0
:103FB0002B438D692B43436084614D6845630262E6
:103FC00030BD00000000014030B5056A25F0100545
:103FD0000562026A4368846924F4E04424F440746E
:103FE0000D6844EA052422F020028D6842EA051299
:103FF0000E4DA84207D100BF22F08002CD6842EAF0
:10400000051222F04002094DA84209D123F4806331
:1040100023F400634D6943EA85038D6943EA850310
:10402000436084614D688563026230BD00000140D9
:1040300030B5056A25F480750562026A4368C46973
:1040400024F0700424F003040D682C4322F4007261
:104050008D6842EA05220F4DA84207D100BF22F425
:104060000062CD6842EA052222F48062094DA8422E
:1040700009D123F4805323F400534D6943EA051317
:104080008D6943EA05134360C4614D68C5630262EC
:1040900030BD00000000014030B5056A25F48055B0
:1040A0000562036A4468C26922F4E04222F4407265
:1040B0000D6842EA052223F400538D6843EA053374
:1040C000064DA84204D124F480444D6944EA851485
:1040D0004460C2614D680564036230BD0000014068
:1040E00030B50B461446026A056A25F001050562E3
:1040F000816921F0F00141EA041122F00A021A4319
:104100008161026230BD30B50B461446056A25F068
:10411000100505628169026A21F4704141EA0431A7
:1041200022F0A00242EA03128161026230BD000067
:1041300070B50646002500241348007810BB3046B1
:10414000FCF77CFA85B211480088284441F6FB71DF
:10415000884202D900200D4908800C48048807E0F5
:104160000A480088201A305C09490855601C84B24E
:10417000064800882844A042F2DC0448008828440D
:104180000249088070BD00002400002026000020A5
:104190009403002070B50546AC6B0020E085E084F8
:1041A0002046FEF721FA70BD70B506460025B46BB7
:1041B00020684069C0F3C01594F83900212805D162
:1041C00025B10020E084204600F08AF8206840698C
:1041D000C0F3801594F83A00222805D125B10020BB
:1041E000E085204600F05CF8E06B40F01000E063F2
:1041F0002046FEF7F9F970BD70B50546AC6B28682E
:10420000006800F4807070B90020E0842068406984
:1042100020F08000216848612068C06840F04000BC
:104220002168C86002E02046FEF7F2FB70BD70B561
:104230000446A56B2846FEF7ECFB70BD10B513488D
:10424000FEF7D3F921281FD011480078E0B91148B2
:104250000088012801D9012000E000200E490968EA
:10426000FA2901D9012100E00021084060B1094884
:104270000488224609490548FEF77CFB00200549D1
:10428000088001200249087010BD0000740200205F
:10429000240000202600002020000020940300209D
:1042A0000168C96821F490710268D16001684969A8
:1042B00021F0010102685161202180F83A10704715
:1042C00010B504462068C06820F040002168C8602E
:1042D000202084F839002046FEF79AFB002010BD0C
:1042E0000168C96821F0C0010268D160202180F80E
:1042F0003910704770B5044694F83A0022284AD124
:10430000A068B0F5805F13D1A56A206940B9206824
:104310004068C0F308002880A06A801CA06219E0F1
:1043200020684068C0B22880A06A401CA06211E0EA
:10433000206938B920684068C1B2A26A501CA062E6
:10434000117007E02068406800F07F01A26A501CED
:10435000A0621170E08D401E80B2E085C8B920686F
:10436000C06820F020002168C8602068C06820F480
:1043700080702168C8602068406920F001002168D1
:104380004861202084F83A002046FEF7C3FA002056
:1043900070BD0020FCE70220FAE700002DE9F84F8D
:1043A00004462068006920F44050E1680843216811
:1043B00008612169A068084361690843E16908430D
:1043C00000902068C06849F20C6188430099084356
:1043D0002168C8602068406920F44070A1690843E2
:1043E00021684861E069B0F5004F75D1E349206864
:1043F000884203D0E249206888426FD1FDF782F9F4
:10440000814602206168A0FB01510B461920A9FBDF
:1044100000712A463846FBF73FFF6421B0FBF1F0FC
:104420004FEA001A02206168A0FB01510B461920D7
:10443000A9FB00712A463846FBF72EFF07460220EB
:104440006168A0FB01510B461920A9FB00B12A4667
:104450005846FBF721FF6421B0FBF1F000EBC001EF
:1044600001EB0010A7EB8000322101EBC0006421BA
:10447000B0FBF1F000F0F8000AEB400A022061689E
:10448000A0FB01510B461920A9FB00712A463846B2
:10449000FBF702FF074602206168A0FB01510B46B3
:1044A0001920A9FB00B12A465846FBF7F5FE642106
:1044B000B0FBF1F000EBC00101EB0010A7EB8000B6
:1044C000322101EBC0006421B0FBF1F000F00700E5
:1044D0005044216888604FE16EE0FFE7FDF702F984
:1044E000814602206168A0FB01510B461920A9FBFF
:1044F00000712A463846FBF7CFFE6421B0FBF1F08D
:104500004FEA001A02206168A0FB01510B461920F6
:10451000A9FB00712A463846FBF7BEFE074602207B
:104520006168A0FB01510B461920A9FB00B12A4686
:104530005846FBF7B1FE6421B0FBF1F000EBC0017F
:1045400001EB0010A7EB8000322101EBC0006421D9
:10455000B0FBF1F000F0F8000AEB400A02206168BD
:10456000A0FB01510B461920A9FB00712A463846D1
:10457000FBF792FE074602206168A0FB015003464C
:104580001920A9FB00B12A465846FBF785FE642195
:10459000B0FBF1F000EBC00101EB0010A7EB8000D5
:1045A000322101EBC0006421B0FBF1F000F0070004
:1045B000504421688860DFE070492068884203D059
:1045C0006F49206888426BD1FDF79CF88146042032
:1045D0006168A0FB01510B461920A9FB00712A4616
:1045E0003846FBF759FE824604206168A0FB015162
:1045F0000B461920A9FB00712A463846FBF74CFEF2
:104600006421B0FBF1F000EBC00101EB0010AAEB5C
:104610008000322101EB00106421B0FBF1F000F0CA
:10462000F00A04206168A0FB015003461920A9FB91
:1046300000712A463846FBF72FFE6421B0FBF1F0EB
:104640000AEB001A04206168A0FB01510B461920F7
:10465000A9FB00712A463846FBF71EFE07460420D8
:104660006168A0FB015003461920A9FB00B12A464E
:104670005846FBF711FE6421B0FBF1F000EBC001DE
:1046800001EB0010A7EB8000322101EB0010642148
:10469000B0FBF1F000F00F005044216888606BE03F
:1046A000FDF720F8814604206168A0FB0150034615
:1046B0001920A9FB00712A463846FBF7EDFD82461A
:1046C00004206168A0FB015003461920A9FB00717A
:1046D0002A463846FBF7E0FD6421B0FBF1F000EB21
:1046E000C00101EB0010AAEB8000322101EB0010A9
:1046F0006421B0FBF1F000F0F00A04206168A0FB37
:10470000015003461920A9FB00712A463846FBF7E1
:10471000C3FD6421B0FBF1F00AEB001A04206168CC
:10472000A0FB017003461920A9FB005001463A4640
:104730002846FBF7B1FD074604206168A0FB015045
:1047400003461920A9FB00B12A465846FBF7A4FDF1
:104750006421B0FBF1F000EBC00101EB0010A7EB0E
:104760008000322101EB00106421B0FBF1F000F079
:104770000F00504421688860BDE8F88F00100140A8
:1047800000140140014691F8390021282CD1886895
:10479000B0F5805F0FD10A6A1088C0F308000B687B
:1047A0005860086918B9086A801C086209E0086A3C
:1047B000401C086205E00B6A581C086218780B68F8
:1047C0005860C88C401E80B2C88458B90868C06858
:1047D00020F080000B68D8600868C06840F0400096
:1047E0000B68D860002070470220FCE770B50024F9
:1047F00000251448006818B312480068C82803D27E
:104800001048006885B200E0C82500240DE000F0E3
:104810004DF80D490855601C0C4908800A48005D98
:104820003B2800D103E0601C84B2AC42EFDB00BF48
:1048300000200549054A128888540846FEF7ECF81E
:1048400070BD000030000020D4230020480000206C
:1048500010B50248FDF7D4FE10BD00007402002020
:1048600000BFFEE702480068C0F302207047000066
:104870000CED00E010B5002804DB0A07130E054A12
:10488000135406E00A07140E034A00F00F031B1F1F
:10489000D45410BD00E400E018ED00E030380A28E0
:1048A00001D20120704700207047000000BF0C4972
:1048B00009680029FBD00B4A11684A1C094B1A6091
:1048C000094A505C19460968402902D100211A465C
:1048D000116003490968491E014A116070470000D0
:1048E000300000202C000020942300202DE9F04708
:1048F00006460F4690464FF00009424634463D4674
:1049000020462946FBF73FFD00F0FF094A4609A172
:104910000948FBF74BFD09A0FFF70AFCB9F1100F9E
:1049200002DA07A0FFF704FC0348FFF701FCBDE82B
:10493000F0870000255800009D2400202000000082
:10494000300000000146002001E0421CD0B20A5CA9
:104950000AB17828F9DB70470024FCF731FDFFF736
:1049600023FAFEF78BFDFEF745FDFEF72FFEFEF75F
:104970004FFEFEF76FFEFEF7E3FEFEF735FF012266
:104980001D491E48FDF78EFF00211D48FDF706FE5C
:1049900000211C48FDF702FE1BA0FFF7C9FB1BA06E
:1049A000FFF7C6FB1DA0FFF7C3FB18A0FFF7C0FB76
:1049B00030201E490870012220211D48FCF7E8FC28
:1049C00019E0E043C4B22CB1012220211848FCF7C1
:1049D000DFFC04E0002220211548FCF7D9FCFEF79B
:1049E000C9FCFBF7D1FFFBF7EBFFFEF7E7FCFFF796
:1049F000FDFEFFF723FCE4E71C000020740200200A
:104A000014030020540300200D0A00002D2D2D2D2D
:104A10002D2D2D2D2D2D2D2D2D0D0A00202020206A
:104A20007072672033333020200D0A0041000020CF
:104A30000004024010B5002201210648FCF7A8FC42
:104A4000C72000F0AFF8012211460248FCF7A0FC95
:104A500010BD0000000C02402DE9F04107460D4654
:104A600016460024002201210A48FCF791FC384632
:104A700000F098F800BF04E0002000F093F82855FB
:104A8000641CB442F8D3012211460248FCF780FCB2
:104A9000BDE8F081000C02402DE9F04180460C4653
:104AA00016461F460025002201211248FCF770FC23
:104AB000404600F077F8C4F3074000F073F8C4F301
:104AC000072000F06FF8E0B200F06CF800BF07E0DC
:104AD00009A0FFF72DFB002000F064F870556D1C55
:104AE000BD42F5D3012211460248FCF751FCBDE856
:104AF000F0810000000C02402E00000010B50022E2
:104B000001210648FCF744FC042000F04BF8012288
:104B100011460248FCF73CFC10BD0000000C0240AE
:104B200010B5002201210648FCF732FC062000F0F7
:104B300039F8012211460248FCF72AFC10BD00009A
:104B4000000C02402DE9F04180460C4616461F46F7
:104B50000025002201211148FCF71AFC404600F014
:104B600021F8C4F3074000F01DF8C4F3072000F05B
:104B700019F8E0B200F016F800BF06E008A0FFF751
:104B8000D7FA705D00F00EF86D1CBD42F6D301221D
:104B900011460248FCF7FCFBBDE8F081000C024026
:104BA0002E0000003EB50446E0B2029041F288308B
:104BB000012301AA02A900900248FDF773F99DF8AC
:104BC00004003EBDFC00002070B505460C4628469A
:104BD000FFF7AEFA224605A10548FBF7E7FB0448BC
:104BE000FFF7A6FA03A0FFF7A3FA70BD2575000032
:104BF0009D2400200D00000070B505460C46284697
:104C0000FFF796FA224604A10448FBF7CFFB0348BE
:104C1000FFF78EFA70BD0000257500009D2400206E
:104C200070B505460C462846FFF782FA224605A1D4
:104C30000548FBF7BBFB0448FFF77AFA03A0FFF730
:104C400077FA70BD255800009D2400200D0A000051
:104C500070B505460C462846FFF76AFA22460DA1B4
:104C60000D48FBF7A3FB0F2C03D20CA0FFF760FA53
:104C70000CE0FF2C03D20AA0FFF75AFA06E040F638
:104C8000FF70844202D207A0FFF752FA0248FFF7F2
:104C90004FFA70BD255800009D24002030303000B0
:104CA000303000003000000070B505460C46284644
:104CB000FFF73EFA224606A10648FBF777FB0F2CCA
:104CC00002D205A0FFF734FA0248FFF731FA70BDAF
:104CD000255800009D2400203000000010B5002958
:104CE0000AD00878002807D005487844FBF7ECFC88
:104CF000002801D0002010BD0248784410BD0000FB
:104D0000DA000000D20000004FF04070E1EE100A1F
:104D10007047000610160006101600000000000084
:104D20000000010203040607080900000000010258
:104D30000304303132333435363738394142434455
:104D40004546403058003031323334353637383903
:104D50006162636465664030780000007E302064E4
:104D60006163315F7365726465735F706C6C3A3157
:104D70003B202D20EEF7E8F1F2EAE020F0E5E3E851
:104D8000F1F2F0E020F1E8E3EDE0EBE020E7E0F520
:104D9000E2E0F2E020504C4C205365726465730DE4
:104DA00000000000D44E000800000020A400000015
:104DB000D4010008784F0008A4000020D42E000081
:104DC000F00100081001000043000000F8FFFFFFA1
:104DD000004040404040404040404141414141400E
:104DE00040404040404040404040404040404040C3
:104DF0004005020202020202020202020202020252
:104E00000220202020202020202020020202020256
:104E100002029090909090901010101010101010AE
:104E200010101010101010101010101002020202BA
:104E300002028888888888880808080808080808FE
:104E400008080808080808080808080802020202FA
:104E50004000000000000000000000000000000012
:104E60000000000000000000000000000000000042
:104E70000000000000000000000000000000000032
:104E80000000000000000000000000000000000022
:104E90000000000000000000000000000000000012
:104EA0000000000000000000000000000000000002
:104EB00000000000000000000000000000000000F2
:104EC00000000000000000000000000000000000E2
:104ED00000000000000000000000000000000000D2
:104EE00000000000000000000000000000000000C2
:104EF00000000000000000000000000000000000B2
:104F000000000000000000000000000000000000A1
:104F10000000000000000000000000000000000091
:104F20000000000000000000000000000000000081
:104F30000000000000000000000000000000000071
:104F40000000000000000000000000000000000061
:104F50000000000000000000000000000000000051
:104F60000000000000000000000000001000000031
:084F7000010000000024F40020
:040000050800019955
:00000001FF
